{
  "contractName": "Cryptonate",
  "abi": [
    {
      "inputs": [
        {
          "internalType": "string",
          "name": "name",
          "type": "string"
        },
        {
          "internalType": "string",
          "name": "description",
          "type": "string"
        }
      ],
      "name": "registerCharity",
      "outputs": [],
      "stateMutability": "nonpayable",
      "type": "function"
    },
    {
      "inputs": [],
      "name": "registerDonor",
      "outputs": [],
      "stateMutability": "nonpayable",
      "type": "function"
    },
    {
      "inputs": [
        {
          "internalType": "address",
          "name": "charityAddress",
          "type": "address"
        },
        {
          "internalType": "uint256",
          "name": "amount",
          "type": "uint256"
        }
      ],
      "name": "registerDonation",
      "outputs": [],
      "stateMutability": "payable",
      "type": "function",
      "payable": true
    },
    {
      "inputs": [
        {
          "internalType": "uint256",
          "name": "amount",
          "type": "uint256"
        },
        {
          "internalType": "uint256",
          "name": "expenseType",
          "type": "uint256"
        },
        {
          "internalType": "string",
          "name": "description",
          "type": "string"
        }
      ],
      "name": "requestFunds",
      "outputs": [],
      "stateMutability": "payable",
      "type": "function",
      "payable": true
    },
    {
      "inputs": [
        {
          "internalType": "uint256",
          "name": "pollId",
          "type": "uint256"
        },
        {
          "internalType": "address payable",
          "name": "charity",
          "type": "address"
        },
        {
          "internalType": "int256",
          "name": "voteType",
          "type": "int256"
        }
      ],
      "name": "vote",
      "outputs": [],
      "stateMutability": "nonpayable",
      "type": "function"
    },
    {
      "inputs": [
        {
          "internalType": "address",
          "name": "key",
          "type": "address"
        }
      ],
      "name": "checkValidDonor",
      "outputs": [
        {
          "internalType": "bool",
          "name": "",
          "type": "bool"
        }
      ],
      "stateMutability": "view",
      "type": "function",
      "constant": true
    },
    {
      "inputs": [
        {
          "internalType": "address",
          "name": "key",
          "type": "address"
        }
      ],
      "name": "checkValidCharity",
      "outputs": [
        {
          "internalType": "bool",
          "name": "",
          "type": "bool"
        }
      ],
      "stateMutability": "view",
      "type": "function",
      "constant": true
    }
  ],
  "bytecode": "0x608060405234801561001057600080fd5b50610fa0806100206000396000f3fe6080604052600436106100705760003560e01c8063aa810f361161004e578063aa810f36146100f7578063b134a4871461010e578063e8a568fa14610137578063f1be929e1461015357610070565b8063144599f2146100755780633c49dde4146100b257806351e73887146100ce575b600080fd5b34801561008157600080fd5b5061009c600480360381019061009791906107ea565b610190565b6040516100a99190610832565b60405180910390f35b6100cc60048036038101906100c79190610883565b61023a565b005b3480156100da57600080fd5b506100f560048036038101906100f09190610928565b610353565b005b34801561010357600080fd5b5061010c61041c565b005b34801561011a57600080fd5b5061013560048036038101906101309190610a1d565b6104a5565b005b610151600480360381019061014c9190610a70565b610558565b005b34801561015f57600080fd5b5061017a600480360381019061017591906107ea565b6106d8565b6040516101879190610832565b60405180910390f35b60008173ffffffffffffffffffffffffffffffffffffffff16600260008473ffffffffffffffffffffffffffffffffffffffff1673ffffffffffffffffffffffffffffffffffffffff16815260200190815260200160002060000160009054906101000a900473ffffffffffffffffffffffffffffffffffffffff1673ffffffffffffffffffffffffffffffffffffffff16036102305760019050610235565b600090505b919050565b80341480156102495750600081115b61025257600080fd5b6000600260003373ffffffffffffffffffffffffffffffffffffffff1673ffffffffffffffffffffffffffffffffffffffff168152602001908152602001600020905060018160010160008573ffffffffffffffffffffffffffffffffffffffff1673ffffffffffffffffffffffffffffffffffffffff16815260200190815260200160002060006101000a81548160ff0219169083151502179055506000600160008573ffffffffffffffffffffffffffffffffffffffff1673ffffffffffffffffffffffffffffffffffffffff1681526020019081526020016000209050828160030160008282546103469190610b13565b9250508190555050505050565b6000600160003373ffffffffffffffffffffffffffffffffffffffff1673ffffffffffffffffffffffffffffffffffffffff1681526020019081526020016000209050338160000160006101000a81548173ffffffffffffffffffffffffffffffffffffffff021916908373ffffffffffffffffffffffffffffffffffffffff16021790555084848260010191826103ec929190610d8d565b508282826002019182610400929190610d8d565b5060008160030181905550600081600401819055505050505050565b6000600260003373ffffffffffffffffffffffffffffffffffffffff1673ffffffffffffffffffffffffffffffffffffffff1681526020019081526020016000209050338160000160006101000a81548173ffffffffffffffffffffffffffffffffffffffff021916908373ffffffffffffffffffffffffffffffffffffffff16021790555050565b6000600160008473ffffffffffffffffffffffffffffffffffffffff1673ffffffffffffffffffffffffffffffffffffffff16815260200190815260200160002090506001820361052357806005016000858152602001908152602001600020600201600081548092919061051990610e5d565b9190505550610552565b806005016000858152602001908152602001600020600301600081548092919061054c90610e5d565b91905055505b50505050565b338480600160008473ffffffffffffffffffffffffffffffffffffffff1673ffffffffffffffffffffffffffffffffffffffff16815260200190815260200160002060030154116105de576040517f08c379a00000000000000000000000000000000000000000000000000000000081526004016105d590610f02565b60405180910390fd5b60008503610632573373ffffffffffffffffffffffffffffffffffffffff166108fc879081150290604051600060405180830381858888f1935050505015801561062c573d6000803e3d6000fd5b506106d0565b6000600160003373ffffffffffffffffffffffffffffffffffffffff1673ffffffffffffffffffffffffffffffffffffffff168152602001908152602001600020905080600401600081548092919061068a90610f22565b919050555060008160050160008360040154815260200190815260200160002090508160040154816000018190555085858260010191826106cc929190610d8d565b5050505b505050505050565b60008173ffffffffffffffffffffffffffffffffffffffff16600160008473ffffffffffffffffffffffffffffffffffffffff1673ffffffffffffffffffffffffffffffffffffffff16815260200190815260200160002060000160009054906101000a900473ffffffffffffffffffffffffffffffffffffffff1673ffffffffffffffffffffffffffffffffffffffff1603610778576001905061077d565b600090505b919050565b600080fd5b600080fd5b600073ffffffffffffffffffffffffffffffffffffffff82169050919050565b60006107b78261078c565b9050919050565b6107c7816107ac565b81146107d257600080fd5b50565b6000813590506107e4816107be565b92915050565b600060208284031215610800576107ff610782565b5b600061080e848285016107d5565b91505092915050565b60008115159050919050565b61082c81610817565b82525050565b60006020820190506108476000830184610823565b92915050565b6000819050919050565b6108608161084d565b811461086b57600080fd5b50565b60008135905061087d81610857565b92915050565b6000806040838503121561089a57610899610782565b5b60006108a8858286016107d5565b92505060206108b98582860161086e565b9150509250929050565b600080fd5b600080fd5b600080fd5b60008083601f8401126108e8576108e76108c3565b5b8235905067ffffffffffffffff811115610905576109046108c8565b5b602083019150836001820283011115610921576109206108cd565b5b9250929050565b6000806000806040858703121561094257610941610782565b5b600085013567ffffffffffffffff8111156109605761095f610787565b5b61096c878288016108d2565b9450945050602085013567ffffffffffffffff81111561098f5761098e610787565b5b61099b878288016108d2565b925092505092959194509250565b60006109b48261078c565b9050919050565b6109c4816109a9565b81146109cf57600080fd5b50565b6000813590506109e1816109bb565b92915050565b6000819050919050565b6109fa816109e7565b8114610a0557600080fd5b50565b600081359050610a17816109f1565b92915050565b600080600060608486031215610a3657610a35610782565b5b6000610a448682870161086e565b9350506020610a55868287016109d2565b9250506040610a6686828701610a08565b9150509250925092565b60008060008060608587031215610a8a57610a89610782565b5b6000610a988782880161086e565b9450506020610aa98782880161086e565b935050604085013567ffffffffffffffff811115610aca57610ac9610787565b5b610ad6878288016108d2565b925092505092959194509250565b7f4e487b7100000000000000000000000000000000000000000000000000000000600052601160045260246000fd5b6000610b1e8261084d565b9150610b298361084d565b9250828201905080821115610b4157610b40610ae4565b5b92915050565b600082905092915050565b7f4e487b7100000000000000000000000000000000000000000000000000000000600052604160045260246000fd5b7f4e487b7100000000000000000000000000000000000000000000000000000000600052602260045260246000fd5b60006002820490506001821680610bc857607f821691505b602082108103610bdb57610bda610b81565b5b50919050565b60008190508160005260206000209050919050565b60006020601f8301049050919050565b600082821b905092915050565b600060088302610c437fffffffffffffffffffffffffffffffffffffffffffffffffffffffffffffffff82610c06565b610c4d8683610c06565b95508019841693508086168417925050509392505050565b6000819050919050565b6000610c8a610c85610c808461084d565b610c65565b61084d565b9050919050565b6000819050919050565b610ca483610c6f565b610cb8610cb082610c91565b848454610c13565b825550505050565b600090565b610ccd610cc0565b610cd8818484610c9b565b505050565b5b81811015610cfc57610cf1600082610cc5565b600181019050610cde565b5050565b601f821115610d4157610d1281610be1565b610d1b84610bf6565b81016020851015610d2a578190505b610d3e610d3685610bf6565b830182610cdd565b50505b505050565b600082821c905092915050565b6000610d6460001984600802610d46565b1980831691505092915050565b6000610d7d8383610d53565b9150826002028217905092915050565b610d978383610b47565b67ffffffffffffffff811115610db057610daf610b52565b5b610dba8254610bb0565b610dc5828285610d00565b6000601f831160018114610df45760008415610de2578287013590505b610dec8582610d71565b865550610e54565b601f198416610e0286610be1565b60005b82811015610e2a57848901358255600182019150602085019450602081019050610e05565b86831015610e475784890135610e43601f891682610d53565b8355505b6001600288020188555050505b50505050505050565b6000610e68826109e7565b91507f7fffffffffffffffffffffffffffffffffffffffffffffffffffffffffffffff8203610e9a57610e99610ae4565b5b600182019050919050565b600082825260208201905092915050565b7f4e6f7420656e6f7567682066756e647320696e20746865207075727365000000600082015250565b6000610eec601d83610ea5565b9150610ef782610eb6565b602082019050919050565b60006020820190508181036000830152610f1b81610edf565b9050919050565b6000610f2d8261084d565b91507fffffffffffffffffffffffffffffffffffffffffffffffffffffffffffffffff8203610f5f57610f5e610ae4565b5b60018201905091905056fea264697066735822122070fd0a49e3bfd9668086d0c438b4b095b0174a5975d5773113066b50b4f66f6564736f6c63430008110033",
  "immutableReferences": {},
  "source": "// SPDX-License-Identifier: GPL-3.0\r\npragma solidity >=0.7.0 <0.9.0;\r\n\r\ncontract Cryptonate {\r\n    address payable cryptonateOwner;\r\n\r\n    // Holds details of each poll\r\n    struct Poll {\r\n        uint256 pollId;\r\n        string description;\r\n        int256 approved;\r\n        int256 disapproved;\r\n    }\r\n\r\n    // Hold details of a single charity\r\n    struct Charity {\r\n        address payable _charity;\r\n        string name;\r\n        string description;\r\n        uint256 funds;\r\n        uint256 numPolls;\r\n        mapping(uint256 => Poll) polls;\r\n    }\r\n\r\n    // Hold details of all charities\r\n    mapping(address => Charity) allCharities;\r\n\r\n    // Hold details of a donor\r\n    struct Donor {\r\n        address _donor;\r\n        mapping(address => bool) charities;\r\n    }\r\n\r\n    // Hold all donors\r\n    mapping(address => Donor) allDonors;\r\n\r\n    modifier validateRequest(address sender, uint256 amount) {\r\n        require(\r\n            allCharities[sender].funds > amount,\r\n            \"Not enough funds in the purse\"\r\n        );\r\n        _;\r\n    }\r\n\r\n    // Register a charity\r\n    function registerCharity(string calldata name, string calldata description)\r\n        public\r\n    {\r\n        Charity storage c = allCharities[payable(msg.sender)];\r\n        c._charity = payable(msg.sender);\r\n        c.name = name;\r\n        c.description = description;\r\n        c.funds = 0;\r\n        c.numPolls = 0;\r\n    }\r\n\r\n    // Register a donor\r\n    function registerDonor() public {\r\n        Donor storage d = allDonors[msg.sender];\r\n        d._donor = msg.sender;\r\n    }\r\n\r\n    function registerDonation(address charityAddress, uint256 amount)\r\n        public\r\n        payable\r\n    {\r\n        require(msg.value == amount && amount > 0);\r\n\r\n        // Add charity to the donor's list\r\n        Donor storage d = allDonors[msg.sender];\r\n        // This is to check if the donor should be allowed to respond to a poll by this charity\r\n        d.charities[charityAddress] = true;\r\n\r\n        // Add amount to charity's purse\r\n        Charity storage c = allCharities[charityAddress];\r\n        c.funds += amount;\r\n    }\r\n\r\n    // Transfer funds both opex and capex\r\n    function requestFunds(\r\n        uint256 amount,\r\n        uint256 expenseType,\r\n        string calldata description\r\n    ) public payable validateRequest(msg.sender, amount) {\r\n        if (expenseType == 0) {\r\n            // Send funds\r\n            payable(msg.sender).transfer(amount);\r\n        } else {\r\n            Charity storage c = allCharities[msg.sender];\r\n            c.numPolls++;\r\n            Poll storage p = c.polls[c.numPolls];\r\n            p.pollId = c.numPolls;\r\n            p.description = description;\r\n        }\r\n    }\r\n\r\n    function vote(\r\n        uint256 pollId,\r\n        address payable charity,\r\n        int256 voteType\r\n    ) public {\r\n        // Add user's vote\r\n        Charity storage c = allCharities[charity];\r\n        if (voteType == 1) {\r\n            c.polls[pollId].approved++;\r\n        } else {\r\n            c.polls[pollId].disapproved++;\r\n        }\r\n    }\r\n\r\n    function checkValidDonor(address key) public view returns (bool) {\r\n        if (allDonors[key]._donor == key) {\r\n            return true;\r\n        } else {\r\n            return false;\r\n        }\r\n    }\r\n\r\n    function checkValidCharity(address key) public view returns (bool) {\r\n        if (allCharities[key]._charity == key) {\r\n            return true;\r\n        } else {\r\n            return false;\r\n        }\r\n    }\r\n}\r\n",
  "sourcePath": "C:\\Users\\Manu\\Documents\\blockchain project\\blockchain\\cryptonate-contract\\contracts\\Cryptonate.sol",
  "compiler": {
    "name": "solc",
    "version": "0.8.17+commit.8df45f5f.Emscripten.clang"
  },
  "schemaVersion": "3.4.10",
  "updatedAt": "2022-11-14T21:18:42.180Z",
  "networkType": "ethereum",
  "devdoc": {
    "kind": "dev",
    "methods": {},
    "version": 1
  },
  "userdoc": {
    "kind": "user",
    "methods": {},
    "version": 1
  }
}