{
  "contractName": "Cryptonate",
  "abi": [
    {
      "inputs": [
        {
          "internalType": "string",
          "name": "name",
          "type": "string"
        },
        {
          "internalType": "string",
          "name": "description",
          "type": "string"
        }
      ],
      "name": "registerCharity",
      "outputs": [],
      "stateMutability": "nonpayable",
      "type": "function"
    },
    {
      "inputs": [
        {
          "internalType": "address",
          "name": "donorAddress",
          "type": "address"
        }
      ],
      "name": "registerDonor",
      "outputs": [],
      "stateMutability": "nonpayable",
      "type": "function"
    },
    {
      "inputs": [
        {
          "internalType": "address",
          "name": "charityAddress",
          "type": "address"
        },
        {
          "internalType": "uint256",
          "name": "amount",
          "type": "uint256"
        }
      ],
      "name": "registerDonation",
      "outputs": [],
      "stateMutability": "payable",
      "type": "function",
      "payable": true
    },
    {
      "inputs": [
        {
          "internalType": "uint256",
          "name": "amount",
          "type": "uint256"
        },
        {
          "internalType": "uint256",
          "name": "expenseType",
          "type": "uint256"
        },
        {
          "internalType": "string",
          "name": "description",
          "type": "string"
        }
      ],
      "name": "requestFunds",
      "outputs": [],
      "stateMutability": "payable",
      "type": "function",
      "payable": true
    },
    {
      "inputs": [
        {
          "internalType": "uint256",
          "name": "pollId",
          "type": "uint256"
        },
        {
          "internalType": "address payable",
          "name": "charity",
          "type": "address"
        },
        {
          "internalType": "int256",
          "name": "voteType",
          "type": "int256"
        }
      ],
      "name": "vote",
      "outputs": [],
      "stateMutability": "nonpayable",
      "type": "function"
    },
    {
      "inputs": [
        {
          "internalType": "address",
          "name": "key",
          "type": "address"
        }
      ],
      "name": "checkValidDonor",
      "outputs": [
        {
          "internalType": "bool",
          "name": "",
          "type": "bool"
        }
      ],
      "stateMutability": "view",
      "type": "function",
      "constant": true
    },
    {
      "inputs": [
        {
          "internalType": "address",
          "name": "key",
          "type": "address"
        }
      ],
      "name": "checkValidCharity",
      "outputs": [
        {
          "internalType": "bool",
          "name": "",
          "type": "bool"
        }
      ],
      "stateMutability": "view",
      "type": "function",
      "constant": true
    }
  ],
  "bytecode": "0x608060405234801561001057600080fd5b50610fb3806100206000396000f3fe6080604052600436106100705760003560e01c8063b134a4871161004e578063b134a487146100f7578063bc9f30a514610120578063e8a568fa14610149578063f1be929e1461016557610070565b8063144599f2146100755780633c49dde4146100b257806351e73887146100ce575b600080fd5b34801561008157600080fd5b5061009c600480360381019061009791906107fd565b6101a2565b6040516100a99190610845565b60405180910390f35b6100cc60048036038101906100c79190610896565b61024c565b005b3480156100da57600080fd5b506100f560048036038101906100f0919061093b565b610365565b005b34801561010357600080fd5b5061011e60048036038101906101199190610a30565b61042e565b005b34801561012c57600080fd5b50610147600480360381019061014291906107fd565b6104e1565b005b610163600480360381019061015e9190610a83565b61056b565b005b34801561017157600080fd5b5061018c600480360381019061018791906107fd565b6106eb565b6040516101999190610845565b60405180910390f35b60008173ffffffffffffffffffffffffffffffffffffffff16600260008473ffffffffffffffffffffffffffffffffffffffff1673ffffffffffffffffffffffffffffffffffffffff16815260200190815260200160002060000160009054906101000a900473ffffffffffffffffffffffffffffffffffffffff1673ffffffffffffffffffffffffffffffffffffffff16036102425760019050610247565b600090505b919050565b803414801561025b5750600081115b61026457600080fd5b6000600260003373ffffffffffffffffffffffffffffffffffffffff1673ffffffffffffffffffffffffffffffffffffffff168152602001908152602001600020905060018160010160008573ffffffffffffffffffffffffffffffffffffffff1673ffffffffffffffffffffffffffffffffffffffff16815260200190815260200160002060006101000a81548160ff0219169083151502179055506000600160008573ffffffffffffffffffffffffffffffffffffffff1673ffffffffffffffffffffffffffffffffffffffff1681526020019081526020016000209050828160030160008282546103589190610b26565b9250508190555050505050565b6000600160003373ffffffffffffffffffffffffffffffffffffffff1673ffffffffffffffffffffffffffffffffffffffff1681526020019081526020016000209050338160000160006101000a81548173ffffffffffffffffffffffffffffffffffffffff021916908373ffffffffffffffffffffffffffffffffffffffff16021790555084848260010191826103fe929190610da0565b508282826002019182610412929190610da0565b5060008160030181905550600081600401819055505050505050565b6000600160008473ffffffffffffffffffffffffffffffffffffffff1673ffffffffffffffffffffffffffffffffffffffff1681526020019081526020016000209050600182036104ac5780600501600085815260200190815260200160002060020160008154809291906104a290610e70565b91905055506104db565b80600501600085815260200190815260200160002060030160008154809291906104d590610e70565b91905055505b50505050565b6000600260008373ffffffffffffffffffffffffffffffffffffffff1673ffffffffffffffffffffffffffffffffffffffff1681526020019081526020016000209050818160000160006101000a81548173ffffffffffffffffffffffffffffffffffffffff021916908373ffffffffffffffffffffffffffffffffffffffff1602179055505050565b338480600160008473ffffffffffffffffffffffffffffffffffffffff1673ffffffffffffffffffffffffffffffffffffffff16815260200190815260200160002060030154116105f1576040517f08c379a00000000000000000000000000000000000000000000000000000000081526004016105e890610f15565b60405180910390fd5b60008503610645573373ffffffffffffffffffffffffffffffffffffffff166108fc879081150290604051600060405180830381858888f1935050505015801561063f573d6000803e3d6000fd5b506106e3565b6000600160003373ffffffffffffffffffffffffffffffffffffffff1673ffffffffffffffffffffffffffffffffffffffff168152602001908152602001600020905080600401600081548092919061069d90610f35565b919050555060008160050160008360040154815260200190815260200160002090508160040154816000018190555085858260010191826106df929190610da0565b5050505b505050505050565b60008173ffffffffffffffffffffffffffffffffffffffff16600160008473ffffffffffffffffffffffffffffffffffffffff1673ffffffffffffffffffffffffffffffffffffffff16815260200190815260200160002060000160009054906101000a900473ffffffffffffffffffffffffffffffffffffffff1673ffffffffffffffffffffffffffffffffffffffff160361078b5760019050610790565b600090505b919050565b600080fd5b600080fd5b600073ffffffffffffffffffffffffffffffffffffffff82169050919050565b60006107ca8261079f565b9050919050565b6107da816107bf565b81146107e557600080fd5b50565b6000813590506107f7816107d1565b92915050565b60006020828403121561081357610812610795565b5b6000610821848285016107e8565b91505092915050565b60008115159050919050565b61083f8161082a565b82525050565b600060208201905061085a6000830184610836565b92915050565b6000819050919050565b61087381610860565b811461087e57600080fd5b50565b6000813590506108908161086a565b92915050565b600080604083850312156108ad576108ac610795565b5b60006108bb858286016107e8565b92505060206108cc85828601610881565b9150509250929050565b600080fd5b600080fd5b600080fd5b60008083601f8401126108fb576108fa6108d6565b5b8235905067ffffffffffffffff811115610918576109176108db565b5b602083019150836001820283011115610934576109336108e0565b5b9250929050565b6000806000806040858703121561095557610954610795565b5b600085013567ffffffffffffffff8111156109735761097261079a565b5b61097f878288016108e5565b9450945050602085013567ffffffffffffffff8111156109a2576109a161079a565b5b6109ae878288016108e5565b925092505092959194509250565b60006109c78261079f565b9050919050565b6109d7816109bc565b81146109e257600080fd5b50565b6000813590506109f4816109ce565b92915050565b6000819050919050565b610a0d816109fa565b8114610a1857600080fd5b50565b600081359050610a2a81610a04565b92915050565b600080600060608486031215610a4957610a48610795565b5b6000610a5786828701610881565b9350506020610a68868287016109e5565b9250506040610a7986828701610a1b565b9150509250925092565b60008060008060608587031215610a9d57610a9c610795565b5b6000610aab87828801610881565b9450506020610abc87828801610881565b935050604085013567ffffffffffffffff811115610add57610adc61079a565b5b610ae9878288016108e5565b925092505092959194509250565b7f4e487b7100000000000000000000000000000000000000000000000000000000600052601160045260246000fd5b6000610b3182610860565b9150610b3c83610860565b9250828201905080821115610b5457610b53610af7565b5b92915050565b600082905092915050565b7f4e487b7100000000000000000000000000000000000000000000000000000000600052604160045260246000fd5b7f4e487b7100000000000000000000000000000000000000000000000000000000600052602260045260246000fd5b60006002820490506001821680610bdb57607f821691505b602082108103610bee57610bed610b94565b5b50919050565b60008190508160005260206000209050919050565b60006020601f8301049050919050565b600082821b905092915050565b600060088302610c567fffffffffffffffffffffffffffffffffffffffffffffffffffffffffffffffff82610c19565b610c608683610c19565b95508019841693508086168417925050509392505050565b6000819050919050565b6000610c9d610c98610c9384610860565b610c78565b610860565b9050919050565b6000819050919050565b610cb783610c82565b610ccb610cc382610ca4565b848454610c26565b825550505050565b600090565b610ce0610cd3565b610ceb818484610cae565b505050565b5b81811015610d0f57610d04600082610cd8565b600181019050610cf1565b5050565b601f821115610d5457610d2581610bf4565b610d2e84610c09565b81016020851015610d3d578190505b610d51610d4985610c09565b830182610cf0565b50505b505050565b600082821c905092915050565b6000610d7760001984600802610d59565b1980831691505092915050565b6000610d908383610d66565b9150826002028217905092915050565b610daa8383610b5a565b67ffffffffffffffff811115610dc357610dc2610b65565b5b610dcd8254610bc3565b610dd8828285610d13565b6000601f831160018114610e075760008415610df5578287013590505b610dff8582610d84565b865550610e67565b601f198416610e1586610bf4565b60005b82811015610e3d57848901358255600182019150602085019450602081019050610e18565b86831015610e5a5784890135610e56601f891682610d66565b8355505b6001600288020188555050505b50505050505050565b6000610e7b826109fa565b91507f7fffffffffffffffffffffffffffffffffffffffffffffffffffffffffffffff8203610ead57610eac610af7565b5b600182019050919050565b600082825260208201905092915050565b7f4e6f7420656e6f7567682066756e647320696e20746865207075727365000000600082015250565b6000610eff601d83610eb8565b9150610f0a82610ec9565b602082019050919050565b60006020820190508181036000830152610f2e81610ef2565b9050919050565b6000610f4082610860565b91507fffffffffffffffffffffffffffffffffffffffffffffffffffffffffffffffff8203610f7257610f71610af7565b5b60018201905091905056fea2646970667358221220946021495d076682cf2062e53b5ad5ac049ce2439686ba7db7887a5ee5d6786064736f6c63430008110033",
  "immutableReferences": {},
  "source": "// SPDX-License-Identifier: GPL-3.0\r\npragma solidity >=0.7.0 <0.9.0;\r\n\r\ncontract Cryptonate {\r\n    address payable cryptonateOwner;\r\n\r\n    // Holds details of each poll\r\n    struct Poll {\r\n        uint256 pollId;\r\n        string description;\r\n        int256 approved;\r\n        int256 disapproved;\r\n    }\r\n\r\n    // Hold details of a single charity\r\n    struct Charity {\r\n        address payable _charity;\r\n        string name;\r\n        string description;\r\n        uint256 funds;\r\n        uint256 numPolls;\r\n        mapping(uint256 => Poll) polls;\r\n    }\r\n\r\n    // Hold details of all charities\r\n    mapping(address => Charity) allCharities;\r\n\r\n    // Hold details of a donor\r\n    struct Donor {\r\n        address _donor;\r\n        mapping(address => bool) charities;\r\n    }\r\n\r\n    // Hold all donors\r\n    mapping(address => Donor) allDonors;\r\n\r\n    modifier validateRequest(address sender, uint256 amount) {\r\n        require(\r\n            allCharities[sender].funds > amount,\r\n            \"Not enough funds in the purse\"\r\n        );\r\n        _;\r\n    }\r\n\r\n    // Register a charity\r\n    function registerCharity(string calldata name, string calldata description)\r\n        public\r\n    {\r\n        Charity storage c = allCharities[payable(msg.sender)];\r\n        c._charity = payable(msg.sender);\r\n        c.name = name;\r\n        c.description = description;\r\n        c.funds = 0;\r\n        c.numPolls = 0;\r\n    }\r\n\r\n    // Register a donor\r\n    function registerDonor(address donorAddress) public {\r\n        Donor storage d = allDonors[donorAddress];\r\n        d._donor = donorAddress;\r\n    }\r\n\r\n    function registerDonation(address charityAddress, uint256 amount)\r\n        public\r\n        payable\r\n    {\r\n        require(msg.value == amount && amount > 0);\r\n\r\n        // Add charity to the donor's list\r\n        Donor storage d = allDonors[msg.sender];\r\n        // This is to check if the donor should be allowed to respond to a poll by this charity\r\n        d.charities[charityAddress] = true;\r\n\r\n        // Add amount to charity's purse\r\n        Charity storage c = allCharities[charityAddress];\r\n        c.funds += amount;\r\n    }\r\n\r\n    // Transfer funds both opex and capex\r\n    function requestFunds(\r\n        uint256 amount,\r\n        uint256 expenseType,\r\n        string calldata description\r\n    ) public payable validateRequest(msg.sender, amount) {\r\n        if (expenseType == 0) {\r\n            // Send funds\r\n            payable(msg.sender).transfer(amount);\r\n        } else {\r\n            Charity storage c = allCharities[msg.sender];\r\n            c.numPolls++;\r\n            Poll storage p = c.polls[c.numPolls];\r\n            p.pollId = c.numPolls;\r\n            p.description = description;\r\n        }\r\n    }\r\n\r\n    function vote(\r\n        uint256 pollId,\r\n        address payable charity,\r\n        int256 voteType\r\n    ) public {\r\n        // Add user's vote\r\n        Charity storage c = allCharities[charity];\r\n        if (voteType == 1) {\r\n            c.polls[pollId].approved++;\r\n        } else {\r\n            c.polls[pollId].disapproved++;\r\n        }\r\n    }\r\n\r\n    function checkValidDonor(address key) public view returns (bool) {\r\n        if (allDonors[key]._donor == key) {\r\n            return true;\r\n        } else {\r\n            return false;\r\n        }\r\n    }\r\n\r\n    function checkValidCharity(address key) public view returns (bool) {\r\n        if (allCharities[key]._charity == key) {\r\n            return true;\r\n        } else {\r\n            return false;\r\n        }\r\n    }\r\n}\r\n",
  "sourcePath": "C:\\Users\\Manu\\Documents\\blockchain project\\blockchain\\cryptonate-contract\\contracts\\Cryptonate.sol",
  "compiler": {
    "name": "solc",
    "version": "0.8.17+commit.8df45f5f.Emscripten.clang"
  },
  "schemaVersion": "3.4.10",
  "updatedAt": "2022-11-14T20:40:05.263Z",
  "networkType": "ethereum",
  "devdoc": {
    "kind": "dev",
    "methods": {},
    "version": 1
  },
  "userdoc": {
    "kind": "user",
    "methods": {},
    "version": 1
  }
}