{
  "contractName": "Cryptonate",
  "abi": [
    {
      "inputs": [
        {
          "internalType": "string",
          "name": "name",
          "type": "string"
        },
        {
          "internalType": "string",
          "name": "description",
          "type": "string"
        }
      ],
      "name": "registerCharity",
      "outputs": [],
      "stateMutability": "nonpayable",
      "type": "function"
    },
    {
      "inputs": [],
      "name": "registerDonor",
      "outputs": [],
      "stateMutability": "nonpayable",
      "type": "function"
    },
    {
      "inputs": [
        {
          "internalType": "address",
          "name": "charityAddress",
          "type": "address"
        },
        {
          "internalType": "uint256",
          "name": "amount",
          "type": "uint256"
        }
      ],
      "name": "registerDonation",
      "outputs": [],
      "stateMutability": "payable",
      "type": "function",
      "payable": true
    },
    {
      "inputs": [
        {
          "internalType": "uint256",
          "name": "amount",
          "type": "uint256"
        },
        {
          "internalType": "uint256",
          "name": "expenseType",
          "type": "uint256"
        },
        {
          "internalType": "string",
          "name": "description",
          "type": "string"
        }
      ],
      "name": "requestFunds",
      "outputs": [],
      "stateMutability": "payable",
      "type": "function",
      "payable": true
    },
    {
      "inputs": [
        {
          "internalType": "uint256",
          "name": "pollId",
          "type": "uint256"
        },
        {
          "internalType": "address payable",
          "name": "charityAddress",
          "type": "address"
        },
        {
          "internalType": "uint256",
          "name": "voteType",
          "type": "uint256"
        }
      ],
      "name": "vote",
      "outputs": [],
      "stateMutability": "nonpayable",
      "type": "function"
    },
    {
      "inputs": [
        {
          "internalType": "address",
          "name": "key",
          "type": "address"
        }
      ],
      "name": "checkValidDonor",
      "outputs": [
        {
          "internalType": "bool",
          "name": "",
          "type": "bool"
        }
      ],
      "stateMutability": "view",
      "type": "function",
      "constant": true
    },
    {
      "inputs": [
        {
          "internalType": "address",
          "name": "key",
          "type": "address"
        }
      ],
      "name": "checkValidCharity",
      "outputs": [
        {
          "internalType": "bool",
          "name": "",
          "type": "bool"
        }
      ],
      "stateMutability": "view",
      "type": "function",
      "constant": true
    },
    {
      "inputs": [
        {
          "internalType": "address",
          "name": "charityAddress",
          "type": "address"
        }
      ],
      "name": "getPolls",
      "outputs": [
        {
          "internalType": "uint256[10]",
          "name": "",
          "type": "uint256[10]"
        },
        {
          "internalType": "uint256[10]",
          "name": "",
          "type": "uint256[10]"
        },
        {
          "internalType": "string[10]",
          "name": "",
          "type": "string[10]"
        }
      ],
      "stateMutability": "view",
      "type": "function",
      "constant": true
    },
    {
      "inputs": [
        {
          "internalType": "address",
          "name": "charityAddress",
          "type": "address"
        }
      ],
      "name": "getNumPolls",
      "outputs": [
        {
          "internalType": "uint256",
          "name": "",
          "type": "uint256"
        }
      ],
      "stateMutability": "view",
      "type": "function",
      "constant": true
    }
  ],
  "bytecode": "0x608060405234801561001057600080fd5b50611732806100206000396000f3fe6080604052600436106100865760003560e01c806351e738871161005957806351e738871461014c57806392f92fb014610175578063aa810f36146101b2578063e8a568fa146101c9578063f1be929e146101e557610086565b8063144599f21461008b578063310b7eb2146100c85780633c49dde4146101075780634de8737c14610123575b600080fd5b34801561009757600080fd5b506100b260048036038101906100ad9190610d2d565b610222565b6040516100bf9190610d75565b60405180910390f35b3480156100d457600080fd5b506100ef60048036038101906100ea9190610d2d565b6102cc565b6040516100fe93929190610f8b565b60405180910390f35b610121600480360381019061011c9190610ff8565b6104dd565b005b34801561012f57600080fd5b5061014a60048036038101906101459190611076565b61066d565b005b34801561015857600080fd5b50610173600480360381019061016e919061112e565b6107f7565b005b34801561018157600080fd5b5061019c60048036038101906101979190610d2d565b6108ca565b6040516101a991906111be565b60405180910390f35b3480156101be57600080fd5b506101c761091b565b005b6101e360048036038101906101de91906111d9565b6109a4565b005b3480156101f157600080fd5b5061020c60048036038101906102079190610d2d565b610bd0565b6040516102199190610d75565b60405180910390f35b60008173ffffffffffffffffffffffffffffffffffffffff16600260008473ffffffffffffffffffffffffffffffffffffffff1673ffffffffffffffffffffffffffffffffffffffff16815260200190815260200160002060000160009054906101000a900473ffffffffffffffffffffffffffffffffffffffff1673ffffffffffffffffffffffffffffffffffffffff16036102c257600190506102c7565b600090505b919050565b6102d4610c7a565b6102dc610c7a565b6102e4610c9d565b6000600160008673ffffffffffffffffffffffffffffffffffffffff1673ffffffffffffffffffffffffffffffffffffffff168152602001908152602001600020905061032f610c7a565b610337610c7a565b61033f610c9d565b60005b600a8110156104c8576000856006016000838152602001908152602001600020600401540361038e5760008482600a81106103805761037f61124d565b5b6020020181815250506103f9565b846006016000828152602001908152602001600020600201548482600a81106103ba576103b961124d565b5b602002018181525050846006016000828152602001908152602001600020600301548382600a81106103ef576103ee61124d565b5b6020020181815250505b846006016000828152602001908152602001600020600101805461041c906112ab565b80601f0160208091040260200160405190810160405280929190818152602001828054610448906112ab565b80156104955780601f1061046a57610100808354040283529160200191610495565b820191906000526020600020905b81548152906001019060200180831161047857829003601f168201915b50505050508282600a81106104ad576104ac61124d565b5b602002018190525080806104c09061130b565b915050610342565b50828282965096509650505050509193909250565b80341480156104ec5750600081115b6104f557600080fd5b6000600260003373ffffffffffffffffffffffffffffffffffffffff1673ffffffffffffffffffffffffffffffffffffffff16815260200190815260200160002090506000600160008573ffffffffffffffffffffffffffffffffffffffff1673ffffffffffffffffffffffffffffffffffffffff16815260200190815260200160002090508281600301600082825461058f9190611353565b92505081905550600015158260010160008673ffffffffffffffffffffffffffffffffffffffff1673ffffffffffffffffffffffffffffffffffffffff16815260200190815260200160002060009054906101000a900460ff161515036106675760018260010160008673ffffffffffffffffffffffffffffffffffffffff1673ffffffffffffffffffffffffffffffffffffffff16815260200190815260200160002060006101000a81548160ff021916908315150217905550600181600501600082825461065f9190611353565b925050819055505b50505050565b6000600160008473ffffffffffffffffffffffffffffffffffffffff1673ffffffffffffffffffffffffffffffffffffffff1681526020019081526020016000209050600182036106eb5780600601600085815260200190815260200160002060020160008154809291906106e19061130b565b919050555061071a565b80600601600085815260200190815260200160002060030160008154809291906107149061130b565b91905055505b8060050154816006016000868152602001908152602001600020600301548260060160008781526020019081526020016000206002015461075b9190611353565b106107f1576001816006016000868152602001908152602001600020600401819055508273ffffffffffffffffffffffffffffffffffffffff166108fc670de0b6b3a7640000836006016000888152602001908152602001600020600501546107c49190611387565b9081150290604051600060405180830381858888f193505050501580156107ef573d6000803e3d6000fd5b505b50505050565b6000600160003373ffffffffffffffffffffffffffffffffffffffff1673ffffffffffffffffffffffffffffffffffffffff1681526020019081526020016000209050338160000160006101000a81548173ffffffffffffffffffffffffffffffffffffffff021916908373ffffffffffffffffffffffffffffffffffffffff16021790555084848260010191826108909291906115af565b5082828260020191826108a49291906115af565b506000816003018190555060008160050181905550600081600401819055505050505050565b600080600160008473ffffffffffffffffffffffffffffffffffffffff1673ffffffffffffffffffffffffffffffffffffffff16815260200190815260200160002090508060040154915050919050565b6000600260003373ffffffffffffffffffffffffffffffffffffffff1673ffffffffffffffffffffffffffffffffffffffff1681526020019081526020016000209050338160000160006101000a81548173ffffffffffffffffffffffffffffffffffffffff021916908373ffffffffffffffffffffffffffffffffffffffff16021790555050565b338480600160008473ffffffffffffffffffffffffffffffffffffffff1673ffffffffffffffffffffffffffffffffffffffff1681526020019081526020016000206003015411610a2a576040517f08c379a0000000000000000000000000000000000000000000000000000000008152600401610a21906116dc565b60405180910390fd5b60008503610a91573373ffffffffffffffffffffffffffffffffffffffff166108fc670de0b6b3a764000088610a609190611387565b9081150290604051600060405180830381858888f19350505050158015610a8b573d6000803e3d6000fd5b50610bc8565b6000600160003373ffffffffffffffffffffffffffffffffffffffff1673ffffffffffffffffffffffffffffffffffffffff1681526020019081526020016000209050806004015481600601600083600401548152602001908152602001600020600001819055508484826006016000846004015481526020019081526020016000206001019182610b249291906115af565b50600081600601600083600401548152602001908152602001600020600201819055506000816006016000836004015481526020019081526020016000206003018190555060008160060160008360040154815260200190815260200160002060040181905550868160060160008360040154815260200190815260200160002060050181905550806004016000815480929190610bc19061130b565b9190505550505b505050505050565b60008173ffffffffffffffffffffffffffffffffffffffff16600160008473ffffffffffffffffffffffffffffffffffffffff1673ffffffffffffffffffffffffffffffffffffffff16815260200190815260200160002060000160009054906101000a900473ffffffffffffffffffffffffffffffffffffffff1673ffffffffffffffffffffffffffffffffffffffff1603610c705760019050610c75565b600090505b919050565b604051806101400160405280600a90602082028036833780820191505090505090565b604051806101400160405280600a905b6060815260200190600190039081610cad5790505090565b600080fd5b600080fd5b600073ffffffffffffffffffffffffffffffffffffffff82169050919050565b6000610cfa82610ccf565b9050919050565b610d0a81610cef565b8114610d1557600080fd5b50565b600081359050610d2781610d01565b92915050565b600060208284031215610d4357610d42610cc5565b5b6000610d5184828501610d18565b91505092915050565b60008115159050919050565b610d6f81610d5a565b82525050565b6000602082019050610d8a6000830184610d66565b92915050565b6000600a9050919050565b600081905092915050565b6000819050919050565b6000819050919050565b610dc381610db0565b82525050565b6000610dd58383610dba565b60208301905092915050565b6000602082019050919050565b610df781610d90565b610e018184610d9b565b9250610e0c82610da6565b8060005b83811015610e3d578151610e248782610dc9565b9650610e2f83610de1565b925050600181019050610e10565b505050505050565b6000600a9050919050565b600081905092915050565b6000819050919050565b600081519050919050565b600082825260208201905092915050565b60005b83811015610e9f578082015181840152602081019050610e84565b60008484015250505050565b6000601f19601f8301169050919050565b6000610ec782610e65565b610ed18185610e70565b9350610ee1818560208601610e81565b610eea81610eab565b840191505092915050565b6000610f018383610ebc565b905092915050565b6000602082019050919050565b6000610f2182610e45565b610f2b8185610e50565b935083602082028501610f3d85610e5b565b8060005b85811015610f795784840389528151610f5a8582610ef5565b9450610f6583610f09565b925060208a01995050600181019050610f41565b50829750879550505050505092915050565b60006102a082019050610fa16000830186610dee565b610faf610140830185610dee565b818103610280830152610fc28184610f16565b9050949350505050565b610fd581610db0565b8114610fe057600080fd5b50565b600081359050610ff281610fcc565b92915050565b6000806040838503121561100f5761100e610cc5565b5b600061101d85828601610d18565b925050602061102e85828601610fe3565b9150509250929050565b600061104382610ccf565b9050919050565b61105381611038565b811461105e57600080fd5b50565b6000813590506110708161104a565b92915050565b60008060006060848603121561108f5761108e610cc5565b5b600061109d86828701610fe3565b93505060206110ae86828701611061565b92505060406110bf86828701610fe3565b9150509250925092565b600080fd5b600080fd5b600080fd5b60008083601f8401126110ee576110ed6110c9565b5b8235905067ffffffffffffffff81111561110b5761110a6110ce565b5b602083019150836001820283011115611127576111266110d3565b5b9250929050565b6000806000806040858703121561114857611147610cc5565b5b600085013567ffffffffffffffff81111561116657611165610cca565b5b611172878288016110d8565b9450945050602085013567ffffffffffffffff81111561119557611194610cca565b5b6111a1878288016110d8565b925092505092959194509250565b6111b881610db0565b82525050565b60006020820190506111d360008301846111af565b92915050565b600080600080606085870312156111f3576111f2610cc5565b5b600061120187828801610fe3565b945050602061121287828801610fe3565b935050604085013567ffffffffffffffff81111561123357611232610cca565b5b61123f878288016110d8565b925092505092959194509250565b7f4e487b7100000000000000000000000000000000000000000000000000000000600052603260045260246000fd5b7f4e487b7100000000000000000000000000000000000000000000000000000000600052602260045260246000fd5b600060028204905060018216806112c357607f821691505b6020821081036112d6576112d561127c565b5b50919050565b7f4e487b7100000000000000000000000000000000000000000000000000000000600052601160045260246000fd5b600061131682610db0565b91507fffffffffffffffffffffffffffffffffffffffffffffffffffffffffffffffff8203611348576113476112dc565b5b600182019050919050565b600061135e82610db0565b915061136983610db0565b9250828201905080821115611381576113806112dc565b5b92915050565b600061139282610db0565b915061139d83610db0565b92508282026113ab81610db0565b915082820484148315176113c2576113c16112dc565b5b5092915050565b600082905092915050565b7f4e487b7100000000000000000000000000000000000000000000000000000000600052604160045260246000fd5b60008190508160005260206000209050919050565b60006020601f8301049050919050565b600082821b905092915050565b6000600883026114657fffffffffffffffffffffffffffffffffffffffffffffffffffffffffffffffff82611428565b61146f8683611428565b95508019841693508086168417925050509392505050565b6000819050919050565b60006114ac6114a76114a284610db0565b611487565b610db0565b9050919050565b6000819050919050565b6114c683611491565b6114da6114d2826114b3565b848454611435565b825550505050565b600090565b6114ef6114e2565b6114fa8184846114bd565b505050565b5b8181101561151e576115136000826114e7565b600181019050611500565b5050565b601f8211156115635761153481611403565b61153d84611418565b8101602085101561154c578190505b61156061155885611418565b8301826114ff565b50505b505050565b600082821c905092915050565b600061158660001984600802611568565b1980831691505092915050565b600061159f8383611575565b9150826002028217905092915050565b6115b983836113c9565b67ffffffffffffffff8111156115d2576115d16113d4565b5b6115dc82546112ab565b6115e7828285611522565b6000601f8311600181146116165760008415611604578287013590505b61160e8582611593565b865550611676565b601f19841661162486611403565b60005b8281101561164c57848901358255600182019150602085019450602081019050611627565b868310156116695784890135611665601f891682611575565b8355505b6001600288020188555050505b50505050505050565b600082825260208201905092915050565b7f4e6f7420656e6f7567682066756e647320696e20746865207075727365000000600082015250565b60006116c6601d8361167f565b91506116d182611690565b602082019050919050565b600060208201905081810360008301526116f5816116b9565b905091905056fea26469706673582212205d221b772d6b107b78053c3d244759694d7f91bc526d3918f63d211f9f0f602164736f6c63430008110033",
  "immutableReferences": {},
  "source": "// SPDX-License-Identifier: GPL-3.0\r\npragma solidity >=0.7.0 <0.9.0;\r\n\r\ncontract Cryptonate {\r\n    address payable cryptonateOwner;\r\n\r\n    // Holds details of each poll\r\n    struct Poll {\r\n        uint256 pollId;\r\n        string description;\r\n        uint256 approved;\r\n        uint256 disapproved;\r\n        uint256 state;\r\n        uint256 amount;\r\n    }\r\n\r\n    // Hold details of a single charity\r\n    struct Charity {\r\n        address payable _charity;\r\n        string name;\r\n        string description;\r\n        uint256 funds;\r\n        uint256 numPolls;\r\n        uint256 numDonors;\r\n        mapping(uint256 => Poll) polls;\r\n    }\r\n\r\n    // Hold details of all charities\r\n    mapping(address => Charity) allCharities;\r\n\r\n    // Hold details of a donor\r\n    struct Donor {\r\n        address _donor;\r\n        mapping(address => bool) charities;\r\n    }\r\n\r\n    // Hold all donors\r\n    mapping(address => Donor) allDonors;\r\n\r\n    modifier validateRequest(address sender, uint256 amount) {\r\n        require(\r\n            allCharities[sender].funds > amount,\r\n            \"Not enough funds in the purse\"\r\n        );\r\n        _;\r\n    }\r\n\r\n    // Register a charity\r\n    function registerCharity(string calldata name, string calldata description)\r\n        public\r\n    {\r\n        Charity storage c = allCharities[payable(msg.sender)];\r\n        c._charity = payable(msg.sender);\r\n        c.name = name;\r\n        c.description = description;\r\n        c.funds = 0;\r\n        c.numDonors = 0;\r\n        c.numPolls = 0;\r\n    }\r\n\r\n    // Register a donor\r\n    function registerDonor() public {\r\n        Donor storage d = allDonors[msg.sender];\r\n        d._donor = msg.sender;\r\n    }\r\n\r\n    function registerDonation(address charityAddress, uint256 amount)\r\n        public\r\n        payable\r\n    {\r\n        require(msg.value == amount && amount > 0);\r\n\r\n        // Add charity to the donor's list\r\n        Donor storage d = allDonors[msg.sender];\r\n\r\n        // Add amount to charity's purse\r\n        Charity storage c = allCharities[charityAddress];\r\n        c.funds += amount;\r\n\r\n        // This is to check if the donor should be allowed to respond to a poll by this charity\r\n        if (d.charities[charityAddress] == false) {\r\n            d.charities[charityAddress] = true;\r\n            c.numDonors += 1;\r\n        }\r\n    }\r\n\r\n    // Transfer funds both opex and capex\r\n    function requestFunds(\r\n        uint256 amount,\r\n        uint256 expenseType,\r\n        string calldata description\r\n    ) public payable validateRequest(msg.sender, amount) {\r\n        if (expenseType == 0) {\r\n            // Send funds\r\n            payable(msg.sender).transfer(amount * 1000000000000000000);\r\n        } else {\r\n            Charity storage c = allCharities[msg.sender];\r\n            c.polls[c.numPolls].pollId = c.numPolls;\r\n            c.polls[c.numPolls].description = description;\r\n            c.polls[c.numPolls].approved = 0;\r\n            c.polls[c.numPolls].disapproved = 0;\r\n            c.polls[c.numPolls].state = 0;\r\n            c.polls[c.numPolls].amount = amount;\r\n            c.numPolls++;\r\n        }\r\n    }\r\n\r\n    function vote(\r\n        uint256 pollId,\r\n        address payable charityAddress,\r\n        uint256 voteType\r\n    ) public {\r\n        // Add user's vote\r\n        Charity storage c = allCharities[charityAddress];\r\n        if (voteType == 1) {\r\n            c.polls[pollId].approved++;\r\n        } else {\r\n            c.polls[pollId].disapproved++;\r\n        }\r\n        if (\r\n            c.polls[pollId].approved + c.polls[pollId].disapproved >=\r\n            c.numDonors\r\n        ) {\r\n            c.polls[pollId].state = 1;\r\n            payable(charityAddress).transfer(\r\n                c.polls[pollId].amount * 1000000000000000000\r\n            );\r\n        }\r\n    }\r\n\r\n    function checkValidDonor(address key) public view returns (bool) {\r\n        if (allDonors[key]._donor == key) {\r\n            return true;\r\n        } else {\r\n            return false;\r\n        }\r\n    }\r\n\r\n    function checkValidCharity(address key) public view returns (bool) {\r\n        if (allCharities[key]._charity == key) {\r\n            return true;\r\n        } else {\r\n            return false;\r\n        }\r\n    }\r\n\r\n    function getPolls(address charityAddress)\r\n        public\r\n        view\r\n        returns (\r\n            uint256[10] memory,\r\n            uint256[10] memory,\r\n            string[10] memory\r\n        )\r\n    {\r\n        Charity storage c = allCharities[charityAddress];\r\n        uint256[10] memory approved;\r\n        uint256[10] memory disapproved;\r\n        string[10] memory descriptions;\r\n\r\n        for (uint256 i = 0; i < 10; i++) {\r\n            if (c.polls[i].state == 0) {\r\n                approved[i] = 0;\r\n            } else {\r\n                approved[i] = c.polls[i].approved;\r\n                disapproved[i] = c.polls[i].disapproved;\r\n            }\r\n            descriptions[i] = c.polls[i].description;\r\n        }\r\n        return (approved, disapproved, descriptions);\r\n    }\r\n\r\n    function getNumPolls(address charityAddress) public view returns (uint256) {\r\n        Charity storage c = allCharities[charityAddress];\r\n        return c.numPolls;\r\n    }\r\n}\r\n",
  "sourcePath": "C:\\Users\\Manu\\Documents\\blockchain project\\blockchain\\cryptonate-contract\\contracts\\Cryptonate.sol",
  "compiler": {
    "name": "solc",
    "version": "0.8.17+commit.8df45f5f.Emscripten.clang"
  },
  "schemaVersion": "3.4.10",
  "updatedAt": "2022-11-15T04:24:09.477Z",
  "networkType": "ethereum",
  "devdoc": {
    "kind": "dev",
    "methods": {},
    "version": 1
  },
  "userdoc": {
    "kind": "user",
    "methods": {},
    "version": 1
  }
}