{
  "contractName": "Cryptonate",
  "abi": [
    {
      "inputs": [
        {
          "internalType": "contract Faunacoin",
          "name": "faunacoinAddress",
          "type": "address"
        }
      ],
      "stateMutability": "nonpayable",
      "type": "constructor"
    },
    {
      "inputs": [],
      "name": "fc_ref",
      "outputs": [
        {
          "internalType": "contract Faunacoin",
          "name": "",
          "type": "address"
        }
      ],
      "stateMutability": "view",
      "type": "function",
      "constant": true
    },
    {
      "inputs": [
        {
          "internalType": "address",
          "name": "donorAddr",
          "type": "address"
        }
      ],
      "name": "getBalance",
      "outputs": [
        {
          "internalType": "uint256",
          "name": "",
          "type": "uint256"
        }
      ],
      "stateMutability": "view",
      "type": "function",
      "constant": true
    },
    {
      "inputs": [
        {
          "internalType": "address",
          "name": "donorAddr",
          "type": "address"
        },
        {
          "internalType": "uint256",
          "name": "amount",
          "type": "uint256"
        }
      ],
      "name": "mintTokens",
      "outputs": [],
      "stateMutability": "nonpayable",
      "type": "function"
    },
    {
      "inputs": [],
      "name": "totalSupply",
      "outputs": [
        {
          "internalType": "uint256",
          "name": "",
          "type": "uint256"
        }
      ],
      "stateMutability": "view",
      "type": "function",
      "constant": true
    },
    {
      "inputs": [
        {
          "internalType": "string",
          "name": "name",
          "type": "string"
        },
        {
          "internalType": "string",
          "name": "description",
          "type": "string"
        }
      ],
      "name": "registerCharity",
      "outputs": [],
      "stateMutability": "nonpayable",
      "type": "function"
    },
    {
      "inputs": [],
      "name": "registerDonor",
      "outputs": [],
      "stateMutability": "nonpayable",
      "type": "function"
    },
    {
      "inputs": [
        {
          "internalType": "address",
          "name": "charityAddress",
          "type": "address"
        },
        {
          "internalType": "uint256",
          "name": "amount",
          "type": "uint256"
        }
      ],
      "name": "registerDonation",
      "outputs": [],
      "stateMutability": "payable",
      "type": "function",
      "payable": true
    },
    {
      "inputs": [
        {
          "internalType": "uint256",
          "name": "amount",
          "type": "uint256"
        },
        {
          "internalType": "uint256",
          "name": "expenseType",
          "type": "uint256"
        },
        {
          "internalType": "string",
          "name": "description",
          "type": "string"
        }
      ],
      "name": "requestFunds",
      "outputs": [],
      "stateMutability": "payable",
      "type": "function",
      "payable": true
    },
    {
      "inputs": [
        {
          "internalType": "uint256",
          "name": "pollId",
          "type": "uint256"
        },
        {
          "internalType": "address payable",
          "name": "charityAddress",
          "type": "address"
        },
        {
          "internalType": "uint256",
          "name": "voteType",
          "type": "uint256"
        }
      ],
      "name": "vote",
      "outputs": [],
      "stateMutability": "nonpayable",
      "type": "function"
    },
    {
      "inputs": [
        {
          "internalType": "address",
          "name": "key",
          "type": "address"
        }
      ],
      "name": "checkValidDonor",
      "outputs": [
        {
          "internalType": "bool",
          "name": "",
          "type": "bool"
        }
      ],
      "stateMutability": "view",
      "type": "function",
      "constant": true
    },
    {
      "inputs": [
        {
          "internalType": "address",
          "name": "key",
          "type": "address"
        }
      ],
      "name": "checkValidCharity",
      "outputs": [
        {
          "internalType": "bool",
          "name": "",
          "type": "bool"
        }
      ],
      "stateMutability": "view",
      "type": "function",
      "constant": true
    },
    {
      "inputs": [
        {
          "internalType": "address",
          "name": "charityAddress",
          "type": "address"
        }
      ],
      "name": "getPolls",
      "outputs": [
        {
          "internalType": "uint256[10]",
          "name": "",
          "type": "uint256[10]"
        },
        {
          "internalType": "uint256[10]",
          "name": "",
          "type": "uint256[10]"
        },
        {
          "internalType": "string[10]",
          "name": "",
          "type": "string[10]"
        },
        {
          "internalType": "uint256",
          "name": "",
          "type": "uint256"
        }
      ],
      "stateMutability": "view",
      "type": "function",
      "constant": true
    },
    {
      "inputs": [],
      "name": "getCharities",
      "outputs": [
        {
          "internalType": "string[10]",
          "name": "",
          "type": "string[10]"
        },
        {
          "internalType": "string[10]",
          "name": "",
          "type": "string[10]"
        },
        {
          "internalType": "address[10]",
          "name": "",
          "type": "address[10]"
        }
      ],
      "stateMutability": "view",
      "type": "function",
      "constant": true
    },
    {
      "inputs": [
        {
          "internalType": "address",
          "name": "charityAddress",
          "type": "address"
        }
      ],
      "name": "getNumPolls",
      "outputs": [
        {
          "internalType": "uint256",
          "name": "",
          "type": "uint256"
        }
      ],
      "stateMutability": "view",
      "type": "function",
      "constant": true
    }
  ],
  "bytecode": "0x60806040526000600d553480156200001657600080fd5b506040516200226f3803806200226f83398181016040528101906200003c919062000101565b806000806101000a81548173ffffffffffffffffffffffffffffffffffffffff021916908373ffffffffffffffffffffffffffffffffffffffff1602179055505062000133565b600080fd5b600073ffffffffffffffffffffffffffffffffffffffff82169050919050565b6000620000b58262000088565b9050919050565b6000620000c982620000a8565b9050919050565b620000db81620000bc565b8114620000e757600080fd5b50565b600081519050620000fb81620000d0565b92915050565b6000602082840312156200011a576200011962000083565b5b60006200012a84828501620000ea565b91505092915050565b61212c80620001436000396000f3fe6080604052600436106100dd5760003560e01c806392f92fb01161007f578063e8a568fa11610059578063e8a568fa146102a4578063f0dda65c146102c0578063f1be929e146102e9578063f8b2cb4f14610326576100dd565b806392f92fb014610225578063aa810f3614610262578063bbb27cee14610279576100dd565b80633c49dde4116100bb5780633c49dde41461018a57806348112c6f146101a65780634de8737c146101d357806351e73887146101fc576100dd565b8063144599f2146100e257806318160ddd1461011f578063310b7eb21461014a575b600080fd5b3480156100ee57600080fd5b50610109600480360381019061010491906114c2565b610363565b604051610116919061150a565b60405180910390f35b34801561012b57600080fd5b5061013461040d565b604051610141919061153e565b60405180910390f35b34801561015657600080fd5b50610171600480360381019061016c91906114c2565b6104a4565b604051610181949392919061174a565b60405180910390f35b6101a4600480360381019061019f91906117c6565b610685565b005b3480156101b257600080fd5b506101bb610832565b6040516101ca939291906118b1565b60405180910390f35b3480156101df57600080fd5b506101fa60048036038101906101f59190611935565b610b4e565b005b34801561020857600080fd5b50610223600480360381019061021e91906119ed565b610da0565b005b34801561023157600080fd5b5061024c600480360381019061024791906114c2565b610ee3565b604051610259919061153e565b60405180910390f35b34801561026e57600080fd5b50610277610f34565b005b34801561028557600080fd5b5061028e610fbd565b60405161029b9190611acd565b60405180910390f35b6102be60048036038101906102b99190611ae8565b610fe1565b005b3480156102cc57600080fd5b506102e760048036038101906102e291906117c6565b61120d565b005b3480156102f557600080fd5b50610310600480360381019061030b91906114c2565b61129e565b60405161031d919061150a565b60405180910390f35b34801561033257600080fd5b5061034d600480360381019061034891906114c2565b611348565b60405161035a919061153e565b60405180910390f35b60008173ffffffffffffffffffffffffffffffffffffffff16600e60008473ffffffffffffffffffffffffffffffffffffffff1673ffffffffffffffffffffffffffffffffffffffff16815260200190815260200160002060000160009054906101000a900473ffffffffffffffffffffffffffffffffffffffff1673ffffffffffffffffffffffffffffffffffffffff16036104035760019050610408565b600090505b919050565b60008060009054906101000a900473ffffffffffffffffffffffffffffffffffffffff1673ffffffffffffffffffffffffffffffffffffffff166318160ddd6040518163ffffffff1660e01b8152600401602060405180830381865afa15801561047b573d6000803e3d6000fd5b505050506040513d601f19601f8201168201806040525081019061049f9190611b71565b905090565b6104ac6113ec565b6104b46113ec565b6104bc61140f565b600080600260008773ffffffffffffffffffffffffffffffffffffffff1673ffffffffffffffffffffffffffffffffffffffff16815260200190815260200160002090506105086113ec565b6105106113ec565b61051861140f565b600080600090505b600a81101561066c57856006016000828152602001908152602001600020600201548582600a811061055557610554611b9e565b5b602002018181525050856006016000828152602001908152602001600020600301548482600a811061058a57610589611b9e565b5b60200201818152505061059b61040d565b915085600601600082815260200190815260200160002060010180546105c090611bfc565b80601f01602080910402602001604051908101604052809291908181526020018280546105ec90611bfc565b80156106395780601f1061060e57610100808354040283529160200191610639565b820191906000526020600020905b81548152906001019060200180831161061c57829003601f168201915b50505050508382600a811061065157610650611b9e565b5b6020020181905250808061066490611c5c565b915050610520565b5083838383985098509850985050505050509193509193565b80341480156106945750600081115b61069d57600080fd5b6000600e60003373ffffffffffffffffffffffffffffffffffffffff1673ffffffffffffffffffffffffffffffffffffffff16815260200190815260200160002090506000600260008573ffffffffffffffffffffffffffffffffffffffff1673ffffffffffffffffffffffffffffffffffffffff1681526020019081526020016000209050828160030160008282546107379190611ca4565b92505081905550600015158260010160008673ffffffffffffffffffffffffffffffffffffffff1673ffffffffffffffffffffffffffffffffffffffff16815260200190815260200160002060009054906101000a900460ff1615150361080f5760018260010160008673ffffffffffffffffffffffffffffffffffffffff1673ffffffffffffffffffffffffffffffffffffffff16815260200190815260200160002060006101000a81548160ff02191690831515021790555060018160050160008282546108079190611ca4565b925050819055505b61082c33670de0b6b3a7640000856108279190611d07565b61120d565b50505050565b61083a61140f565b61084261140f565b61084a611437565b61085261140f565b61085a61140f565b610862611437565b60006002905060005b600a811015610b3b57816000600383600a811061088b5761088a611b9e565b5b0160009054906101000a900473ffffffffffffffffffffffffffffffffffffffff1673ffffffffffffffffffffffffffffffffffffffff1673ffffffffffffffffffffffffffffffffffffffff16815260200190815260200160002060010180546108f590611bfc565b80601f016020809104026020016040519081016040528092919081815260200182805461092190611bfc565b801561096e5780601f106109435761010080835404028352916020019161096e565b820191906000526020600020905b81548152906001019060200180831161095157829003601f168201915b50505050508582600a811061098657610985611b9e565b5b6020020181905250816000600383600a81106109a5576109a4611b9e565b5b0160009054906101000a900473ffffffffffffffffffffffffffffffffffffffff1673ffffffffffffffffffffffffffffffffffffffff1673ffffffffffffffffffffffffffffffffffffffff1681526020019081526020016000206002018054610a0f90611bfc565b80601f0160208091040260200160405190810160405280929190818152602001828054610a3b90611bfc565b8015610a885780601f10610a5d57610100808354040283529160200191610a88565b820191906000526020600020905b815481529060010190602001808311610a6b57829003601f168201915b50505050508482600a8110610aa057610a9f611b9e565b5b6020020181905250600381600a8110610abc57610abb611b9e565b5b0160009054906101000a900473ffffffffffffffffffffffffffffffffffffffff168382600a8110610af157610af0611b9e565b5b602002019073ffffffffffffffffffffffffffffffffffffffff16908173ffffffffffffffffffffffffffffffffffffffff16815250508080610b3390611c5c565b91505061086b565b5083838396509650965050505050909192565b6000600260008473ffffffffffffffffffffffffffffffffffffffff1673ffffffffffffffffffffffffffffffffffffffff168152602001908152602001600020905060011515600e60003373ffffffffffffffffffffffffffffffffffffffff1673ffffffffffffffffffffffffffffffffffffffff16815260200190815260200160002060010160008573ffffffffffffffffffffffffffffffffffffffff1673ffffffffffffffffffffffffffffffffffffffff16815260200190815260200160002060009054906101000a900460ff16151514610c2e57600080fd5b6000610c3933611348565b905060018303610c7757808260060160008781526020019081526020016000206002016000828254610c6b9190611ca4565b92505081905550610ca7565b808260060160008781526020019081526020016000206003016000828254610c9f9190611ca4565b925050819055505b6064604b610cb361040d565b610cbd9190611d38565b610cc79190611d07565b8260060160008781526020019081526020016000206003015483600601600088815260200190815260200160002060020154610d039190611ca4565b10610d99576001826006016000878152602001908152602001600020600401819055508373ffffffffffffffffffffffffffffffffffffffff166108fc670de0b6b3a764000084600601600089815260200190815260200160002060050154610d6c9190611d38565b9081150290604051600060405180830381858888f19350505050158015610d97573d6000803e3d6000fd5b505b5050505050565b6000600260003373ffffffffffffffffffffffffffffffffffffffff1673ffffffffffffffffffffffffffffffffffffffff1681526020019081526020016000209050338160000160006101000a81548173ffffffffffffffffffffffffffffffffffffffff021916908373ffffffffffffffffffffffffffffffffffffffff1602179055508484826001019182610e39929190611f56565b508282826002019182610e4d929190611f56565b50600081600301819055506000816005018190555060008160040181905550336003600d54600a8110610e8357610e82611b9e565b5b0160006101000a81548173ffffffffffffffffffffffffffffffffffffffff021916908373ffffffffffffffffffffffffffffffffffffffff1602179055506001600d6000828254610ed59190611ca4565b925050819055505050505050565b600080600260008473ffffffffffffffffffffffffffffffffffffffff1673ffffffffffffffffffffffffffffffffffffffff16815260200190815260200160002090508060040154915050919050565b6000600e60003373ffffffffffffffffffffffffffffffffffffffff1673ffffffffffffffffffffffffffffffffffffffff1681526020019081526020016000209050338160000160006101000a81548173ffffffffffffffffffffffffffffffffffffffff021916908373ffffffffffffffffffffffffffffffffffffffff16021790555050565b60008054906101000a900473ffffffffffffffffffffffffffffffffffffffff1681565b338480600260008473ffffffffffffffffffffffffffffffffffffffff1673ffffffffffffffffffffffffffffffffffffffff1681526020019081526020016000206003015411611067576040517f08c379a000000000000000000000000000000000000000000000000000000000815260040161105e90612083565b60405180910390fd5b600085036110ce573373ffffffffffffffffffffffffffffffffffffffff166108fc670de0b6b3a76400008861109d9190611d38565b9081150290604051600060405180830381858888f193505050501580156110c8573d6000803e3d6000fd5b50611205565b6000600260003373ffffffffffffffffffffffffffffffffffffffff1673ffffffffffffffffffffffffffffffffffffffff1681526020019081526020016000209050806004015481600601600083600401548152602001908152602001600020600001819055508484826006016000846004015481526020019081526020016000206001019182611161929190611f56565b506000816006016000836004015481526020019081526020016000206002018190555060008160060160008360040154815260200190815260200160002060030181905550600081600601600083600401548152602001908152602001600020600401819055508681600601600083600401548152602001908152602001600020600501819055508060040160008154809291906111fe90611c5c565b9190505550505b505050505050565b60008054906101000a900473ffffffffffffffffffffffffffffffffffffffff1673ffffffffffffffffffffffffffffffffffffffff166340c10f1983836040518363ffffffff1660e01b81526004016112689291906120b2565b600060405180830381600087803b15801561128257600080fd5b505af1158015611296573d6000803e3d6000fd5b505050505050565b60008173ffffffffffffffffffffffffffffffffffffffff16600260008473ffffffffffffffffffffffffffffffffffffffff1673ffffffffffffffffffffffffffffffffffffffff16815260200190815260200160002060000160009054906101000a900473ffffffffffffffffffffffffffffffffffffffff1673ffffffffffffffffffffffffffffffffffffffff160361133e5760019050611343565b600090505b919050565b60008060009054906101000a900473ffffffffffffffffffffffffffffffffffffffff1673ffffffffffffffffffffffffffffffffffffffff166370a08231836040518263ffffffff1660e01b81526004016113a491906120db565b602060405180830381865afa1580156113c1573d6000803e3d6000fd5b505050506040513d601f19601f820116820180604052508101906113e59190611b71565b9050919050565b604051806101400160405280600a90602082028036833780820191505090505090565b604051806101400160405280600a905b606081526020019060019003908161141f5790505090565b604051806101400160405280600a90602082028036833780820191505090505090565b600080fd5b600080fd5b600073ffffffffffffffffffffffffffffffffffffffff82169050919050565b600061148f82611464565b9050919050565b61149f81611484565b81146114aa57600080fd5b50565b6000813590506114bc81611496565b92915050565b6000602082840312156114d8576114d761145a565b5b60006114e6848285016114ad565b91505092915050565b60008115159050919050565b611504816114ef565b82525050565b600060208201905061151f60008301846114fb565b92915050565b6000819050919050565b61153881611525565b82525050565b6000602082019050611553600083018461152f565b92915050565b6000600a9050919050565b600081905092915050565b6000819050919050565b61158281611525565b82525050565b60006115948383611579565b60208301905092915050565b6000602082019050919050565b6115b681611559565b6115c08184611564565b92506115cb8261156f565b8060005b838110156115fc5781516115e38782611588565b96506115ee836115a0565b9250506001810190506115cf565b505050505050565b6000600a9050919050565b600081905092915050565b6000819050919050565b600081519050919050565b600082825260208201905092915050565b60005b8381101561165e578082015181840152602081019050611643565b60008484015250505050565b6000601f19601f8301169050919050565b600061168682611624565b611690818561162f565b93506116a0818560208601611640565b6116a98161166a565b840191505092915050565b60006116c0838361167b565b905092915050565b6000602082019050919050565b60006116e082611604565b6116ea818561160f565b9350836020820285016116fc8561161a565b8060005b85811015611738578484038952815161171985826116b4565b9450611724836116c8565b925060208a01995050600181019050611700565b50829750879550505050505092915050565b60006102c08201905061176060008301876115ad565b61176e6101408301866115ad565b81810361028083015261178181856116d5565b90506117916102a083018461152f565b95945050505050565b6117a381611525565b81146117ae57600080fd5b50565b6000813590506117c08161179a565b92915050565b600080604083850312156117dd576117dc61145a565b5b60006117eb858286016114ad565b92505060206117fc858286016117b1565b9150509250929050565b6000600a9050919050565b600081905092915050565b6000819050919050565b61182f81611484565b82525050565b60006118418383611826565b60208301905092915050565b6000602082019050919050565b61186381611806565b61186d8184611811565b92506118788261181c565b8060005b838110156118a95781516118908782611835565b965061189b8361184d565b92505060018101905061187c565b505050505050565b60006101808201905081810360008301526118cc81866116d5565b905081810360208301526118e081856116d5565b90506118ef604083018461185a565b949350505050565b600061190282611464565b9050919050565b611912816118f7565b811461191d57600080fd5b50565b60008135905061192f81611909565b92915050565b60008060006060848603121561194e5761194d61145a565b5b600061195c868287016117b1565b935050602061196d86828701611920565b925050604061197e868287016117b1565b9150509250925092565b600080fd5b600080fd5b600080fd5b60008083601f8401126119ad576119ac611988565b5b8235905067ffffffffffffffff8111156119ca576119c961198d565b5b6020830191508360018202830111156119e6576119e5611992565b5b9250929050565b60008060008060408587031215611a0757611a0661145a565b5b600085013567ffffffffffffffff811115611a2557611a2461145f565b5b611a3187828801611997565b9450945050602085013567ffffffffffffffff811115611a5457611a5361145f565b5b611a6087828801611997565b925092505092959194509250565b6000819050919050565b6000611a93611a8e611a8984611464565b611a6e565b611464565b9050919050565b6000611aa582611a78565b9050919050565b6000611ab782611a9a565b9050919050565b611ac781611aac565b82525050565b6000602082019050611ae26000830184611abe565b92915050565b60008060008060608587031215611b0257611b0161145a565b5b6000611b10878288016117b1565b9450506020611b21878288016117b1565b935050604085013567ffffffffffffffff811115611b4257611b4161145f565b5b611b4e87828801611997565b925092505092959194509250565b600081519050611b6b8161179a565b92915050565b600060208284031215611b8757611b8661145a565b5b6000611b9584828501611b5c565b91505092915050565b7f4e487b7100000000000000000000000000000000000000000000000000000000600052603260045260246000fd5b7f4e487b7100000000000000000000000000000000000000000000000000000000600052602260045260246000fd5b60006002820490506001821680611c1457607f821691505b602082108103611c2757611c26611bcd565b5b50919050565b7f4e487b7100000000000000000000000000000000000000000000000000000000600052601160045260246000fd5b6000611c6782611525565b91507fffffffffffffffffffffffffffffffffffffffffffffffffffffffffffffffff8203611c9957611c98611c2d565b5b600182019050919050565b6000611caf82611525565b9150611cba83611525565b9250828201905080821115611cd257611cd1611c2d565b5b92915050565b7f4e487b7100000000000000000000000000000000000000000000000000000000600052601260045260246000fd5b6000611d1282611525565b9150611d1d83611525565b925082611d2d57611d2c611cd8565b5b828204905092915050565b6000611d4382611525565b9150611d4e83611525565b9250828202611d5c81611525565b91508282048414831517611d7357611d72611c2d565b5b5092915050565b600082905092915050565b7f4e487b7100000000000000000000000000000000000000000000000000000000600052604160045260246000fd5b60008190508160005260206000209050919050565b60006020601f8301049050919050565b600082821b905092915050565b600060088302611e167fffffffffffffffffffffffffffffffffffffffffffffffffffffffffffffffff82611dd9565b611e208683611dd9565b95508019841693508086168417925050509392505050565b6000611e53611e4e611e4984611525565b611a6e565b611525565b9050919050565b6000819050919050565b611e6d83611e38565b611e81611e7982611e5a565b848454611de6565b825550505050565b600090565b611e96611e89565b611ea1818484611e64565b505050565b5b81811015611ec557611eba600082611e8e565b600181019050611ea7565b5050565b601f821115611f0a57611edb81611db4565b611ee484611dc9565b81016020851015611ef3578190505b611f07611eff85611dc9565b830182611ea6565b50505b505050565b600082821c905092915050565b6000611f2d60001984600802611f0f565b1980831691505092915050565b6000611f468383611f1c565b9150826002028217905092915050565b611f608383611d7a565b67ffffffffffffffff811115611f7957611f78611d85565b5b611f838254611bfc565b611f8e828285611ec9565b6000601f831160018114611fbd5760008415611fab578287013590505b611fb58582611f3a565b86555061201d565b601f198416611fcb86611db4565b60005b82811015611ff357848901358255600182019150602085019450602081019050611fce565b86831015612010578489013561200c601f891682611f1c565b8355505b6001600288020188555050505b50505050505050565b600082825260208201905092915050565b7f4e6f7420656e6f7567682066756e647320696e20746865207075727365000000600082015250565b600061206d601d83612026565b915061207882612037565b602082019050919050565b6000602082019050818103600083015261209c81612060565b9050919050565b6120ac81611484565b82525050565b60006040820190506120c760008301856120a3565b6120d4602083018461152f565b9392505050565b60006020820190506120f060008301846120a3565b9291505056fea26469706673582212209423f7ccfa25eca35d626672c74cf348cb19823ce37ceb94f1bf5a0e5ae8daee64736f6c63430008110033",
  "immutableReferences": {},
  "source": "// SPDX-License-Identifier: GPL-3.0\r\npragma solidity >=0.7.0 <0.9.0;\r\n\r\nimport \"@openzeppelin/contracts/token/ERC20/ERC20.sol\";\r\nimport \"@openzeppelin/contracts/access/Ownable.sol\";\r\nimport \"@openzeppelin/contracts/token/ERC20/extensions/draft-ERC20Permit.sol\";\r\nimport \"@openzeppelin/contracts/token/ERC20/extensions/ERC20Votes.sol\";\r\nimport \"./faunacoin.sol\";\r\n\r\ncontract Cryptonate {\r\n    ///////////////////////// ALL STORAGE VARIABLES\r\n    // address fcAddr = 0xd9145CCE52D386f254917e481eB44e9943F39138;\r\n\r\n    Faunacoin public fc_ref;\r\n\r\n    constructor(Faunacoin faunacoinAddress) {\r\n        fc_ref = faunacoinAddress;\r\n    }\r\n\r\n    address payable cryptonateOwner;\r\n\r\n    // Holds details of each poll\r\n    struct Poll {\r\n        uint256 pollId;\r\n        string description;\r\n        uint256 approved;\r\n        uint256 disapproved;\r\n        uint256 state;\r\n        uint256 amount;\r\n    }\r\n\r\n    // Hold details of a single charity\r\n    struct Charity {\r\n        address payable _charity;\r\n        string name;\r\n        string description;\r\n        uint256 funds;\r\n        uint256 numPolls;\r\n        uint256 numDonors;\r\n        mapping(uint256 => Poll) polls;\r\n    }\r\n\r\n    // Hold details of all charities\r\n    mapping(address => Charity) allCharities;\r\n\r\n    address[10] charityAddresses;\r\n\r\n    uint256 charityCount = 0;\r\n\r\n    // Hold details of a donor\r\n    struct Donor {\r\n        address _donor;\r\n        mapping(address => bool) charities;\r\n    }\r\n\r\n    // Hold all donors\r\n    mapping(address => Donor) allDonors;\r\n\r\n    ///////////////////////// MODIFIERS\r\n\r\n    modifier validateRequest(address sender, uint256 amount) {\r\n        require(\r\n            allCharities[sender].funds > amount,\r\n            \"Not enough funds in the purse\"\r\n        );\r\n        _;\r\n    }\r\n\r\n    ///////////////////////// INIT FUNCTIONS\r\n    function getBalance(address donorAddr) public view returns (uint256) {\r\n        return fc_ref.balanceOf(donorAddr);\r\n    }\r\n\r\n    function mintTokens(address donorAddr, uint256 amount) public {\r\n        fc_ref.mint(donorAddr, amount);\r\n    }\r\n\r\n    function totalSupply() public view returns (uint256) {\r\n        return fc_ref.totalSupply();\r\n    }\r\n\r\n    // Register a charity\r\n    function registerCharity(string calldata name, string calldata description)\r\n        public\r\n    {\r\n        Charity storage c = allCharities[payable(msg.sender)];\r\n        c._charity = payable(msg.sender);\r\n        c.name = name;\r\n        c.description = description;\r\n        c.funds = 0;\r\n        c.numDonors = 0;\r\n        c.numPolls = 0;\r\n\r\n        charityAddresses[charityCount] = payable(msg.sender);\r\n        charityCount += 1;\r\n    }\r\n\r\n    // Register a donor\r\n    function registerDonor() public {\r\n        Donor storage d = allDonors[msg.sender];\r\n        d._donor = msg.sender;\r\n    }\r\n\r\n    function registerDonation(address charityAddress, uint256 amount)\r\n        public\r\n        payable\r\n    {\r\n        require(msg.value == amount && amount > 0);\r\n\r\n        // Add charity to the donor's list\r\n        Donor storage d = allDonors[msg.sender];\r\n\r\n        // Add amount to charity's purse\r\n        Charity storage c = allCharities[charityAddress];\r\n        c.funds += amount;\r\n\r\n        // This is to check if the donor should be allowed to respond to a poll by this charity\r\n        if (d.charities[charityAddress] == false) {\r\n            d.charities[charityAddress] = true;\r\n            c.numDonors += 1;\r\n        }\r\n\r\n        //TODO: Send tokens to the donor\r\n\r\n        // Give tokens to the donor\r\n        mintTokens(msg.sender, amount / 1000000000000000000);\r\n    }\r\n\r\n    // Create a new poll or transfer funds in case of opex\r\n    function requestFunds(\r\n        uint256 amount,\r\n        uint256 expenseType,\r\n        string calldata description\r\n    ) public payable validateRequest(msg.sender, amount) {\r\n        if (expenseType == 0) {\r\n            // Send funds\r\n            payable(msg.sender).transfer(amount * 1000000000000000000);\r\n        } else {\r\n            Charity storage c = allCharities[msg.sender];\r\n            c.polls[c.numPolls].pollId = c.numPolls;\r\n            c.polls[c.numPolls].description = description;\r\n            c.polls[c.numPolls].approved = 0;\r\n            c.polls[c.numPolls].disapproved = 0;\r\n            c.polls[c.numPolls].state = 0;\r\n            c.polls[c.numPolls].amount = amount;\r\n            c.numPolls++;\r\n        }\r\n    }\r\n\r\n    // Register donor's vote\r\n    function vote(\r\n        uint256 pollId,\r\n        address payable charityAddress,\r\n        uint256 voteType\r\n    ) public {\r\n        // Add user's vote\r\n        Charity storage c = allCharities[charityAddress];\r\n        // Check if this donor has donated to this charity\r\n        require(allDonors[msg.sender].charities[charityAddress] == true);\r\n\r\n        // TODO: Get the donors token balance to decide the weight of their vote.\r\n        // TODO: Change\r\n        uint256 balance = getBalance(msg.sender);\r\n\r\n        if (voteType == 1) {\r\n            c.polls[pollId].approved += balance;\r\n        } else {\r\n            c.polls[pollId].disapproved += balance;\r\n        }\r\n        if (\r\n            c.polls[pollId].approved + c.polls[pollId].disapproved >=\r\n            (totalSupply() * 75) / 100\r\n        ) {\r\n            c.polls[pollId].state = 1;\r\n            payable(charityAddress).transfer(\r\n                c.polls[pollId].amount * 1000000000000000000\r\n            );\r\n        }\r\n    }\r\n\r\n    // User login\r\n    function checkValidDonor(address key) public view returns (bool) {\r\n        if (allDonors[key]._donor == key) {\r\n            return true;\r\n        } else {\r\n            return false;\r\n        }\r\n    }\r\n\r\n    function checkValidCharity(address key) public view returns (bool) {\r\n        if (allCharities[key]._charity == key) {\r\n            return true;\r\n        } else {\r\n            return false;\r\n        }\r\n    }\r\n\r\n    // Get last 10 polls of an organization with description, approved and disapproved vote counts\r\n    function getPolls(address charityAddress)\r\n        public\r\n        view\r\n        returns (\r\n            uint256[10] memory,\r\n            uint256[10] memory,\r\n            string[10] memory,\r\n            uint256\r\n        )\r\n    {\r\n        Charity storage c = allCharities[charityAddress];\r\n        uint256[10] memory approved;\r\n        uint256[10] memory disapproved;\r\n        string[10] memory descriptions;\r\n        uint256 total;\r\n\r\n        for (uint256 i = 0; i < 10; i++) {\r\n            approved[i] = c.polls[i].approved;\r\n            disapproved[i] = c.polls[i].disapproved;\r\n            total = totalSupply();\r\n\r\n            descriptions[i] = c.polls[i].description;\r\n        }\r\n        return (approved, disapproved, descriptions, total);\r\n    }\r\n\r\n    function getCharities()\r\n        public\r\n        view\r\n        returns (\r\n            string[10] memory,\r\n            string[10] memory,\r\n            address[10] memory\r\n        )\r\n    {\r\n        string[10] memory names;\r\n        string[10] memory descs;\r\n        address[10] memory addrs;\r\n        mapping(address => Charity) storage ac = allCharities;\r\n        for (uint256 i = 0; i < 10; i++) {\r\n            names[i] = ac[charityAddresses[i]].name;\r\n            descs[i] = ac[charityAddresses[i]].description;\r\n            addrs[i] = charityAddresses[i];\r\n        }\r\n        return (names, descs, addrs);\r\n    }\r\n\r\n    // Get the current number of polls of a given organisation\r\n    function getNumPolls(address charityAddress) public view returns (uint256) {\r\n        Charity storage c = allCharities[charityAddress];\r\n        return c.numPolls;\r\n    }\r\n}\r\n",
  "sourcePath": "C:\\Users\\Manu\\Documents\\blockchain project\\blockchain\\cryptonate-contract\\contracts\\Cryptonate.sol",
  "compiler": {
    "name": "solc",
    "version": "0.8.17+commit.8df45f5f.Emscripten.clang"
  },
  "schemaVersion": "3.4.10",
  "updatedAt": "2022-12-08T02:40:38.395Z",
  "networkType": "ethereum",
  "devdoc": {
    "kind": "dev",
    "methods": {},
    "version": 1
  },
  "userdoc": {
    "kind": "user",
    "methods": {},
    "version": 1
  }
}