{
  "contractName": "Cryptonate",
  "abi": [
    {
      "inputs": [
        {
          "internalType": "contract Faunacoin",
          "name": "faunacoinAddress",
          "type": "address"
        }
      ],
      "stateMutability": "nonpayable",
      "type": "constructor"
    },
    {
      "inputs": [],
      "name": "fc_ref",
      "outputs": [
        {
          "internalType": "contract Faunacoin",
          "name": "",
          "type": "address"
        }
      ],
      "stateMutability": "view",
      "type": "function",
      "constant": true
    },
    {
      "inputs": [
        {
          "internalType": "address",
          "name": "donorAddr",
          "type": "address"
        }
      ],
      "name": "getBalance",
      "outputs": [
        {
          "internalType": "uint256",
          "name": "",
          "type": "uint256"
        }
      ],
      "stateMutability": "view",
      "type": "function",
      "constant": true
    },
    {
      "inputs": [
        {
          "internalType": "address",
          "name": "donorAddr",
          "type": "address"
        },
        {
          "internalType": "uint256",
          "name": "amount",
          "type": "uint256"
        }
      ],
      "name": "mintTokens",
      "outputs": [],
      "stateMutability": "nonpayable",
      "type": "function"
    },
    {
      "inputs": [],
      "name": "totalSupply",
      "outputs": [
        {
          "internalType": "uint256",
          "name": "",
          "type": "uint256"
        }
      ],
      "stateMutability": "view",
      "type": "function",
      "constant": true
    },
    {
      "inputs": [
        {
          "internalType": "string",
          "name": "name",
          "type": "string"
        },
        {
          "internalType": "string",
          "name": "description",
          "type": "string"
        }
      ],
      "name": "registerCharity",
      "outputs": [],
      "stateMutability": "nonpayable",
      "type": "function"
    },
    {
      "inputs": [],
      "name": "registerDonor",
      "outputs": [],
      "stateMutability": "nonpayable",
      "type": "function"
    },
    {
      "inputs": [
        {
          "internalType": "address",
          "name": "charityAddress",
          "type": "address"
        },
        {
          "internalType": "uint256",
          "name": "amount",
          "type": "uint256"
        }
      ],
      "name": "registerDonation",
      "outputs": [],
      "stateMutability": "payable",
      "type": "function",
      "payable": true
    },
    {
      "inputs": [
        {
          "internalType": "uint256",
          "name": "amount",
          "type": "uint256"
        },
        {
          "internalType": "uint256",
          "name": "expenseType",
          "type": "uint256"
        },
        {
          "internalType": "string",
          "name": "description",
          "type": "string"
        }
      ],
      "name": "requestFunds",
      "outputs": [],
      "stateMutability": "payable",
      "type": "function",
      "payable": true
    },
    {
      "inputs": [
        {
          "internalType": "uint256",
          "name": "pollId",
          "type": "uint256"
        },
        {
          "internalType": "address payable",
          "name": "charityAddress",
          "type": "address"
        },
        {
          "internalType": "uint256",
          "name": "voteType",
          "type": "uint256"
        }
      ],
      "name": "vote",
      "outputs": [],
      "stateMutability": "nonpayable",
      "type": "function"
    },
    {
      "inputs": [
        {
          "internalType": "address",
          "name": "key",
          "type": "address"
        }
      ],
      "name": "checkValidDonor",
      "outputs": [
        {
          "internalType": "bool",
          "name": "",
          "type": "bool"
        }
      ],
      "stateMutability": "view",
      "type": "function",
      "constant": true
    },
    {
      "inputs": [
        {
          "internalType": "address",
          "name": "key",
          "type": "address"
        }
      ],
      "name": "checkValidCharity",
      "outputs": [
        {
          "internalType": "bool",
          "name": "",
          "type": "bool"
        }
      ],
      "stateMutability": "view",
      "type": "function",
      "constant": true
    },
    {
      "inputs": [
        {
          "internalType": "address",
          "name": "charityAddress",
          "type": "address"
        }
      ],
      "name": "getPolls",
      "outputs": [
        {
          "internalType": "uint256[10]",
          "name": "",
          "type": "uint256[10]"
        },
        {
          "internalType": "uint256[10]",
          "name": "",
          "type": "uint256[10]"
        },
        {
          "internalType": "string[10]",
          "name": "",
          "type": "string[10]"
        },
        {
          "internalType": "uint256",
          "name": "",
          "type": "uint256"
        }
      ],
      "stateMutability": "view",
      "type": "function",
      "constant": true
    },
    {
      "inputs": [],
      "name": "getCharities",
      "outputs": [
        {
          "internalType": "string[10]",
          "name": "",
          "type": "string[10]"
        },
        {
          "internalType": "string[10]",
          "name": "",
          "type": "string[10]"
        },
        {
          "internalType": "address[10]",
          "name": "",
          "type": "address[10]"
        }
      ],
      "stateMutability": "view",
      "type": "function",
      "constant": true
    },
    {
      "inputs": [
        {
          "internalType": "address",
          "name": "charityAddress",
          "type": "address"
        }
      ],
      "name": "getDonations",
      "outputs": [
        {
          "internalType": "address[100]",
          "name": "",
          "type": "address[100]"
        },
        {
          "internalType": "uint256[100]",
          "name": "",
          "type": "uint256[100]"
        }
      ],
      "stateMutability": "view",
      "type": "function",
      "constant": true
    },
    {
      "inputs": [
        {
          "internalType": "address",
          "name": "charityAddress",
          "type": "address"
        }
      ],
      "name": "getWithdrawals",
      "outputs": [
        {
          "internalType": "string[100]",
          "name": "",
          "type": "string[100]"
        },
        {
          "internalType": "uint256[100]",
          "name": "",
          "type": "uint256[100]"
        }
      ],
      "stateMutability": "view",
      "type": "function",
      "constant": true
    },
    {
      "inputs": [
        {
          "internalType": "address",
          "name": "charityAddress",
          "type": "address"
        }
      ],
      "name": "getNumPolls",
      "outputs": [
        {
          "internalType": "uint256",
          "name": "",
          "type": "uint256"
        }
      ],
      "stateMutability": "view",
      "type": "function",
      "constant": true
    }
  ],
  "bytecode": "0x60806040526000600f553480156200001657600080fd5b5060405162002e0938038062002e0983398181016040528101906200003c919062000101565b806000806101000a81548173ffffffffffffffffffffffffffffffffffffffff021916908373ffffffffffffffffffffffffffffffffffffffff1602179055505062000133565b600080fd5b600073ffffffffffffffffffffffffffffffffffffffff82169050919050565b6000620000b58262000088565b9050919050565b6000620000c982620000a8565b9050919050565b620000db81620000bc565b8114620000e757600080fd5b50565b600081519050620000fb81620000d0565b92915050565b6000602082840312156200011a576200011962000083565b5b60006200012a84828501620000ea565b91505092915050565b612cc680620001436000396000f3fe6080604052600436106100f35760003560e01c806351e738871161008a578063e8a568fa11610059578063e8a568fa14610336578063f0dda65c14610352578063f1be929e1461037b578063f8b2cb4f146103b8576100f3565b806351e738871461028e57806392f92fb0146102b7578063aa810f36146102f4578063bbb27cee1461030b576100f3565b80633a2b643a116100c65780633a2b643a146101de5780633c49dde41461021c57806348112c6f146102385780634de8737c14610265576100f3565b8063144599f2146100f857806318160ddd146101355780631910bdc214610160578063310b7eb21461019e575b600080fd5b34801561010457600080fd5b5061011f600480360381019061011a9190611d84565b6103f5565b60405161012c9190611dcc565b60405180910390f35b34801561014157600080fd5b5061014a61049f565b6040516101579190611e00565b60405180910390f35b34801561016c57600080fd5b5061018760048036038101906101829190611d84565b610536565b604051610195929190611f71565b60405180910390f35b3480156101aa57600080fd5b506101c560048036038101906101c09190611d84565b610710565b6040516101d59493929190612166565b60405180910390f35b3480156101ea57600080fd5b5061020560048036038101906102009190611d84565b6108f1565b604051610213929190612258565b60405180910390f35b610236600480360381019061023191906122b5565b610b04565b005b34801561024457600080fd5b5061024d610daa565b60405161025c93929190612379565b60405180910390f35b34801561027157600080fd5b5061028c600480360381019061028791906123fd565b6110c6565b005b34801561029a57600080fd5b506102b560048036038101906102b091906124b5565b6114c0565b005b3480156102c357600080fd5b506102de60048036038101906102d99190611d84565b611603565b6040516102eb9190611e00565b60405180910390f35b34801561030057600080fd5b50610309611654565b005b34801561031757600080fd5b506103206116dd565b60405161032d9190612595565b60405180910390f35b610350600480360381019061034b91906125b0565b611701565b005b34801561035e57600080fd5b50610379600480360381019061037491906122b5565b611a61565b005b34801561038757600080fd5b506103a2600480360381019061039d9190611d84565b611af2565b6040516103af9190611dcc565b60405180910390f35b3480156103c457600080fd5b506103df60048036038101906103da9190611d84565b611b9c565b6040516103ec9190611e00565b60405180910390f35b60008173ffffffffffffffffffffffffffffffffffffffff16601060008473ffffffffffffffffffffffffffffffffffffffff1673ffffffffffffffffffffffffffffffffffffffff16815260200190815260200160002060000160009054906101000a900473ffffffffffffffffffffffffffffffffffffffff1673ffffffffffffffffffffffffffffffffffffffff1603610495576001905061049a565b600090505b919050565b60008060009054906101000a900473ffffffffffffffffffffffffffffffffffffffff1673ffffffffffffffffffffffffffffffffffffffff166318160ddd6040518163ffffffff1660e01b8152600401602060405180830381865afa15801561050d573d6000803e3d6000fd5b505050506040513d601f19601f820116820180604052508101906105319190612639565b905090565b61053e611c40565b610546611c63565b61054e611c40565b610556611c63565b60005b600360008773ffffffffffffffffffffffffffffffffffffffff1673ffffffffffffffffffffffffffffffffffffffff1681526020019081526020016000208054905081101561070257600360008773ffffffffffffffffffffffffffffffffffffffff1673ffffffffffffffffffffffffffffffffffffffff16815260200190815260200160002081815481106105f4576105f3612666565b5b906000526020600020906002020160000160009054906101000a900473ffffffffffffffffffffffffffffffffffffffff1683826064811061063957610638612666565b5b602002019073ffffffffffffffffffffffffffffffffffffffff16908173ffffffffffffffffffffffffffffffffffffffff1681525050600360008773ffffffffffffffffffffffffffffffffffffffff1673ffffffffffffffffffffffffffffffffffffffff16815260200190815260200160002081815481106106c1576106c0612666565b5b9060005260206000209060020201600101548282606481106106e6576106e5612666565b5b60200201818152505080806106fa906126c4565b915050610559565b508181935093505050915091565b610718611c86565b610720611c86565b610728611ca9565b600080600260008773ffffffffffffffffffffffffffffffffffffffff1673ffffffffffffffffffffffffffffffffffffffff1681526020019081526020016000209050610774611c86565b61077c611c86565b610784611ca9565b600080600090505b600a8110156108d857856006016000828152602001908152602001600020600201548582600a81106107c1576107c0612666565b5b602002018181525050856006016000828152602001908152602001600020600301548482600a81106107f6576107f5612666565b5b60200201818152505061080761049f565b9150856006016000828152602001908152602001600020600101805461082c9061273b565b80601f01602080910402602001604051908101604052809291908181526020018280546108589061273b565b80156108a55780601f1061087a576101008083540402835291602001916108a5565b820191906000526020600020905b81548152906001019060200180831161088857829003601f168201915b50505050508382600a81106108bd576108bc612666565b5b602002018190525080806108d0906126c4565b91505061078c565b5083838383985098509850985050505050509193509193565b6108f9611cd1565b610901611c63565b610909611cd1565b610911611c63565b60005b600460008773ffffffffffffffffffffffffffffffffffffffff1673ffffffffffffffffffffffffffffffffffffffff16815260200190815260200160002080549050811015610af657600460008773ffffffffffffffffffffffffffffffffffffffff1673ffffffffffffffffffffffffffffffffffffffff16815260200190815260200160002081815481106109af576109ae612666565b5b906000526020600020906003020160000180546109cb9061273b565b80601f01602080910402602001604051908101604052809291908181526020018280546109f79061273b565b8015610a445780601f10610a1957610100808354040283529160200191610a44565b820191906000526020600020905b815481529060010190602001808311610a2757829003601f168201915b5050505050838260648110610a5c57610a5b612666565b5b6020020181905250600460008773ffffffffffffffffffffffffffffffffffffffff1673ffffffffffffffffffffffffffffffffffffffff1681526020019081526020016000208181548110610ab557610ab4612666565b5b906000526020600020906003020160020154828260648110610ada57610ad9612666565b5b6020020181815250508080610aee906126c4565b915050610914565b508181935093505050915091565b8034148015610b135750600081115b610b1c57600080fd5b6000601060003373ffffffffffffffffffffffffffffffffffffffff1673ffffffffffffffffffffffffffffffffffffffff16815260200190815260200160002090506000600260008573ffffffffffffffffffffffffffffffffffffffff1673ffffffffffffffffffffffffffffffffffffffff168152602001908152602001600020905082816003016000828254610bb6919061276c565b92505081905550600360008573ffffffffffffffffffffffffffffffffffffffff1673ffffffffffffffffffffffffffffffffffffffff16815260200190815260200160002060405180604001604052803373ffffffffffffffffffffffffffffffffffffffff168152602001670de0b6b3a764000086610c3791906127cf565b815250908060018154018082558091505060019003906000526020600020906002020160009091909190915060008201518160000160006101000a81548173ffffffffffffffffffffffffffffffffffffffff021916908373ffffffffffffffffffffffffffffffffffffffff160217905550602082015181600101555050600015158260010160008673ffffffffffffffffffffffffffffffffffffffff1673ffffffffffffffffffffffffffffffffffffffff16815260200190815260200160002060009054906101000a900460ff16151503610d875760018260010160008673ffffffffffffffffffffffffffffffffffffffff1673ffffffffffffffffffffffffffffffffffffffff16815260200190815260200160002060006101000a81548160ff0219169083151502179055506001816005016000828254610d7f919061276c565b925050819055505b610da433670de0b6b3a764000085610d9f91906127cf565b611a61565b50505050565b610db2611ca9565b610dba611ca9565b610dc2611cf9565b610dca611ca9565b610dd2611ca9565b610dda611cf9565b60006002905060005b600a8110156110b357816000600583600a8110610e0357610e02612666565b5b0160009054906101000a900473ffffffffffffffffffffffffffffffffffffffff1673ffffffffffffffffffffffffffffffffffffffff1673ffffffffffffffffffffffffffffffffffffffff1681526020019081526020016000206001018054610e6d9061273b565b80601f0160208091040260200160405190810160405280929190818152602001828054610e999061273b565b8015610ee65780601f10610ebb57610100808354040283529160200191610ee6565b820191906000526020600020905b815481529060010190602001808311610ec957829003601f168201915b50505050508582600a8110610efe57610efd612666565b5b6020020181905250816000600583600a8110610f1d57610f1c612666565b5b0160009054906101000a900473ffffffffffffffffffffffffffffffffffffffff1673ffffffffffffffffffffffffffffffffffffffff1673ffffffffffffffffffffffffffffffffffffffff1681526020019081526020016000206002018054610f879061273b565b80601f0160208091040260200160405190810160405280929190818152602001828054610fb39061273b565b80156110005780601f10610fd557610100808354040283529160200191611000565b820191906000526020600020905b815481529060010190602001808311610fe357829003601f168201915b50505050508482600a811061101857611017612666565b5b6020020181905250600581600a811061103457611033612666565b5b0160009054906101000a900473ffffffffffffffffffffffffffffffffffffffff168382600a811061106957611068612666565b5b602002019073ffffffffffffffffffffffffffffffffffffffff16908173ffffffffffffffffffffffffffffffffffffffff168152505080806110ab906126c4565b915050610de3565b5083838396509650965050505050909192565b6000600260008473ffffffffffffffffffffffffffffffffffffffff1673ffffffffffffffffffffffffffffffffffffffff168152602001908152602001600020905060011515601060003373ffffffffffffffffffffffffffffffffffffffff1673ffffffffffffffffffffffffffffffffffffffff16815260200190815260200160002060010160008573ffffffffffffffffffffffffffffffffffffffff1673ffffffffffffffffffffffffffffffffffffffff16815260200190815260200160002060009054906101000a900460ff161515146111a657600080fd5b60006111b133611b9c565b9050600183036111ef578082600601600087815260200190815260200160002060020160008282546111e3919061276c565b9250508190555061121f565b808260060160008781526020019081526020016000206003016000828254611217919061276c565b925050819055505b6064604b61122b61049f565b6112359190612800565b61123f91906127cf565b826006016000878152602001908152602001600020600301548360060160008881526020019081526020016000206002015461127b919061276c565b106114b9576001826006016000878152602001908152602001600020600401819055508373ffffffffffffffffffffffffffffffffffffffff166108fc670de0b6b3a7640000846006016000898152602001908152602001600020600501546112e49190612800565b9081150290604051600060405180830381858888f1935050505015801561130f573d6000803e3d6000fd5b50600460008573ffffffffffffffffffffffffffffffffffffffff1673ffffffffffffffffffffffffffffffffffffffff16815260200190815260200160002060405180606001604052806040518060400160405280600f81526020017f4361706974616c20457870656e73650000000000000000000000000000000000815250815260200184600601600089815260200190815260200160002060010180546113b89061273b565b80601f01602080910402602001604051908101604052809291908181526020018280546113e49061273b565b80156114315780601f1061140657610100808354040283529160200191611431565b820191906000526020600020905b81548152906001019060200180831161141457829003601f168201915b5050505050815260200184600601600089815260200190815260200160002060050154815250908060018154018082558091505060019003906000526020600020906003020160009091909190915060008201518160000190816114959190612a13565b5060208201518160010190816114ab9190612a13565b506040820151816002015550505b5050505050565b6000600260003373ffffffffffffffffffffffffffffffffffffffff1673ffffffffffffffffffffffffffffffffffffffff1681526020019081526020016000209050338160000160006101000a81548173ffffffffffffffffffffffffffffffffffffffff021916908373ffffffffffffffffffffffffffffffffffffffff1602179055508484826001019182611559929190612af0565b50828282600201918261156d929190612af0565b50600081600301819055506000816005018190555060008160040181905550336005600f54600a81106115a3576115a2612666565b5b0160006101000a81548173ffffffffffffffffffffffffffffffffffffffff021916908373ffffffffffffffffffffffffffffffffffffffff1602179055506001600f60008282546115f5919061276c565b925050819055505050505050565b600080600260008473ffffffffffffffffffffffffffffffffffffffff1673ffffffffffffffffffffffffffffffffffffffff16815260200190815260200160002090508060040154915050919050565b6000601060003373ffffffffffffffffffffffffffffffffffffffff1673ffffffffffffffffffffffffffffffffffffffff1681526020019081526020016000209050338160000160006101000a81548173ffffffffffffffffffffffffffffffffffffffff021916908373ffffffffffffffffffffffffffffffffffffffff16021790555050565b60008054906101000a900473ffffffffffffffffffffffffffffffffffffffff1681565b338480600260008473ffffffffffffffffffffffffffffffffffffffff1673ffffffffffffffffffffffffffffffffffffffff1681526020019081526020016000206003015411611787576040517f08c379a000000000000000000000000000000000000000000000000000000000815260040161177e90612c1d565b60405180910390fd5b60008503611922573373ffffffffffffffffffffffffffffffffffffffff166108fc670de0b6b3a7640000886117bd9190612800565b9081150290604051600060405180830381858888f193505050501580156117e8573d6000803e3d6000fd5b50600460003373ffffffffffffffffffffffffffffffffffffffff1673ffffffffffffffffffffffffffffffffffffffff16815260200190815260200160002060405180606001604052806040518060400160405280601381526020017f4f7065726174696f6e616c20457870656e736500000000000000000000000000815250815260200186868080601f016020809104026020016040519081016040528093929190818152602001838380828437600081840152601f19601f82011690508083019250505050505050815260200188815250908060018154018082558091505060019003906000526020600020906003020160009091909190915060008201518160000190816118fa9190612a13565b5060208201518160010190816119109190612a13565b50604082015181600201555050611a59565b6000600260003373ffffffffffffffffffffffffffffffffffffffff1673ffffffffffffffffffffffffffffffffffffffff16815260200190815260200160002090508060040154816006016000836004015481526020019081526020016000206000018190555084848260060160008460040154815260200190815260200160002060010191826119b5929190612af0565b50600081600601600083600401548152602001908152602001600020600201819055506000816006016000836004015481526020019081526020016000206003018190555060008160060160008360040154815260200190815260200160002060040181905550868160060160008360040154815260200190815260200160002060050181905550806004016000815480929190611a52906126c4565b9190505550505b505050505050565b60008054906101000a900473ffffffffffffffffffffffffffffffffffffffff1673ffffffffffffffffffffffffffffffffffffffff166340c10f1983836040518363ffffffff1660e01b8152600401611abc929190612c4c565b600060405180830381600087803b158015611ad657600080fd5b505af1158015611aea573d6000803e3d6000fd5b505050505050565b60008173ffffffffffffffffffffffffffffffffffffffff16600260008473ffffffffffffffffffffffffffffffffffffffff1673ffffffffffffffffffffffffffffffffffffffff16815260200190815260200160002060000160009054906101000a900473ffffffffffffffffffffffffffffffffffffffff1673ffffffffffffffffffffffffffffffffffffffff1603611b925760019050611b97565b600090505b919050565b60008060009054906101000a900473ffffffffffffffffffffffffffffffffffffffff1673ffffffffffffffffffffffffffffffffffffffff166370a08231836040518263ffffffff1660e01b8152600401611bf89190612c75565b602060405180830381865afa158015611c15573d6000803e3d6000fd5b505050506040513d601f19601f82011682018060405250810190611c399190612639565b9050919050565b60405180610c800160405280606490602082028036833780820191505090505090565b60405180610c800160405280606490602082028036833780820191505090505090565b604051806101400160405280600a90602082028036833780820191505090505090565b604051806101400160405280600a905b6060815260200190600190039081611cb95790505090565b60405180610c8001604052806064905b6060815260200190600190039081611ce15790505090565b604051806101400160405280600a90602082028036833780820191505090505090565b600080fd5b600080fd5b600073ffffffffffffffffffffffffffffffffffffffff82169050919050565b6000611d5182611d26565b9050919050565b611d6181611d46565b8114611d6c57600080fd5b50565b600081359050611d7e81611d58565b92915050565b600060208284031215611d9a57611d99611d1c565b5b6000611da884828501611d6f565b91505092915050565b60008115159050919050565b611dc681611db1565b82525050565b6000602082019050611de16000830184611dbd565b92915050565b6000819050919050565b611dfa81611de7565b82525050565b6000602082019050611e156000830184611df1565b92915050565b600060649050919050565b600081905092915050565b6000819050919050565b611e4481611d46565b82525050565b6000611e568383611e3b565b60208301905092915050565b6000602082019050919050565b611e7881611e1b565b611e828184611e26565b9250611e8d82611e31565b8060005b83811015611ebe578151611ea58782611e4a565b9650611eb083611e62565b925050600181019050611e91565b505050505050565b600060649050919050565b600081905092915050565b6000819050919050565b611eef81611de7565b82525050565b6000611f018383611ee6565b60208301905092915050565b6000602082019050919050565b611f2381611ec6565b611f2d8184611ed1565b9250611f3882611edc565b8060005b83811015611f69578151611f508782611ef5565b9650611f5b83611f0d565b925050600181019050611f3c565b505050505050565b600061190082019050611f876000830185611e6f565b611f95610c80830184611f1a565b9392505050565b6000600a9050919050565b600081905092915050565b6000819050919050565b6000602082019050919050565b611fd281611f9c565b611fdc8184611fa7565b9250611fe782611fb2565b8060005b83811015612018578151611fff8782611ef5565b965061200a83611fbc565b925050600181019050611feb565b505050505050565b6000600a9050919050565b600081905092915050565b6000819050919050565b600081519050919050565b600082825260208201905092915050565b60005b8381101561207a57808201518184015260208101905061205f565b60008484015250505050565b6000601f19601f8301169050919050565b60006120a282612040565b6120ac818561204b565b93506120bc81856020860161205c565b6120c581612086565b840191505092915050565b60006120dc8383612097565b905092915050565b6000602082019050919050565b60006120fc82612020565b612106818561202b565b93508360208202850161211885612036565b8060005b85811015612154578484038952815161213585826120d0565b9450612140836120e4565b925060208a0199505060018101905061211c565b50829750879550505050505092915050565b60006102c08201905061217c6000830187611fc9565b61218a610140830186611fc9565b81810361028083015261219d81856120f1565b90506121ad6102a0830184611df1565b95945050505050565b600060649050919050565b600081905092915050565b6000819050919050565b6000602082019050919050565b60006121ee826121b6565b6121f881856121c1565b93508360208202850161220a856121cc565b8060005b85811015612246578484038952815161222785826120d0565b9450612232836121d6565b925060208a0199505060018101905061220e565b50829750879550505050505092915050565b6000610ca082019050818103600083015261227381856121e3565b90506122826020830184611f1a565b9392505050565b61229281611de7565b811461229d57600080fd5b50565b6000813590506122af81612289565b92915050565b600080604083850312156122cc576122cb611d1c565b5b60006122da85828601611d6f565b92505060206122eb858286016122a0565b9150509250929050565b6000600a9050919050565b600081905092915050565b6000819050919050565b6000602082019050919050565b61232b816122f5565b6123358184612300565b92506123408261230b565b8060005b838110156123715781516123588782611e4a565b965061236383612315565b925050600181019050612344565b505050505050565b600061018082019050818103600083015261239481866120f1565b905081810360208301526123a881856120f1565b90506123b76040830184612322565b949350505050565b60006123ca82611d26565b9050919050565b6123da816123bf565b81146123e557600080fd5b50565b6000813590506123f7816123d1565b92915050565b60008060006060848603121561241657612415611d1c565b5b6000612424868287016122a0565b9350506020612435868287016123e8565b9250506040612446868287016122a0565b9150509250925092565b600080fd5b600080fd5b600080fd5b60008083601f84011261247557612474612450565b5b8235905067ffffffffffffffff81111561249257612491612455565b5b6020830191508360018202830111156124ae576124ad61245a565b5b9250929050565b600080600080604085870312156124cf576124ce611d1c565b5b600085013567ffffffffffffffff8111156124ed576124ec611d21565b5b6124f98782880161245f565b9450945050602085013567ffffffffffffffff81111561251c5761251b611d21565b5b6125288782880161245f565b925092505092959194509250565b6000819050919050565b600061255b61255661255184611d26565b612536565b611d26565b9050919050565b600061256d82612540565b9050919050565b600061257f82612562565b9050919050565b61258f81612574565b82525050565b60006020820190506125aa6000830184612586565b92915050565b600080600080606085870312156125ca576125c9611d1c565b5b60006125d8878288016122a0565b94505060206125e9878288016122a0565b935050604085013567ffffffffffffffff81111561260a57612609611d21565b5b6126168782880161245f565b925092505092959194509250565b60008151905061263381612289565b92915050565b60006020828403121561264f5761264e611d1c565b5b600061265d84828501612624565b91505092915050565b7f4e487b7100000000000000000000000000000000000000000000000000000000600052603260045260246000fd5b7f4e487b7100000000000000000000000000000000000000000000000000000000600052601160045260246000fd5b60006126cf82611de7565b91507fffffffffffffffffffffffffffffffffffffffffffffffffffffffffffffffff820361270157612700612695565b5b600182019050919050565b7f4e487b7100000000000000000000000000000000000000000000000000000000600052602260045260246000fd5b6000600282049050600182168061275357607f821691505b6020821081036127665761276561270c565b5b50919050565b600061277782611de7565b915061278283611de7565b925082820190508082111561279a57612799612695565b5b92915050565b7f4e487b7100000000000000000000000000000000000000000000000000000000600052601260045260246000fd5b60006127da82611de7565b91506127e583611de7565b9250826127f5576127f46127a0565b5b828204905092915050565b600061280b82611de7565b915061281683611de7565b925082820261282481611de7565b9150828204841483151761283b5761283a612695565b5b5092915050565b7f4e487b7100000000000000000000000000000000000000000000000000000000600052604160045260246000fd5b60008190508160005260206000209050919050565b60006020601f8301049050919050565b600082821b905092915050565b6000600883026128d37fffffffffffffffffffffffffffffffffffffffffffffffffffffffffffffffff82612896565b6128dd8683612896565b95508019841693508086168417925050509392505050565b600061291061290b61290684611de7565b612536565b611de7565b9050919050565b6000819050919050565b61292a836128f5565b61293e61293682612917565b8484546128a3565b825550505050565b600090565b612953612946565b61295e818484612921565b505050565b5b818110156129825761297760008261294b565b600181019050612964565b5050565b601f8211156129c75761299881612871565b6129a184612886565b810160208510156129b0578190505b6129c46129bc85612886565b830182612963565b50505b505050565b600082821c905092915050565b60006129ea600019846008026129cc565b1980831691505092915050565b6000612a0383836129d9565b9150826002028217905092915050565b612a1c82612040565b67ffffffffffffffff811115612a3557612a34612842565b5b612a3f825461273b565b612a4a828285612986565b600060209050601f831160018114612a7d5760008415612a6b578287015190505b612a7585826129f7565b865550612add565b601f198416612a8b86612871565b60005b82811015612ab357848901518255600182019150602085019450602081019050612a8e565b86831015612ad05784890151612acc601f8916826129d9565b8355505b6001600288020188555050505b505050505050565b600082905092915050565b612afa8383612ae5565b67ffffffffffffffff811115612b1357612b12612842565b5b612b1d825461273b565b612b28828285612986565b6000601f831160018114612b575760008415612b45578287013590505b612b4f85826129f7565b865550612bb7565b601f198416612b6586612871565b60005b82811015612b8d57848901358255600182019150602085019450602081019050612b68565b86831015612baa5784890135612ba6601f8916826129d9565b8355505b6001600288020188555050505b50505050505050565b600082825260208201905092915050565b7f4e6f7420656e6f7567682066756e647320696e20746865207075727365000000600082015250565b6000612c07601d83612bc0565b9150612c1282612bd1565b602082019050919050565b60006020820190508181036000830152612c3681612bfa565b9050919050565b612c4681611d46565b82525050565b6000604082019050612c616000830185612c3d565b612c6e6020830184611df1565b9392505050565b6000602082019050612c8a6000830184612c3d565b9291505056fea26469706673582212205b1be7492f48dbb5b65a8e653fdd1f90a28f94828fc798035c7197d5c0b7f9f464736f6c63430008110033",
  "immutableReferences": {},
  "source": "// SPDX-License-Identifier: GPL-3.0\npragma solidity >=0.5.0 ;\n\nimport \"@openzeppelin/contracts/token/ERC20/ERC20.sol\";\nimport \"@openzeppelin/contracts/access/Ownable.sol\";\nimport \"@openzeppelin/contracts/token/ERC20/extensions/draft-ERC20Permit.sol\";\nimport \"@openzeppelin/contracts/token/ERC20/extensions/ERC20Votes.sol\";\nimport \"./faunacoin.sol\";\n\ncontract Cryptonate {\n    ///////////////////////// ALL STORAGE VARIABLES\n    // address fcAddr = 0xd9145CCE52D386f254917e481eB44e9943F39138;\n\n    Faunacoin public fc_ref;\n\n    constructor(Faunacoin faunacoinAddress) {\n        fc_ref = faunacoinAddress;\n    }\n\n    address payable cryptonateOwner;\n\n    // Holds details of each poll\n    struct Poll {\n        uint256 pollId;\n        string description;\n        uint256 approved;\n        uint256 disapproved;\n        uint256 state;\n        uint256 amount;\n    }\n\n    // Hold details of a single charity\n    struct Charity {\n        address payable _charity;\n        string name;\n        string description;\n        uint256 funds;\n        uint256 numPolls;\n        uint256 numDonors;\n        mapping(uint256 => Poll) polls;\n    }\n\n    // Hold details of all charities\n    mapping(address => Charity) allCharities;\n    \n    struct Donations {\n        address donorAddress;\n        uint256 amount;\n    }\n\n    // Hold donations for each charity\n    mapping(address => Donations[]) allDonations;\n\n    struct Withdrawals {\n        string expenseType;\n        string purpose;\n        uint256 amount;\n    }\n    mapping(address => Withdrawals[]) allWithdrawals;\n\n    address[10] charityAddresses;\n\n    uint256 charityCount = 0;\n\n    // Hold details of a donor\n    struct Donor {\n        address _donor;\n        mapping(address => bool) charities;\n    }\n\n    // Hold all donors\n    mapping(address => Donor) allDonors;\n\n    ///////////////////////// MODIFIERS\n\n    modifier validateRequest(address sender, uint256 amount) {\n        require(\n            allCharities[sender].funds > amount,\n            \"Not enough funds in the purse\"\n        );\n        _;\n    }\n\n    ///////////////////////// INIT FUNCTIONS\n    function getBalance(address donorAddr) public view returns (uint256) {\n        return fc_ref.balanceOf(donorAddr);\n    }\n\n    function mintTokens(address donorAddr, uint256 amount) public {\n        fc_ref.mint(donorAddr, amount);\n    }\n\n    function totalSupply() public view returns (uint256) {\n        return fc_ref.totalSupply();\n    }\n\n    // Register a charity\n    function registerCharity(string calldata name, string calldata description)\n        public\n    {\n        Charity storage c = allCharities[payable(msg.sender)];\n        c._charity = payable(msg.sender);\n        c.name = name;\n        c.description = description;\n        c.funds = 0;\n        c.numDonors = 0;\n        c.numPolls = 0;\n\n        charityAddresses[charityCount] = payable(msg.sender);\n        charityCount += 1;\n    }\n\n    // Register a donor\n    function registerDonor() public {\n        Donor storage d = allDonors[msg.sender];\n        d._donor = msg.sender;\n    }\n\n    function registerDonation(address charityAddress, uint256 amount)\n        public\n        payable\n    {\n        require(msg.value == amount && amount > 0);\n\n        // Add charity to the donor's list\n        Donor storage d = allDonors[msg.sender];\n\n        // Add amount to charity's purse\n        Charity storage c = allCharities[charityAddress];\n        c.funds += amount;\n        allDonations[charityAddress].push(Donations(msg.sender,amount/1000000000000000000));\n        // This is to check if the donor should be allowed to respond to a poll by this charity\n        if (d.charities[charityAddress] == false) {\n            d.charities[charityAddress] = true;\n            c.numDonors += 1;\n        }\n\n        //TODO: Send tokens to the donor\n\n        // Give tokens to the donor\n        mintTokens(msg.sender, amount / 1000000000000000000);\n    }\n\n    // Create a new poll or transfer funds in case of opex\n    function requestFunds(\n        uint256 amount,\n        uint256 expenseType,\n        string calldata description\n    ) public payable validateRequest(msg.sender, amount) {\n        if (expenseType == 0) {\n            // Send funds\n            payable(msg.sender).transfer(amount * 1000000000000000000);\n            \n            allWithdrawals[msg.sender].push(Withdrawals(\"Operational Expense\",description,amount));\n        } else {\n            Charity storage c = allCharities[msg.sender];\n            c.polls[c.numPolls].pollId = c.numPolls;\n            c.polls[c.numPolls].description = description;\n            c.polls[c.numPolls].approved = 0;\n            c.polls[c.numPolls].disapproved = 0;\n            c.polls[c.numPolls].state = 0;\n            c.polls[c.numPolls].amount = amount;\n            c.numPolls++;\n        }\n    }\n\n    // Register donor's vote\n    function vote(\n        uint256 pollId,\n        address payable charityAddress,\n        uint256 voteType\n    ) public {\n        // Add user's vote\n        Charity storage c = allCharities[charityAddress];\n        // Check if this donor has donated to this charity\n        require(allDonors[msg.sender].charities[charityAddress] == true);\n\n        // TODO: Get the donors token balance to decide the weight of their vote.\n        // TODO: Change\n        uint256 balance = getBalance(msg.sender);\n\n        if (voteType == 1) {\n            c.polls[pollId].approved += balance;\n        } else {\n            c.polls[pollId].disapproved += balance;\n        }\n        if (\n            c.polls[pollId].approved + c.polls[pollId].disapproved >=\n            (totalSupply() * 75) / 100\n        ) {\n            c.polls[pollId].state = 1;\n            payable(charityAddress).transfer(\n                c.polls[pollId].amount * 1000000000000000000\n            );\n            allWithdrawals[charityAddress].push(Withdrawals(\"Capital Expense\",c.polls[pollId].description,c.polls[pollId].amount));\n        }\n    }\n\n    // User login\n    function checkValidDonor(address key) public view returns (bool) {\n        if (allDonors[key]._donor == key) {\n            return true;\n        } else {\n            return false;\n        }\n    }\n\n    function checkValidCharity(address key) public view returns (bool) {\n        if (allCharities[key]._charity == key) {\n            return true;\n        } else {\n            return false;\n        }\n    }\n\n    // Get last 10 polls of an organization with description, approved and disapproved vote counts\n    function getPolls(address charityAddress)\n        public\n        view\n        returns (\n            uint256[10] memory,\n            uint256[10] memory,\n            string[10] memory,\n            uint256\n        )\n    {\n        Charity storage c = allCharities[charityAddress];\n        uint256[10] memory approved;\n        uint256[10] memory disapproved;\n        string[10] memory descriptions;\n        uint256 total;\n\n        for (uint256 i = 0; i < 10; i++) {\n            approved[i] = c.polls[i].approved;\n            disapproved[i] = c.polls[i].disapproved;\n            total = totalSupply();\n\n            descriptions[i] = c.polls[i].description;\n        }\n        return (approved, disapproved, descriptions, total);\n    }\n\n    function getCharities()\n        public\n        view\n        returns (\n            string[10] memory,\n            string[10] memory,\n            address[10] memory\n        )\n    {\n        string[10] memory names;\n        string[10] memory descs;\n        address[10] memory addrs;\n        mapping(address => Charity) storage ac = allCharities;\n        for (uint256 i = 0; i < 10; i++) {\n            names[i] = ac[charityAddresses[i]].name;\n            descs[i] = ac[charityAddresses[i]].description;\n            addrs[i] = charityAddresses[i];\n        }\n\n        return (names, descs, addrs);\n    }\n\n    function getDonations(address charityAddress)\n        public\n        view\n        returns (\n            address[100] memory,\n            uint256[100] memory\n\n        )\n    {\n        address[100] memory donors;\n        uint256[100] memory amounts;\n        for (uint256 i = 0; i < allDonations[charityAddress].length; i++) {\n            donors[i] = allDonations[charityAddress][i].donorAddress;\n            amounts[i] = allDonations[charityAddress][i].amount;\n        }\n        return (donors,amounts);\n    }\n\n    function getWithdrawals(address charityAddress)\n        public\n        view\n        returns (\n            string[100] memory,\n            uint256[100] memory\n\n        )\n    {\n        string[100] memory expenseType;\n        uint256[100] memory amounts;\n        for (uint256 i = 0; i < allWithdrawals[charityAddress].length; i++) {\n            expenseType[i] = allWithdrawals[charityAddress][i].expenseType;\n            amounts[i] = allWithdrawals[charityAddress][i].amount;\n        }\n        return (expenseType,amounts);\n    }\n\n    // Get the current number of polls of a given organisation\n    function getNumPolls(address charityAddress) public view returns (uint256) {\n        Charity storage c = allCharities[charityAddress];\n        return c.numPolls;\n    }\n}\n",
  "sourcePath": "/Users/tanvikarennavar/Desktop/blockchain/cryptonate-contract/contracts/Cryptonate.sol",
  "compiler": {
    "name": "solc",
    "version": "0.8.17+commit.8df45f5f.Emscripten.clang"
  },
  "schemaVersion": "3.4.10",
  "updatedAt": "2022-12-08T16:20:34.616Z",
  "networkType": "ethereum",
  "devdoc": {
    "kind": "dev",
    "methods": {},
    "version": 1
  },
  "userdoc": {
    "kind": "user",
    "methods": {},
    "version": 1
  }
}