{
  "contractName": "Cryptonate",
  "abi": [
    {
      "inputs": [
        {
          "internalType": "address payable",
          "name": "charityAddress",
          "type": "address"
        }
      ],
      "name": "registerCharity",
      "outputs": [],
      "stateMutability": "nonpayable",
      "type": "function"
    },
    {
      "inputs": [
        {
          "internalType": "address",
          "name": "donorAddress",
          "type": "address"
        }
      ],
      "name": "registerDonor",
      "outputs": [],
      "stateMutability": "payable",
      "type": "function",
      "payable": true
    },
    {
      "inputs": [
        {
          "internalType": "address",
          "name": "charityAddress",
          "type": "address"
        },
        {
          "internalType": "uint256",
          "name": "amount",
          "type": "uint256"
        }
      ],
      "name": "registerDonation",
      "outputs": [],
      "stateMutability": "payable",
      "type": "function",
      "payable": true
    },
    {
      "inputs": [
        {
          "internalType": "uint256",
          "name": "amount",
          "type": "uint256"
        },
        {
          "internalType": "uint256",
          "name": "expenseType",
          "type": "uint256"
        },
        {
          "internalType": "string",
          "name": "description",
          "type": "string"
        }
      ],
      "name": "requestFunds",
      "outputs": [],
      "stateMutability": "payable",
      "type": "function",
      "payable": true
    },
    {
      "inputs": [
        {
          "internalType": "uint256",
          "name": "pollId",
          "type": "uint256"
        },
        {
          "internalType": "address payable",
          "name": "charity",
          "type": "address"
        },
        {
          "internalType": "int256",
          "name": "voteType",
          "type": "int256"
        }
      ],
      "name": "vote",
      "outputs": [],
      "stateMutability": "nonpayable",
      "type": "function"
    }
  ],
  "bytecode": "0x608060405234801561001057600080fd5b50610ce5806100206000396000f3fe60806040526004361061004a5760003560e01c80630dbf8da11461004f5780633c49dde414610078578063b134a48714610094578063bc9f30a5146100bd578063e8a568fa146100d9575b600080fd5b34801561005b57600080fd5b50610076600480360381019061007191906105b9565b6100f5565b005b610092600480360381019061008d919061065a565b610193565b005b3480156100a057600080fd5b506100bb60048036038101906100b691906106d0565b610294565b005b6100d760048036038101906100d29190610723565b610347565b005b6100f360048036038101906100ee91906107b5565b6103d1565b005b6000600160008373ffffffffffffffffffffffffffffffffffffffff1673ffffffffffffffffffffffffffffffffffffffff1681526020019081526020016000209050818160000160006101000a81548173ffffffffffffffffffffffffffffffffffffffff021916908373ffffffffffffffffffffffffffffffffffffffff16021790555060008160010181905550600081600201819055505050565b6000600260003373ffffffffffffffffffffffffffffffffffffffff1673ffffffffffffffffffffffffffffffffffffffff168152602001908152602001600020905060018160010160008573ffffffffffffffffffffffffffffffffffffffff1673ffffffffffffffffffffffffffffffffffffffff16815260200190815260200160002060006101000a81548160ff0219169083151502179055506000600160008573ffffffffffffffffffffffffffffffffffffffff1673ffffffffffffffffffffffffffffffffffffffff1681526020019081526020016000209050828160010160008282546102879190610858565b9250508190555050505050565b6000600160008473ffffffffffffffffffffffffffffffffffffffff1673ffffffffffffffffffffffffffffffffffffffff1681526020019081526020016000209050600182036103125780600301600085815260200190815260200160002060020160008154809291906103089061088c565b9190505550610341565b806003016000858152602001908152602001600020600301600081548092919061033b9061088c565b91905055505b50505050565b6000600260008373ffffffffffffffffffffffffffffffffffffffff1673ffffffffffffffffffffffffffffffffffffffff1681526020019081526020016000209050818160000160006101000a81548173ffffffffffffffffffffffffffffffffffffffff021916908373ffffffffffffffffffffffffffffffffffffffff1602179055505050565b338480600160008473ffffffffffffffffffffffffffffffffffffffff1673ffffffffffffffffffffffffffffffffffffffff1681526020019081526020016000206001015411610457576040517f08c379a000000000000000000000000000000000000000000000000000000000815260040161044e90610931565b60405180910390fd5b600085036104ab573373ffffffffffffffffffffffffffffffffffffffff166108fc879081150290604051600060405180830381858888f193505050501580156104a5573d6000803e3d6000fd5b50610549565b6000600160003373ffffffffffffffffffffffffffffffffffffffff1673ffffffffffffffffffffffffffffffffffffffff168152602001908152602001600020905080600201600081548092919061050390610951565b91905055506000816003016000836002015481526020019081526020016000209050816002015481600001819055508585826001019182610545929190610bdf565b5050505b505050505050565b600080fd5b600080fd5b600073ffffffffffffffffffffffffffffffffffffffff82169050919050565b60006105868261055b565b9050919050565b6105968161057b565b81146105a157600080fd5b50565b6000813590506105b38161058d565b92915050565b6000602082840312156105cf576105ce610551565b5b60006105dd848285016105a4565b91505092915050565b60006105f18261055b565b9050919050565b610601816105e6565b811461060c57600080fd5b50565b60008135905061061e816105f8565b92915050565b6000819050919050565b61063781610624565b811461064257600080fd5b50565b6000813590506106548161062e565b92915050565b6000806040838503121561067157610670610551565b5b600061067f8582860161060f565b925050602061069085828601610645565b9150509250929050565b6000819050919050565b6106ad8161069a565b81146106b857600080fd5b50565b6000813590506106ca816106a4565b92915050565b6000806000606084860312156106e9576106e8610551565b5b60006106f786828701610645565b9350506020610708868287016105a4565b9250506040610719868287016106bb565b9150509250925092565b60006020828403121561073957610738610551565b5b60006107478482850161060f565b91505092915050565b600080fd5b600080fd5b600080fd5b60008083601f84011261077557610774610750565b5b8235905067ffffffffffffffff81111561079257610791610755565b5b6020830191508360018202830111156107ae576107ad61075a565b5b9250929050565b600080600080606085870312156107cf576107ce610551565b5b60006107dd87828801610645565b94505060206107ee87828801610645565b935050604085013567ffffffffffffffff81111561080f5761080e610556565b5b61081b8782880161075f565b925092505092959194509250565b7f4e487b7100000000000000000000000000000000000000000000000000000000600052601160045260246000fd5b600061086382610624565b915061086e83610624565b925082820190508082111561088657610885610829565b5b92915050565b60006108978261069a565b91507f7fffffffffffffffffffffffffffffffffffffffffffffffffffffffffffffff82036108c9576108c8610829565b5b600182019050919050565b600082825260208201905092915050565b7f4e6f7420656e6f7567682066756e647320696e20746865207075727365000000600082015250565b600061091b601d836108d4565b9150610926826108e5565b602082019050919050565b6000602082019050818103600083015261094a8161090e565b9050919050565b600061095c82610624565b91507fffffffffffffffffffffffffffffffffffffffffffffffffffffffffffffffff820361098e5761098d610829565b5b600182019050919050565b600082905092915050565b7f4e487b7100000000000000000000000000000000000000000000000000000000600052604160045260246000fd5b7f4e487b7100000000000000000000000000000000000000000000000000000000600052602260045260246000fd5b60006002820490506001821680610a1a57607f821691505b602082108103610a2d57610a2c6109d3565b5b50919050565b60008190508160005260206000209050919050565b60006020601f8301049050919050565b600082821b905092915050565b600060088302610a957fffffffffffffffffffffffffffffffffffffffffffffffffffffffffffffffff82610a58565b610a9f8683610a58565b95508019841693508086168417925050509392505050565b6000819050919050565b6000610adc610ad7610ad284610624565b610ab7565b610624565b9050919050565b6000819050919050565b610af683610ac1565b610b0a610b0282610ae3565b848454610a65565b825550505050565b600090565b610b1f610b12565b610b2a818484610aed565b505050565b5b81811015610b4e57610b43600082610b17565b600181019050610b30565b5050565b601f821115610b9357610b6481610a33565b610b6d84610a48565b81016020851015610b7c578190505b610b90610b8885610a48565b830182610b2f565b50505b505050565b600082821c905092915050565b6000610bb660001984600802610b98565b1980831691505092915050565b6000610bcf8383610ba5565b9150826002028217905092915050565b610be98383610999565b67ffffffffffffffff811115610c0257610c016109a4565b5b610c0c8254610a02565b610c17828285610b52565b6000601f831160018114610c465760008415610c34578287013590505b610c3e8582610bc3565b865550610ca6565b601f198416610c5486610a33565b60005b82811015610c7c57848901358255600182019150602085019450602081019050610c57565b86831015610c995784890135610c95601f891682610ba5565b8355505b6001600288020188555050505b5050505050505056fea2646970667358221220e7951ee171652282aaedafc22d6f2d2c33800426380bdd368c0c6ec7123daafb64736f6c63430008110033",
  "immutableReferences": {},
  "source": "// SPDX-License-Identifier: GPL-3.0\npragma solidity >=0.7.0 <0.9.0;\n\ncontract Cryptonate {\n    address payable cryptonateOwner;\n\n    // Holds details of each poll\n    struct Poll {\n        uint256 pollId;\n        string description;\n        int256 approved;\n        int256 disapproved;\n    }\n\n    // Hold details of a single charity\n    struct Charity {\n        address payable _charity;\n        uint256 funds;\n        uint256 numPolls;\n        mapping(uint256 => Poll) polls;\n    }\n\n    // Hold details of all charities\n    mapping(address => Charity) allCharities;\n\n    // Hold details of a donor\n    struct Donor {\n        address _donor;\n        mapping(address => bool) charities;\n    }\n\n    // Hold all donors\n    mapping(address => Donor) allDonors;\n\n    modifier validateRequest(address sender, uint256 amount) {\n        require(\n            allCharities[sender].funds > amount,\n            \"Not enough funds in the purse\"\n        );\n        _;\n    }\n\n    // Register a charity\n    function registerCharity(address payable charityAddress) public {\n        Charity storage c = allCharities[charityAddress];\n        c._charity = charityAddress;\n        c.funds = 0;\n        c.numPolls = 0;\n    }\n\n    // Register a donor\n    function registerDonor(address donorAddress) public payable{\n        Donor storage d = allDonors[donorAddress];\n        d._donor = donorAddress;\n    }\n\n    function registerDonation(address charityAddress, uint256 amount) public payable{\n        // require(msg.value == amount && amount > 0);\n\n        // Add charity to the donor's list\n        Donor storage d = allDonors[msg.sender];\n        // This is to check if the donor should be allowed to respond to a poll by this charity\n        d.charities[charityAddress] = true;\n\n        // Add amount to charity's purse\n        Charity storage c = allCharities[charityAddress];\n        c.funds += amount;\n    }\n\n    // Transfer funds both opex and capex\n    function requestFunds(\n        uint256 amount,\n        uint256 expenseType,\n        string calldata description\n    ) public payable validateRequest(msg.sender, amount) {\n        if (expenseType == 0) {\n            // Send funds\n            payable(msg.sender).transfer(amount);\n        } else {\n            Charity storage c = allCharities[msg.sender];\n            c.numPolls++;\n            Poll storage p = c.polls[c.numPolls];\n            p.pollId = c.numPolls;\n            p.description = description;\n        }\n    }\n\n    function vote(\n        uint256 pollId,\n        address payable charity,\n        int256 voteType\n    ) public {\n        // Add user's vote\n        Charity storage c = allCharities[charity];\n        if (voteType == 1) {\n            c.polls[pollId].approved++;\n        } else {\n            c.polls[pollId].disapproved++;\n        }\n    }\n}\n",
  "sourcePath": "/Users/tanvikarennavar/blockchain/cryptonate-contract/contracts/Cryptonate.sol",
  "compiler": {
    "name": "solc",
    "version": "0.8.17+commit.8df45f5f.Emscripten.clang"
  },
  "schemaVersion": "3.4.10",
  "updatedAt": "2022-11-11T23:43:58.175Z",
  "networkType": "ethereum",
  "devdoc": {
    "kind": "dev",
    "methods": {},
    "version": 1
  },
  "userdoc": {
    "kind": "user",
    "methods": {},
    "version": 1
  }
}