{
  "contractName": "Cryptonate",
  "abi": [
    {
      "inputs": [
        {
          "internalType": "address",
          "name": "",
          "type": "address"
        }
      ],
      "name": "_allCharities",
      "outputs": [
        {
          "internalType": "uint256",
          "name": "",
          "type": "uint256"
        }
      ],
      "stateMutability": "view",
      "type": "function"
    },
    {
      "inputs": [
        {
          "internalType": "address",
          "name": "charityAddress",
          "type": "address"
        }
      ],
      "name": "registerCharity",
      "outputs": [],
      "stateMutability": "nonpayable",
      "type": "function"
    },
    {
      "inputs": [
        {
          "internalType": "address",
          "name": "charityAddress",
          "type": "address"
        },
        {
          "internalType": "uint256",
          "name": "donationAmount",
          "type": "uint256"
        }
      ],
      "name": "donate",
      "outputs": [],
      "stateMutability": "payable",
      "type": "function"
    },
    {
      "inputs": [],
      "name": "getDonors",
      "outputs": [
        {
          "internalType": "address[]",
          "name": "",
          "type": "address[]"
        }
      ],
      "stateMutability": "view",
      "type": "function"
    }
  ],
  "bytecode": "0x608060405234801561001057600080fd5b5061062d806100206000396000f3fe60806040526004361061003f5760003560e01c80630dbf8da11461004457806396f300d41461006d578063b2003e9914610098578063e69d849d146100d5575b600080fd5b34801561005057600080fd5b5061006b60048036038101906100669190610344565b6100f1565b005b34801561007957600080fd5b50610082610139565b60405161008f919061042f565b60405180910390f35b3480156100a457600080fd5b506100bf60048036038101906100ba9190610344565b6101c7565b6040516100cc919061046a565b60405180910390f35b6100ef60048036038101906100ea91906104b1565b6101df565b005b6000600360008373ffffffffffffffffffffffffffffffffffffffff1673ffffffffffffffffffffffffffffffffffffffff1681526020019081526020016000208190555050565b606060018054806020026020016040519081016040528092919081815260200182805480156101bd57602002820191906000526020600020905b8160009054906101000a900473ffffffffffffffffffffffffffffffffffffffff1673ffffffffffffffffffffffffffffffffffffffff1681526020019060010190808311610173575b5050505050905090565b60036020528060005260406000206000915090505481565b8060008111610223576040517f08c379a000000000000000000000000000000000000000000000000000000000815260040161021a90610574565b60405180910390fd5b81600360008573ffffffffffffffffffffffffffffffffffffffff1673ffffffffffffffffffffffffffffffffffffffff168152602001908152602001600020600082825461027291906105c3565b925050819055506001339080600181540180825580915050600190039060005260206000200160009091909190916101000a81548173ffffffffffffffffffffffffffffffffffffffff021916908373ffffffffffffffffffffffffffffffffffffffff160217905550505050565b600080fd5b600073ffffffffffffffffffffffffffffffffffffffff82169050919050565b6000610311826102e6565b9050919050565b61032181610306565b811461032c57600080fd5b50565b60008135905061033e81610318565b92915050565b60006020828403121561035a576103596102e1565b5b60006103688482850161032f565b91505092915050565b600081519050919050565b600082825260208201905092915050565b6000819050602082019050919050565b6103a681610306565b82525050565b60006103b8838361039d565b60208301905092915050565b6000602082019050919050565b60006103dc82610371565b6103e6818561037c565b93506103f18361038d565b8060005b8381101561042257815161040988826103ac565b9750610414836103c4565b9250506001810190506103f5565b5085935050505092915050565b6000602082019050818103600083015261044981846103d1565b905092915050565b6000819050919050565b61046481610451565b82525050565b600060208201905061047f600083018461045b565b92915050565b61048e81610451565b811461049957600080fd5b50565b6000813590506104ab81610485565b92915050565b600080604083850312156104c8576104c76102e1565b5b60006104d68582860161032f565b92505060206104e78582860161049c565b9150509250929050565b600082825260208201905092915050565b7f446f6e6174696f6e20416d6f756e74206e6565647320746f206265206d6f726560008201527f207468616e203000000000000000000000000000000000000000000000000000602082015250565b600061055e6027836104f1565b915061056982610502565b604082019050919050565b6000602082019050818103600083015261058d81610551565b9050919050565b7f4e487b7100000000000000000000000000000000000000000000000000000000600052601160045260246000fd5b60006105ce82610451565b91506105d983610451565b92508282019050808211156105f1576105f0610594565b5b9291505056fea26469706673582212203b307ca23701eb92ba1f822a48ab29129abecb9a53b6ca648efb569ba47b1a6364736f6c63430008110033",
  "immutableReferences": {},
  "source": "// SPDX-License-Identifier: GPL-3.0\r\npragma solidity >=0.4.22;\r\n\r\ncontract Cryptonate {\r\n    address payable cryptonateOwner;\r\n    address[] donors;\r\n    uint totalDonationAmount;\r\n\r\n    modifier validateDonation(uint amount) {\r\n        require(amount > 0, 'Donation Amount needs to be more than 0');\r\n        _;\r\n    }\r\n    struct Donation{\r\n        address _donor;\r\n        uint donationAmount;\r\n    }\r\n\r\n    \r\n    mapping(address => uint) public _allCharities;\r\n\r\n    function registerCharity(address charityAddress) public{\r\n        _allCharities[charityAddress] = 0;\r\n    }\r\n    function donate(address charityAddress,uint donationAmount) public payable validateDonation(donationAmount){\r\n        _allCharities[charityAddress] += donationAmount ;\r\n        donors.push(msg.sender);\r\n    }\r\n\r\n    function getDonors() public view returns (address[] memory) {\r\n      return donors;\r\n    }\r\n    \r\n}",
  "sourcePath": "C:\\Users\\Manu\\Documents\\blockchain project\\blockchain\\cryptonate-contract\\contracts\\donate.sol",
  "compiler": {
    "name": "solc",
    "version": "0.8.17+commit.8df45f5f.Emscripten.clang"
  },
  "schemaVersion": "3.4.10",
  "updatedAt": "2022-11-09T22:22:14.639Z",
  "devdoc": {
    "kind": "dev",
    "methods": {},
    "version": 1
  },
  "userdoc": {
    "kind": "user",
    "methods": {},
    "version": 1
  }
}