{
  "contractName": "Cryptonate",
  "abi": [
    {
      "inputs": [
        {
          "internalType": "contract Faunacoin",
          "name": "faunacoinAddress",
          "type": "address"
        }
      ],
      "stateMutability": "nonpayable",
      "type": "constructor"
    },
    {
      "inputs": [],
      "name": "fc_ref",
      "outputs": [
        {
          "internalType": "contract Faunacoin",
          "name": "",
          "type": "address"
        }
      ],
      "stateMutability": "view",
      "type": "function",
      "constant": true
    },
    {
      "inputs": [
        {
          "internalType": "address",
          "name": "donorAddr",
          "type": "address"
        }
      ],
      "name": "getBalance",
      "outputs": [
        {
          "internalType": "uint256",
          "name": "",
          "type": "uint256"
        }
      ],
      "stateMutability": "view",
      "type": "function",
      "constant": true
    },
    {
      "inputs": [
        {
          "internalType": "address",
          "name": "donorAddr",
          "type": "address"
        },
        {
          "internalType": "uint256",
          "name": "amount",
          "type": "uint256"
        }
      ],
      "name": "mintTokens",
      "outputs": [],
      "stateMutability": "nonpayable",
      "type": "function"
    },
    {
      "inputs": [],
      "name": "totalSupply",
      "outputs": [
        {
          "internalType": "uint256",
          "name": "",
          "type": "uint256"
        }
      ],
      "stateMutability": "view",
      "type": "function",
      "constant": true
    },
    {
      "inputs": [
        {
          "internalType": "string",
          "name": "name",
          "type": "string"
        },
        {
          "internalType": "string",
          "name": "description",
          "type": "string"
        }
      ],
      "name": "registerCharity",
      "outputs": [],
      "stateMutability": "nonpayable",
      "type": "function"
    },
    {
      "inputs": [],
      "name": "registerDonor",
      "outputs": [],
      "stateMutability": "nonpayable",
      "type": "function"
    },
    {
      "inputs": [
        {
          "internalType": "address",
          "name": "charityAddress",
          "type": "address"
        },
        {
          "internalType": "uint256",
          "name": "amount",
          "type": "uint256"
        }
      ],
      "name": "registerDonation",
      "outputs": [],
      "stateMutability": "payable",
      "type": "function",
      "payable": true
    },
    {
      "inputs": [
        {
          "internalType": "uint256",
          "name": "amount",
          "type": "uint256"
        },
        {
          "internalType": "uint256",
          "name": "expenseType",
          "type": "uint256"
        },
        {
          "internalType": "string",
          "name": "description",
          "type": "string"
        }
      ],
      "name": "requestFunds",
      "outputs": [],
      "stateMutability": "payable",
      "type": "function",
      "payable": true
    },
    {
      "inputs": [
        {
          "internalType": "uint256",
          "name": "pollId",
          "type": "uint256"
        },
        {
          "internalType": "address payable",
          "name": "charityAddress",
          "type": "address"
        },
        {
          "internalType": "uint256",
          "name": "voteType",
          "type": "uint256"
        }
      ],
      "name": "vote",
      "outputs": [],
      "stateMutability": "nonpayable",
      "type": "function"
    },
    {
      "inputs": [
        {
          "internalType": "address",
          "name": "key",
          "type": "address"
        }
      ],
      "name": "checkValidDonor",
      "outputs": [
        {
          "internalType": "bool",
          "name": "",
          "type": "bool"
        }
      ],
      "stateMutability": "view",
      "type": "function",
      "constant": true
    },
    {
      "inputs": [
        {
          "internalType": "address",
          "name": "key",
          "type": "address"
        }
      ],
      "name": "checkValidCharity",
      "outputs": [
        {
          "internalType": "bool",
          "name": "",
          "type": "bool"
        }
      ],
      "stateMutability": "view",
      "type": "function",
      "constant": true
    },
    {
      "inputs": [
        {
          "internalType": "address",
          "name": "charityAddress",
          "type": "address"
        }
      ],
      "name": "getPolls",
      "outputs": [
        {
          "internalType": "uint256[10]",
          "name": "",
          "type": "uint256[10]"
        },
        {
          "internalType": "uint256[10]",
          "name": "",
          "type": "uint256[10]"
        },
        {
          "internalType": "string[10]",
          "name": "",
          "type": "string[10]"
        }
      ],
      "stateMutability": "view",
      "type": "function",
      "constant": true
    },
    {
      "inputs": [
        {
          "internalType": "address",
          "name": "charityAddress",
          "type": "address"
        }
      ],
      "name": "getNumPolls",
      "outputs": [
        {
          "internalType": "uint256",
          "name": "",
          "type": "uint256"
        }
      ],
      "stateMutability": "view",
      "type": "function",
      "constant": true
    }
  ],
  "bytecode": "0x60806040523480156200001157600080fd5b5060405162001da238038062001da28339818101604052810190620000379190620000fc565b806000806101000a81548173ffffffffffffffffffffffffffffffffffffffff021916908373ffffffffffffffffffffffffffffffffffffffff160217905550506200012e565b600080fd5b600073ffffffffffffffffffffffffffffffffffffffff82169050919050565b6000620000b08262000083565b9050919050565b6000620000c482620000a3565b9050919050565b620000d681620000b7565b8114620000e257600080fd5b50565b600081519050620000f681620000cb565b92915050565b6000602082840312156200011557620001146200007e565b5b60006200012584828501620000e5565b91505092915050565b611c64806200013e6000396000f3fe6080604052600436106100c25760003560e01c806392f92fb01161007f578063e8a568fa11610059578063e8a568fa1461025b578063f0dda65c14610277578063f1be929e146102a0578063f8b2cb4f146102dd576100c2565b806392f92fb0146101dc578063aa810f3614610219578063bbb27cee14610230576100c2565b8063144599f2146100c757806318160ddd14610104578063310b7eb21461012f5780633c49dde41461016e5780634de8737c1461018a57806351e73887146101b3575b600080fd5b3480156100d357600080fd5b506100ee60048036038101906100e991906110fa565b61031a565b6040516100fb9190611142565b60405180910390f35b34801561011057600080fd5b506101196103c4565b6040516101269190611176565b60405180910390f35b34801561013b57600080fd5b50610156600480360381019061015191906110fa565b61045b565b60405161016593929190611382565b60405180910390f35b610188600480360381019061018391906113ef565b61066c565b005b34801561019657600080fd5b506101b160048036038101906101ac919061146d565b610819565b005b3480156101bf57600080fd5b506101da60048036038101906101d59190611525565b610a6b565b005b3480156101e857600080fd5b5061020360048036038101906101fe91906110fa565b610b3e565b6040516102109190611176565b60405180910390f35b34801561022557600080fd5b5061022e610b8f565b005b34801561023c57600080fd5b50610245610c18565b6040516102529190611605565b60405180910390f35b61027560048036038101906102709190611620565b610c3c565b005b34801561028357600080fd5b5061029e600480360381019061029991906113ef565b610e68565b005b3480156102ac57600080fd5b506102c760048036038101906102c291906110fa565b610ef9565b6040516102d49190611142565b60405180910390f35b3480156102e957600080fd5b5061030460048036038101906102ff91906110fa565b610fa3565b6040516103119190611176565b60405180910390f35b60008173ffffffffffffffffffffffffffffffffffffffff16600360008473ffffffffffffffffffffffffffffffffffffffff1673ffffffffffffffffffffffffffffffffffffffff16815260200190815260200160002060000160009054906101000a900473ffffffffffffffffffffffffffffffffffffffff1673ffffffffffffffffffffffffffffffffffffffff16036103ba57600190506103bf565b600090505b919050565b60008060009054906101000a900473ffffffffffffffffffffffffffffffffffffffff1673ffffffffffffffffffffffffffffffffffffffff166318160ddd6040518163ffffffff1660e01b8152600401602060405180830381865afa158015610432573d6000803e3d6000fd5b505050506040513d601f19601f8201168201806040525081019061045691906116a9565b905090565b610463611047565b61046b611047565b61047361106a565b6000600260008673ffffffffffffffffffffffffffffffffffffffff1673ffffffffffffffffffffffffffffffffffffffff16815260200190815260200160002090506104be611047565b6104c6611047565b6104ce61106a565b60005b600a811015610657576000856006016000838152602001908152602001600020600401540361051d5760008482600a811061050f5761050e6116d6565b5b602002018181525050610588565b846006016000828152602001908152602001600020600201548482600a8110610549576105486116d6565b5b602002018181525050846006016000828152602001908152602001600020600301548382600a811061057e5761057d6116d6565b5b6020020181815250505b84600601600082815260200190815260200160002060010180546105ab90611734565b80601f01602080910402602001604051908101604052809291908181526020018280546105d790611734565b80156106245780601f106105f957610100808354040283529160200191610624565b820191906000526020600020905b81548152906001019060200180831161060757829003601f168201915b50505050508282600a811061063c5761063b6116d6565b5b6020020181905250808061064f90611794565b9150506104d1565b50828282965096509650505050509193909250565b803414801561067b5750600081115b61068457600080fd5b6000600360003373ffffffffffffffffffffffffffffffffffffffff1673ffffffffffffffffffffffffffffffffffffffff16815260200190815260200160002090506000600260008573ffffffffffffffffffffffffffffffffffffffff1673ffffffffffffffffffffffffffffffffffffffff16815260200190815260200160002090508281600301600082825461071e91906117dc565b92505081905550600015158260010160008673ffffffffffffffffffffffffffffffffffffffff1673ffffffffffffffffffffffffffffffffffffffff16815260200190815260200160002060009054906101000a900460ff161515036107f65760018260010160008673ffffffffffffffffffffffffffffffffffffffff1673ffffffffffffffffffffffffffffffffffffffff16815260200190815260200160002060006101000a81548160ff02191690831515021790555060018160050160008282546107ee91906117dc565b925050819055505b61081333670de0b6b3a76400008561080e919061183f565b610e68565b50505050565b6000600260008473ffffffffffffffffffffffffffffffffffffffff1673ffffffffffffffffffffffffffffffffffffffff168152602001908152602001600020905060011515600360003373ffffffffffffffffffffffffffffffffffffffff1673ffffffffffffffffffffffffffffffffffffffff16815260200190815260200160002060010160008573ffffffffffffffffffffffffffffffffffffffff1673ffffffffffffffffffffffffffffffffffffffff16815260200190815260200160002060009054906101000a900460ff161515146108f957600080fd5b600061090433610fa3565b9050600183036109425780826006016000878152602001908152602001600020600201600082825461093691906117dc565b92505081905550610972565b80826006016000878152602001908152602001600020600301600082825461096a91906117dc565b925050819055505b6064604b61097e6103c4565b6109889190611870565b610992919061183f565b82600601600087815260200190815260200160002060030154836006016000888152602001908152602001600020600201546109ce91906117dc565b10610a64576001826006016000878152602001908152602001600020600401819055508373ffffffffffffffffffffffffffffffffffffffff166108fc670de0b6b3a764000084600601600089815260200190815260200160002060050154610a379190611870565b9081150290604051600060405180830381858888f19350505050158015610a62573d6000803e3d6000fd5b505b5050505050565b6000600260003373ffffffffffffffffffffffffffffffffffffffff1673ffffffffffffffffffffffffffffffffffffffff1681526020019081526020016000209050338160000160006101000a81548173ffffffffffffffffffffffffffffffffffffffff021916908373ffffffffffffffffffffffffffffffffffffffff1602179055508484826001019182610b04929190611a8e565b508282826002019182610b18929190611a8e565b506000816003018190555060008160050181905550600081600401819055505050505050565b600080600260008473ffffffffffffffffffffffffffffffffffffffff1673ffffffffffffffffffffffffffffffffffffffff16815260200190815260200160002090508060040154915050919050565b6000600360003373ffffffffffffffffffffffffffffffffffffffff1673ffffffffffffffffffffffffffffffffffffffff1681526020019081526020016000209050338160000160006101000a81548173ffffffffffffffffffffffffffffffffffffffff021916908373ffffffffffffffffffffffffffffffffffffffff16021790555050565b60008054906101000a900473ffffffffffffffffffffffffffffffffffffffff1681565b338480600260008473ffffffffffffffffffffffffffffffffffffffff1673ffffffffffffffffffffffffffffffffffffffff1681526020019081526020016000206003015411610cc2576040517f08c379a0000000000000000000000000000000000000000000000000000000008152600401610cb990611bbb565b60405180910390fd5b60008503610d29573373ffffffffffffffffffffffffffffffffffffffff166108fc670de0b6b3a764000088610cf89190611870565b9081150290604051600060405180830381858888f19350505050158015610d23573d6000803e3d6000fd5b50610e60565b6000600260003373ffffffffffffffffffffffffffffffffffffffff1673ffffffffffffffffffffffffffffffffffffffff1681526020019081526020016000209050806004015481600601600083600401548152602001908152602001600020600001819055508484826006016000846004015481526020019081526020016000206001019182610dbc929190611a8e565b50600081600601600083600401548152602001908152602001600020600201819055506000816006016000836004015481526020019081526020016000206003018190555060008160060160008360040154815260200190815260200160002060040181905550868160060160008360040154815260200190815260200160002060050181905550806004016000815480929190610e5990611794565b9190505550505b505050505050565b60008054906101000a900473ffffffffffffffffffffffffffffffffffffffff1673ffffffffffffffffffffffffffffffffffffffff166340c10f1983836040518363ffffffff1660e01b8152600401610ec3929190611bea565b600060405180830381600087803b158015610edd57600080fd5b505af1158015610ef1573d6000803e3d6000fd5b505050505050565b60008173ffffffffffffffffffffffffffffffffffffffff16600260008473ffffffffffffffffffffffffffffffffffffffff1673ffffffffffffffffffffffffffffffffffffffff16815260200190815260200160002060000160009054906101000a900473ffffffffffffffffffffffffffffffffffffffff1673ffffffffffffffffffffffffffffffffffffffff1603610f995760019050610f9e565b600090505b919050565b60008060009054906101000a900473ffffffffffffffffffffffffffffffffffffffff1673ffffffffffffffffffffffffffffffffffffffff166370a08231836040518263ffffffff1660e01b8152600401610fff9190611c13565b602060405180830381865afa15801561101c573d6000803e3d6000fd5b505050506040513d601f19601f8201168201806040525081019061104091906116a9565b9050919050565b604051806101400160405280600a90602082028036833780820191505090505090565b604051806101400160405280600a905b606081526020019060019003908161107a5790505090565b600080fd5b600080fd5b600073ffffffffffffffffffffffffffffffffffffffff82169050919050565b60006110c78261109c565b9050919050565b6110d7816110bc565b81146110e257600080fd5b50565b6000813590506110f4816110ce565b92915050565b6000602082840312156111105761110f611092565b5b600061111e848285016110e5565b91505092915050565b60008115159050919050565b61113c81611127565b82525050565b60006020820190506111576000830184611133565b92915050565b6000819050919050565b6111708161115d565b82525050565b600060208201905061118b6000830184611167565b92915050565b6000600a9050919050565b600081905092915050565b6000819050919050565b6111ba8161115d565b82525050565b60006111cc83836111b1565b60208301905092915050565b6000602082019050919050565b6111ee81611191565b6111f8818461119c565b9250611203826111a7565b8060005b8381101561123457815161121b87826111c0565b9650611226836111d8565b925050600181019050611207565b505050505050565b6000600a9050919050565b600081905092915050565b6000819050919050565b600081519050919050565b600082825260208201905092915050565b60005b8381101561129657808201518184015260208101905061127b565b60008484015250505050565b6000601f19601f8301169050919050565b60006112be8261125c565b6112c88185611267565b93506112d8818560208601611278565b6112e1816112a2565b840191505092915050565b60006112f883836112b3565b905092915050565b6000602082019050919050565b60006113188261123c565b6113228185611247565b93508360208202850161133485611252565b8060005b85811015611370578484038952815161135185826112ec565b945061135c83611300565b925060208a01995050600181019050611338565b50829750879550505050505092915050565b60006102a08201905061139860008301866111e5565b6113a66101408301856111e5565b8181036102808301526113b9818461130d565b9050949350505050565b6113cc8161115d565b81146113d757600080fd5b50565b6000813590506113e9816113c3565b92915050565b6000806040838503121561140657611405611092565b5b6000611414858286016110e5565b9250506020611425858286016113da565b9150509250929050565b600061143a8261109c565b9050919050565b61144a8161142f565b811461145557600080fd5b50565b60008135905061146781611441565b92915050565b60008060006060848603121561148657611485611092565b5b6000611494868287016113da565b93505060206114a586828701611458565b92505060406114b6868287016113da565b9150509250925092565b600080fd5b600080fd5b600080fd5b60008083601f8401126114e5576114e46114c0565b5b8235905067ffffffffffffffff811115611502576115016114c5565b5b60208301915083600182028301111561151e5761151d6114ca565b5b9250929050565b6000806000806040858703121561153f5761153e611092565b5b600085013567ffffffffffffffff81111561155d5761155c611097565b5b611569878288016114cf565b9450945050602085013567ffffffffffffffff81111561158c5761158b611097565b5b611598878288016114cf565b925092505092959194509250565b6000819050919050565b60006115cb6115c66115c18461109c565b6115a6565b61109c565b9050919050565b60006115dd826115b0565b9050919050565b60006115ef826115d2565b9050919050565b6115ff816115e4565b82525050565b600060208201905061161a60008301846115f6565b92915050565b6000806000806060858703121561163a57611639611092565b5b6000611648878288016113da565b9450506020611659878288016113da565b935050604085013567ffffffffffffffff81111561167a57611679611097565b5b611686878288016114cf565b925092505092959194509250565b6000815190506116a3816113c3565b92915050565b6000602082840312156116bf576116be611092565b5b60006116cd84828501611694565b91505092915050565b7f4e487b7100000000000000000000000000000000000000000000000000000000600052603260045260246000fd5b7f4e487b7100000000000000000000000000000000000000000000000000000000600052602260045260246000fd5b6000600282049050600182168061174c57607f821691505b60208210810361175f5761175e611705565b5b50919050565b7f4e487b7100000000000000000000000000000000000000000000000000000000600052601160045260246000fd5b600061179f8261115d565b91507fffffffffffffffffffffffffffffffffffffffffffffffffffffffffffffffff82036117d1576117d0611765565b5b600182019050919050565b60006117e78261115d565b91506117f28361115d565b925082820190508082111561180a57611809611765565b5b92915050565b7f4e487b7100000000000000000000000000000000000000000000000000000000600052601260045260246000fd5b600061184a8261115d565b91506118558361115d565b92508261186557611864611810565b5b828204905092915050565b600061187b8261115d565b91506118868361115d565b92508282026118948161115d565b915082820484148315176118ab576118aa611765565b5b5092915050565b600082905092915050565b7f4e487b7100000000000000000000000000000000000000000000000000000000600052604160045260246000fd5b60008190508160005260206000209050919050565b60006020601f8301049050919050565b600082821b905092915050565b60006008830261194e7fffffffffffffffffffffffffffffffffffffffffffffffffffffffffffffffff82611911565b6119588683611911565b95508019841693508086168417925050509392505050565b600061198b6119866119818461115d565b6115a6565b61115d565b9050919050565b6000819050919050565b6119a583611970565b6119b96119b182611992565b84845461191e565b825550505050565b600090565b6119ce6119c1565b6119d981848461199c565b505050565b5b818110156119fd576119f26000826119c6565b6001810190506119df565b5050565b601f821115611a4257611a13816118ec565b611a1c84611901565b81016020851015611a2b578190505b611a3f611a3785611901565b8301826119de565b50505b505050565b600082821c905092915050565b6000611a6560001984600802611a47565b1980831691505092915050565b6000611a7e8383611a54565b9150826002028217905092915050565b611a9883836118b2565b67ffffffffffffffff811115611ab157611ab06118bd565b5b611abb8254611734565b611ac6828285611a01565b6000601f831160018114611af55760008415611ae3578287013590505b611aed8582611a72565b865550611b55565b601f198416611b03866118ec565b60005b82811015611b2b57848901358255600182019150602085019450602081019050611b06565b86831015611b485784890135611b44601f891682611a54565b8355505b6001600288020188555050505b50505050505050565b600082825260208201905092915050565b7f4e6f7420656e6f7567682066756e647320696e20746865207075727365000000600082015250565b6000611ba5601d83611b5e565b9150611bb082611b6f565b602082019050919050565b60006020820190508181036000830152611bd481611b98565b9050919050565b611be4816110bc565b82525050565b6000604082019050611bff6000830185611bdb565b611c0c6020830184611167565b9392505050565b6000602082019050611c286000830184611bdb565b9291505056fea26469706673582212204806397b6406d4b8a8053c42803b3837a9aa39b3dbe283690fa39aa06b4ab86764736f6c63430008110033",
  "immutableReferences": {},
  "source": "// SPDX-License-Identifier: GPL-3.0\npragma solidity >=0.5.0 ;\n\nimport \"@openzeppelin/contracts/token/ERC20/ERC20.sol\";\nimport \"@openzeppelin/contracts/access/Ownable.sol\";\nimport \"@openzeppelin/contracts/token/ERC20/extensions/draft-ERC20Permit.sol\";\nimport \"@openzeppelin/contracts/token/ERC20/extensions/ERC20Votes.sol\";\nimport \"./faunacoin.sol\";\n\ncontract Cryptonate {\n    ///////////////////////// ALL STORAGE VARIABLES\n    // address fcAddr = 0xd9145CCE52D386f254917e481eB44e9943F39138;\n\n    Faunacoin public fc_ref;\n\n    constructor(Faunacoin faunacoinAddress) {\n        fc_ref = faunacoinAddress;\n    }\n\n    address payable cryptonateOwner;\n\n    // Holds details of each poll\n    struct Poll {\n        uint256 pollId;\n        string description;\n        uint256 approved;\n        uint256 disapproved;\n        uint256 state;\n        uint256 amount;\n    }\n\n    // Hold details of a single charity\n    struct Charity {\n        address payable _charity;\n        string name;\n        string description;\n        uint256 funds;\n        uint256 numPolls;\n        uint256 numDonors;\n        mapping(uint256 => Poll) polls;\n    }\n\n    // Hold details of all charities\n    mapping(address => Charity) allCharities;\n\n    // Hold details of a donor\n    struct Donor {\n        address _donor;\n        mapping(address => bool) charities;\n    }\n\n    // Hold all donors\n    mapping(address => Donor) allDonors;\n\n    ///////////////////////// MODIFIERS\n\n    modifier validateRequest(address sender, uint256 amount) {\n        require(\n            allCharities[sender].funds > amount,\n            \"Not enough funds in the purse\"\n        );\n        _;\n    }\n\n    ///////////////////////// INIT FUNCTIONS\n    function getBalance(address donorAddr) public view returns (uint256) {\n        return fc_ref.balanceOf(donorAddr);\n    }\n\n    function mintTokens(address donorAddr, uint256 amount) public {\n        fc_ref.mint(donorAddr, amount);\n    }\n\n    function totalSupply() public view returns (uint256) {\n        return fc_ref.totalSupply();\n    }\n\n    // Register a charity\n    function registerCharity(string calldata name, string calldata description)\n        public\n    {\n        Charity storage c = allCharities[payable(msg.sender)];\n        c._charity = payable(msg.sender);\n        c.name = name;\n        c.description = description;\n        c.funds = 0;\n        c.numDonors = 0;\n        c.numPolls = 0;\n    }\n\n    // Register a donor\n    function registerDonor() public {\n        Donor storage d = allDonors[msg.sender];\n        d._donor = msg.sender;\n    }\n\n    function registerDonation(address charityAddress, uint256 amount)\n        public\n        payable\n    {\n        require(msg.value == amount && amount > 0);\n\n        // Add charity to the donor's list\n        Donor storage d = allDonors[msg.sender];\n\n        // Add amount to charity's purse\n        Charity storage c = allCharities[charityAddress];\n        c.funds += amount;\n\n        // This is to check if the donor should be allowed to respond to a poll by this charity\n        if (d.charities[charityAddress] == false) {\n            d.charities[charityAddress] = true;\n            c.numDonors += 1;\n        }\n\n        //TODO: Send tokens to the donor\n\n        // Give tokens to the donor\n        mintTokens(msg.sender, amount / 1000000000000000000);\n    }\n\n    // Create a new poll or transfer funds in case of opex\n    function requestFunds(\n        uint256 amount,\n        uint256 expenseType,\n        string calldata description\n    ) public payable validateRequest(msg.sender, amount) {\n        if (expenseType == 0) {\n            // Send funds\n            payable(msg.sender).transfer(amount * 1000000000000000000);\n        } else {\n            Charity storage c = allCharities[msg.sender];\n            c.polls[c.numPolls].pollId = c.numPolls;\n            c.polls[c.numPolls].description = description;\n            c.polls[c.numPolls].approved = 0;\n            c.polls[c.numPolls].disapproved = 0;\n            c.polls[c.numPolls].state = 0;\n            c.polls[c.numPolls].amount = amount;\n            c.numPolls++;\n        }\n    }\n\n    // Register donor's vote\n    function vote(\n        uint256 pollId,\n        address payable charityAddress,\n        uint256 voteType\n    ) public {\n        // Add user's vote\n        Charity storage c = allCharities[charityAddress];\n        // Check if this donor has donated to this charity\n        require(allDonors[msg.sender].charities[charityAddress] == true);\n\n        // TODO: Get the donors token balance to decide the weight of their vote.\n        // TODO: Change\n        uint256 balance = getBalance(msg.sender);\n\n        if (voteType == 1) {\n            c.polls[pollId].approved += balance;\n        } else {\n            c.polls[pollId].disapproved += balance;\n        }\n        if (\n            c.polls[pollId].approved + c.polls[pollId].disapproved >=\n            (totalSupply() * 75) / 100\n        ) {\n            c.polls[pollId].state = 1;\n            payable(charityAddress).transfer(\n                c.polls[pollId].amount * 1000000000000000000\n            );\n        }\n    }\n\n    // User login\n    function checkValidDonor(address key) public view returns (bool) {\n        if (allDonors[key]._donor == key) {\n            return true;\n        } else {\n            return false;\n        }\n    }\n\n    function checkValidCharity(address key) public view returns (bool) {\n        if (allCharities[key]._charity == key) {\n            return true;\n        } else {\n            return false;\n        }\n    }\n\n    // Get last 10 polls of an organization with description, approved and disapproved vote counts\n    function getPolls(address charityAddress)\n        public\n        view\n        returns (\n            uint256[10] memory,\n            uint256[10] memory,\n            string[10] memory\n        )\n    {\n        Charity storage c = allCharities[charityAddress];\n        uint256[10] memory approved;\n        uint256[10] memory disapproved;\n        string[10] memory descriptions;\n\n        for (uint256 i = 0; i < 10; i++) {\n            if (c.polls[i].state == 0) {\n                approved[i] = 0;\n            } else {\n                approved[i] = c.polls[i].approved;\n                disapproved[i] = c.polls[i].disapproved;\n            }\n            descriptions[i] = c.polls[i].description;\n        }\n        return (approved, disapproved, descriptions);\n    }\n\n    // Get the current number of polls of a given organisation\n    function getNumPolls(address charityAddress) public view returns (uint256) {\n        Charity storage c = allCharities[charityAddress];\n        return c.numPolls;\n    }\n}\n",
  "sourcePath": "/Users/tanvikarennavar/Desktop/blockchain/cryptonate-contract/contracts/Cryptonate.sol",
  "compiler": {
    "name": "solc",
    "version": "0.8.17+commit.8df45f5f.Emscripten.clang"
  },
  "schemaVersion": "3.4.10",
  "updatedAt": "2022-12-08T00:57:50.047Z",
  "networkType": "ethereum",
  "devdoc": {
    "kind": "dev",
    "methods": {},
    "version": 1
  },
  "userdoc": {
    "kind": "user",
    "methods": {},
    "version": 1
  }
}