{
  "contractName": "Cryptonate",
  "abi": [
    {
      "inputs": [],
      "stateMutability": "nonpayable",
      "type": "constructor"
    },
    {
      "inputs": [
        {
          "internalType": "string",
          "name": "name",
          "type": "string"
        },
        {
          "internalType": "string",
          "name": "description",
          "type": "string"
        }
      ],
      "name": "registerCharity",
      "outputs": [],
      "stateMutability": "nonpayable",
      "type": "function"
    },
    {
      "inputs": [],
      "name": "registerDonor",
      "outputs": [],
      "stateMutability": "nonpayable",
      "type": "function"
    },
    {
      "inputs": [
        {
          "internalType": "address",
          "name": "charityAddress",
          "type": "address"
        },
        {
          "internalType": "uint256",
          "name": "amount",
          "type": "uint256"
        }
      ],
      "name": "registerDonation",
      "outputs": [],
      "stateMutability": "payable",
      "type": "function",
      "payable": true
    },
    {
      "inputs": [],
      "name": "donate",
      "outputs": [],
      "stateMutability": "payable",
      "type": "function",
      "payable": true
    },
    {
      "inputs": [
        {
          "internalType": "uint256",
          "name": "amount",
          "type": "uint256"
        },
        {
          "internalType": "uint256",
          "name": "expenseType",
          "type": "uint256"
        },
        {
          "internalType": "string",
          "name": "description",
          "type": "string"
        }
      ],
      "name": "requestFunds",
      "outputs": [],
      "stateMutability": "payable",
      "type": "function",
      "payable": true
    },
    {
      "inputs": [
        {
          "internalType": "uint256",
          "name": "pollId",
          "type": "uint256"
        },
        {
          "internalType": "address payable",
          "name": "charity",
          "type": "address"
        },
        {
          "internalType": "int256",
          "name": "voteType",
          "type": "int256"
        }
      ],
      "name": "vote",
      "outputs": [],
      "stateMutability": "nonpayable",
      "type": "function"
    },
    {
      "inputs": [
        {
          "internalType": "address",
          "name": "key",
          "type": "address"
        }
      ],
      "name": "checkValidDonor",
      "outputs": [
        {
          "internalType": "bool",
          "name": "",
          "type": "bool"
        }
      ],
      "stateMutability": "view",
      "type": "function",
      "constant": true
    },
    {
      "inputs": [
        {
          "internalType": "address",
          "name": "key",
          "type": "address"
        }
      ],
      "name": "checkValidCharity",
      "outputs": [
        {
          "internalType": "bool",
          "name": "",
          "type": "bool"
        }
      ],
      "stateMutability": "view",
      "type": "function",
      "constant": true
    }
  ],
  "bytecode": "0x608060405234801561001057600080fd5b5033600360006101000a81548173ffffffffffffffffffffffffffffffffffffffff021916908373ffffffffffffffffffffffffffffffffffffffff160217905550611138806100616000396000f3fe60806040526004361061007b5760003560e01c8063b134a4871161004e578063b134a48714610119578063e8a568fa14610142578063ed88c68e1461015e578063f1be929e146101685761007b565b8063144599f2146100805780633c49dde4146100bd57806351e73887146100d9578063aa810f3614610102575b600080fd5b34801561008c57600080fd5b506100a760048036038101906100a291906108d0565b6101a5565b6040516100b49190610918565b60405180910390f35b6100d760048036038101906100d29190610969565b61024f565b005b3480156100e557600080fd5b5061010060048036038101906100fb9190610a0e565b610368565b005b34801561010e57600080fd5b50610117610431565b005b34801561012557600080fd5b50610140600480360381019061013b9190610b03565b6104ba565b005b61015c60048036038101906101579190610b56565b61056d565b005b6101666106ed565b005b34801561017457600080fd5b5061018f600480360381019061018a91906108d0565b6107be565b60405161019c9190610918565b60405180910390f35b60008173ffffffffffffffffffffffffffffffffffffffff16600260008473ffffffffffffffffffffffffffffffffffffffff1673ffffffffffffffffffffffffffffffffffffffff16815260200190815260200160002060000160009054906101000a900473ffffffffffffffffffffffffffffffffffffffff1673ffffffffffffffffffffffffffffffffffffffff1603610245576001905061024a565b600090505b919050565b803414801561025e5750600081115b61026757600080fd5b6000600260003373ffffffffffffffffffffffffffffffffffffffff1673ffffffffffffffffffffffffffffffffffffffff168152602001908152602001600020905060018160010160008573ffffffffffffffffffffffffffffffffffffffff1673ffffffffffffffffffffffffffffffffffffffff16815260200190815260200160002060006101000a81548160ff0219169083151502179055506000600160008573ffffffffffffffffffffffffffffffffffffffff1673ffffffffffffffffffffffffffffffffffffffff16815260200190815260200160002090508281600301600082825461035b9190610bf9565b9250508190555050505050565b6000600160003373ffffffffffffffffffffffffffffffffffffffff1673ffffffffffffffffffffffffffffffffffffffff1681526020019081526020016000209050338160000160006101000a81548173ffffffffffffffffffffffffffffffffffffffff021916908373ffffffffffffffffffffffffffffffffffffffff1602179055508484826001019182610401929190610e73565b508282826002019182610415929190610e73565b5060008160030181905550600081600401819055505050505050565b6000600260003373ffffffffffffffffffffffffffffffffffffffff1673ffffffffffffffffffffffffffffffffffffffff1681526020019081526020016000209050338160000160006101000a81548173ffffffffffffffffffffffffffffffffffffffff021916908373ffffffffffffffffffffffffffffffffffffffff16021790555050565b6000600160008473ffffffffffffffffffffffffffffffffffffffff1673ffffffffffffffffffffffffffffffffffffffff16815260200190815260200160002090506001820361053857806005016000858152602001908152602001600020600201600081548092919061052e90610f43565b9190505550610567565b806005016000858152602001908152602001600020600301600081548092919061056190610f43565b91905055505b50505050565b338480600160008473ffffffffffffffffffffffffffffffffffffffff1673ffffffffffffffffffffffffffffffffffffffff16815260200190815260200160002060030154116105f3576040517f08c379a00000000000000000000000000000000000000000000000000000000081526004016105ea90610fe8565b60405180910390fd5b60008503610647573373ffffffffffffffffffffffffffffffffffffffff166108fc879081150290604051600060405180830381858888f19350505050158015610641573d6000803e3d6000fd5b506106e5565b6000600160003373ffffffffffffffffffffffffffffffffffffffff1673ffffffffffffffffffffffffffffffffffffffff168152602001908152602001600020905080600401600081548092919061069f90611008565b919050555060008160050160008360040154815260200190815260200160002090508160040154816000018190555085858260010191826106e1929190610e73565b5050505b505050505050565b6000600360009054906101000a900473ffffffffffffffffffffffffffffffffffffffff1673ffffffffffffffffffffffffffffffffffffffff163460405161073590611081565b60006040518083038185875af1925050503d8060008114610772576040519150601f19603f3d011682016040523d82523d6000602084013e610777565b606091505b50509050806107bb576040517f08c379a00000000000000000000000000000000000000000000000000000000081526004016107b2906110e2565b60405180910390fd5b50565b60008173ffffffffffffffffffffffffffffffffffffffff16600160008473ffffffffffffffffffffffffffffffffffffffff1673ffffffffffffffffffffffffffffffffffffffff16815260200190815260200160002060000160009054906101000a900473ffffffffffffffffffffffffffffffffffffffff1673ffffffffffffffffffffffffffffffffffffffff160361085e5760019050610863565b600090505b919050565b600080fd5b600080fd5b600073ffffffffffffffffffffffffffffffffffffffff82169050919050565b600061089d82610872565b9050919050565b6108ad81610892565b81146108b857600080fd5b50565b6000813590506108ca816108a4565b92915050565b6000602082840312156108e6576108e5610868565b5b60006108f4848285016108bb565b91505092915050565b60008115159050919050565b610912816108fd565b82525050565b600060208201905061092d6000830184610909565b92915050565b6000819050919050565b61094681610933565b811461095157600080fd5b50565b6000813590506109638161093d565b92915050565b600080604083850312156109805761097f610868565b5b600061098e858286016108bb565b925050602061099f85828601610954565b9150509250929050565b600080fd5b600080fd5b600080fd5b60008083601f8401126109ce576109cd6109a9565b5b8235905067ffffffffffffffff8111156109eb576109ea6109ae565b5b602083019150836001820283011115610a0757610a066109b3565b5b9250929050565b60008060008060408587031215610a2857610a27610868565b5b600085013567ffffffffffffffff811115610a4657610a4561086d565b5b610a52878288016109b8565b9450945050602085013567ffffffffffffffff811115610a7557610a7461086d565b5b610a81878288016109b8565b925092505092959194509250565b6000610a9a82610872565b9050919050565b610aaa81610a8f565b8114610ab557600080fd5b50565b600081359050610ac781610aa1565b92915050565b6000819050919050565b610ae081610acd565b8114610aeb57600080fd5b50565b600081359050610afd81610ad7565b92915050565b600080600060608486031215610b1c57610b1b610868565b5b6000610b2a86828701610954565b9350506020610b3b86828701610ab8565b9250506040610b4c86828701610aee565b9150509250925092565b60008060008060608587031215610b7057610b6f610868565b5b6000610b7e87828801610954565b9450506020610b8f87828801610954565b935050604085013567ffffffffffffffff811115610bb057610baf61086d565b5b610bbc878288016109b8565b925092505092959194509250565b7f4e487b7100000000000000000000000000000000000000000000000000000000600052601160045260246000fd5b6000610c0482610933565b9150610c0f83610933565b9250828201905080821115610c2757610c26610bca565b5b92915050565b600082905092915050565b7f4e487b7100000000000000000000000000000000000000000000000000000000600052604160045260246000fd5b7f4e487b7100000000000000000000000000000000000000000000000000000000600052602260045260246000fd5b60006002820490506001821680610cae57607f821691505b602082108103610cc157610cc0610c67565b5b50919050565b60008190508160005260206000209050919050565b60006020601f8301049050919050565b600082821b905092915050565b600060088302610d297fffffffffffffffffffffffffffffffffffffffffffffffffffffffffffffffff82610cec565b610d338683610cec565b95508019841693508086168417925050509392505050565b6000819050919050565b6000610d70610d6b610d6684610933565b610d4b565b610933565b9050919050565b6000819050919050565b610d8a83610d55565b610d9e610d9682610d77565b848454610cf9565b825550505050565b600090565b610db3610da6565b610dbe818484610d81565b505050565b5b81811015610de257610dd7600082610dab565b600181019050610dc4565b5050565b601f821115610e2757610df881610cc7565b610e0184610cdc565b81016020851015610e10578190505b610e24610e1c85610cdc565b830182610dc3565b50505b505050565b600082821c905092915050565b6000610e4a60001984600802610e2c565b1980831691505092915050565b6000610e638383610e39565b9150826002028217905092915050565b610e7d8383610c2d565b67ffffffffffffffff811115610e9657610e95610c38565b5b610ea08254610c96565b610eab828285610de6565b6000601f831160018114610eda5760008415610ec8578287013590505b610ed28582610e57565b865550610f3a565b601f198416610ee886610cc7565b60005b82811015610f1057848901358255600182019150602085019450602081019050610eeb565b86831015610f2d5784890135610f29601f891682610e39565b8355505b6001600288020188555050505b50505050505050565b6000610f4e82610acd565b91507f7fffffffffffffffffffffffffffffffffffffffffffffffffffffffffffffff8203610f8057610f7f610bca565b5b600182019050919050565b600082825260208201905092915050565b7f4e6f7420656e6f7567682066756e647320696e20746865207075727365000000600082015250565b6000610fd2601d83610f8b565b9150610fdd82610f9c565b602082019050919050565b6000602082019050818103600083015261100181610fc5565b9050919050565b600061101382610933565b91507fffffffffffffffffffffffffffffffffffffffffffffffffffffffffffffffff820361104557611044610bca565b5b600182019050919050565b600081905092915050565b50565b600061106b600083611050565b91506110768261105b565b600082019050919050565b600061108c8261105e565b9150819050919050565b7f4661696c656420746f2073656e64206d6f6e6579000000000000000000000000600082015250565b60006110cc601483610f8b565b91506110d782611096565b602082019050919050565b600060208201905081810360008301526110fb816110bf565b905091905056fea2646970667358221220774780b5a2d2364ff066840bda75c3ce7fd223922d5baf8ab6565ed849912f0964736f6c63430008110033",
  "immutableReferences": {},
  "source": "// SPDX-License-Identifier: GPL-3.0\npragma solidity >=0.7.0 <0.9.0;\n\ncontract Cryptonate {\n    address payable cryptonateOwner;\n\n    // Holds details of each poll\n    struct Poll {\n        uint256 pollId;\n        string description;\n        int256 approved;\n        int256 disapproved;\n    }\n\n    // Hold details of a single charity\n    struct Charity {\n        address payable _charity;\n        string name;\n        string description;\n        uint256 funds;\n        uint256 numPolls;\n        mapping(uint256 => Poll) polls;\n    }\n\n    // Hold details of all charities\n    mapping(address => Charity) allCharities;\n\n    // Hold details of a donor\n    struct Donor {\n        address _donor;\n        mapping(address => bool) charities;\n    }\n\n    // Hold all donors\n    mapping(address => Donor) allDonors;\n\n    modifier validateRequest(address sender, uint256 amount) {\n        require(\n            allCharities[sender].funds > amount,\n            \"Not enough funds in the purse\"\n        );\n        _;\n    }\n\n    // Register a charity\n    function registerCharity(string calldata name, string calldata description)\n        public\n    {\n        Charity storage c = allCharities[payable(msg.sender)];\n        c._charity = payable(msg.sender);\n        c.name = name;\n        c.description = description;\n        c.funds = 0;\n        c.numPolls = 0;\n    }\n\n    // Register a donor\n    function registerDonor() public {\n        Donor storage d = allDonors[msg.sender];\n        d._donor = msg.sender;\n    }\n\n    function registerDonation(address charityAddress, uint256 amount)\n        public\n        payable\n    {\n        require(msg.value == amount && amount > 0);\n\n        // Add charity to the donor's list\n        Donor storage d = allDonors[msg.sender];\n        // This is to check if the donor should be allowed to respond to a poll by this charity\n        d.charities[charityAddress] = true;\n\n        // Add amount to charity's purse\n        Charity storage c = allCharities[charityAddress];\n        c.funds += amount;\n    }\n\n    address payable owner; // contract creator's address\n\n    //contract settings\n    constructor() {\n        owner = payable(msg.sender); // setting the contract creator\n    }\n    function donate() public payable {\n        (bool success,) = owner.call{value: msg.value}(\"\");\n        require(success, \"Failed to send money\");\n    }\n    // Transfer funds both opex and capex\n    function requestFunds(\n        uint256 amount,\n        uint256 expenseType,\n        string calldata description\n    ) public payable validateRequest(msg.sender, amount) {\n        if (expenseType == 0) {\n            // Send funds\n            payable(msg.sender).transfer(amount);\n            \n        } else {\n            Charity storage c = allCharities[msg.sender];\n            c.numPolls++;\n            Poll storage p = c.polls[c.numPolls];\n            p.pollId = c.numPolls;\n            p.description = description;\n        }\n    }\n\n    function vote(\n        uint256 pollId,\n        address payable charity,\n        int256 voteType\n    ) public {\n        // Add user's vote\n        Charity storage c = allCharities[charity];\n        if (voteType == 1) {\n            c.polls[pollId].approved++;\n        } else {\n            c.polls[pollId].disapproved++;\n        }\n    }\n\n    function checkValidDonor(address key) public view returns (bool) {\n        if (allDonors[key]._donor == key) {\n            return true;\n        } else {\n            return false;\n        }\n    }\n\n    function checkValidCharity(address key) public view returns (bool) {\n        if (allCharities[key]._charity == key) {\n            return true;\n        } else {\n            return false;\n        }\n    }\n}\n",
  "sourcePath": "/Users/tanvikarennavar/blockchain/cryptonate-contract/contracts/Cryptonate.sol",
  "compiler": {
    "name": "solc",
    "version": "0.8.17+commit.8df45f5f.Emscripten.clang"
  },
  "schemaVersion": "3.4.10",
  "updatedAt": "2022-11-14T22:15:22.039Z",
  "networkType": "ethereum",
  "devdoc": {
    "kind": "dev",
    "methods": {},
    "version": 1
  },
  "userdoc": {
    "kind": "user",
    "methods": {},
    "version": 1
  }
}