{
  "contractName": "Cryptonate",
  "abi": [
    {
      "inputs": [
        {
          "internalType": "contract Faunacoin",
          "name": "faunacoinAddress",
          "type": "address"
        }
      ],
      "stateMutability": "nonpayable",
      "type": "constructor"
    },
    {
      "inputs": [],
      "name": "fc_ref",
      "outputs": [
        {
          "internalType": "contract Faunacoin",
          "name": "",
          "type": "address"
        }
      ],
      "stateMutability": "view",
      "type": "function",
      "constant": true
    },
    {
      "inputs": [
        {
          "internalType": "address",
          "name": "donorAddr",
          "type": "address"
        }
      ],
      "name": "getBalance",
      "outputs": [
        {
          "internalType": "uint256",
          "name": "",
          "type": "uint256"
        }
      ],
      "stateMutability": "view",
      "type": "function",
      "constant": true
    },
    {
      "inputs": [
        {
          "internalType": "address",
          "name": "donorAddr",
          "type": "address"
        },
        {
          "internalType": "uint256",
          "name": "amount",
          "type": "uint256"
        }
      ],
      "name": "mintTokens",
      "outputs": [],
      "stateMutability": "nonpayable",
      "type": "function"
    },
    {
      "inputs": [],
      "name": "totalSupply",
      "outputs": [
        {
          "internalType": "uint256",
          "name": "",
          "type": "uint256"
        }
      ],
      "stateMutability": "view",
      "type": "function",
      "constant": true
    },
    {
      "inputs": [
        {
          "internalType": "string",
          "name": "name",
          "type": "string"
        },
        {
          "internalType": "string",
          "name": "description",
          "type": "string"
        }
      ],
      "name": "registerCharity",
      "outputs": [],
      "stateMutability": "nonpayable",
      "type": "function"
    },
    {
      "inputs": [],
      "name": "registerDonor",
      "outputs": [],
      "stateMutability": "nonpayable",
      "type": "function"
    },
    {
      "inputs": [
        {
          "internalType": "address",
          "name": "charityAddress",
          "type": "address"
        },
        {
          "internalType": "uint256",
          "name": "amount",
          "type": "uint256"
        }
      ],
      "name": "registerDonation",
      "outputs": [],
      "stateMutability": "payable",
      "type": "function",
      "payable": true
    },
    {
      "inputs": [
        {
          "internalType": "uint256",
          "name": "amount",
          "type": "uint256"
        },
        {
          "internalType": "uint256",
          "name": "expenseType",
          "type": "uint256"
        },
        {
          "internalType": "string",
          "name": "description",
          "type": "string"
        }
      ],
      "name": "requestFunds",
      "outputs": [],
      "stateMutability": "payable",
      "type": "function",
      "payable": true
    },
    {
      "inputs": [
        {
          "internalType": "uint256",
          "name": "pollId",
          "type": "uint256"
        },
        {
          "internalType": "address payable",
          "name": "charityAddress",
          "type": "address"
        },
        {
          "internalType": "uint256",
          "name": "voteType",
          "type": "uint256"
        }
      ],
      "name": "vote",
      "outputs": [],
      "stateMutability": "nonpayable",
      "type": "function"
    },
    {
      "inputs": [
        {
          "internalType": "address",
          "name": "key",
          "type": "address"
        }
      ],
      "name": "checkValidDonor",
      "outputs": [
        {
          "internalType": "bool",
          "name": "",
          "type": "bool"
        }
      ],
      "stateMutability": "view",
      "type": "function",
      "constant": true
    },
    {
      "inputs": [
        {
          "internalType": "address",
          "name": "key",
          "type": "address"
        }
      ],
      "name": "checkValidCharity",
      "outputs": [
        {
          "internalType": "bool",
          "name": "",
          "type": "bool"
        }
      ],
      "stateMutability": "view",
      "type": "function",
      "constant": true
    },
    {
      "inputs": [
        {
          "internalType": "address",
          "name": "charityAddress",
          "type": "address"
        }
      ],
      "name": "getPolls",
      "outputs": [
        {
          "internalType": "uint256[10]",
          "name": "",
          "type": "uint256[10]"
        },
        {
          "internalType": "string[10]",
          "name": "",
          "type": "string[10]"
        },
        {
          "internalType": "uint256",
          "name": "",
          "type": "uint256"
        }
      ],
      "stateMutability": "view",
      "type": "function",
      "constant": true
    },
    {
      "inputs": [
        {
          "internalType": "address",
          "name": "charityAddress",
          "type": "address"
        }
      ],
      "name": "getNumPolls",
      "outputs": [
        {
          "internalType": "uint256",
          "name": "",
          "type": "uint256"
        }
      ],
      "stateMutability": "view",
      "type": "function",
      "constant": true
    }
  ],
  "bytecode": "0x60806040523480156200001157600080fd5b5060405162001d2938038062001d298339818101604052810190620000379190620000fc565b806000806101000a81548173ffffffffffffffffffffffffffffffffffffffff021916908373ffffffffffffffffffffffffffffffffffffffff160217905550506200012e565b600080fd5b600073ffffffffffffffffffffffffffffffffffffffff82169050919050565b6000620000b08262000083565b9050919050565b6000620000c482620000a3565b9050919050565b620000d681620000b7565b8114620000e257600080fd5b50565b600081519050620000f681620000cb565b92915050565b6000602082840312156200011557620001146200007e565b5b60006200012584828501620000e5565b91505092915050565b611beb806200013e6000396000f3fe6080604052600436106100c25760003560e01c806392f92fb01161007f578063e8a568fa11610059578063e8a568fa1461025b578063f0dda65c14610277578063f1be929e146102a0578063f8b2cb4f146102dd576100c2565b806392f92fb0146101dc578063aa810f3614610219578063bbb27cee14610230576100c2565b8063144599f2146100c757806318160ddd14610104578063310b7eb21461012f5780633c49dde41461016e5780634de8737c1461018a57806351e73887146101b3575b600080fd5b3480156100d357600080fd5b506100ee60048036038101906100e99190611081565b61031a565b6040516100fb91906110c9565b60405180910390f35b34801561011057600080fd5b506101196103c4565b60405161012691906110fd565b60405180910390f35b34801561013b57600080fd5b5061015660048036038101906101519190611081565b61045b565b60405161016593929190611309565b60405180910390f35b61018860048036038101906101839190611376565b6105f3565b005b34801561019657600080fd5b506101b160048036038101906101ac91906113f4565b6107a0565b005b3480156101bf57600080fd5b506101da60048036038101906101d591906114ac565b6109f2565b005b3480156101e857600080fd5b5061020360048036038101906101fe9190611081565b610ac5565b60405161021091906110fd565b60405180910390f35b34801561022557600080fd5b5061022e610b16565b005b34801561023c57600080fd5b50610245610b9f565b604051610252919061158c565b60405180910390f35b610275600480360381019061027091906115a7565b610bc3565b005b34801561028357600080fd5b5061029e60048036038101906102999190611376565b610def565b005b3480156102ac57600080fd5b506102c760048036038101906102c29190611081565b610e80565b6040516102d491906110c9565b60405180910390f35b3480156102e957600080fd5b5061030460048036038101906102ff9190611081565b610f2a565b60405161031191906110fd565b60405180910390f35b60008173ffffffffffffffffffffffffffffffffffffffff16600360008473ffffffffffffffffffffffffffffffffffffffff1673ffffffffffffffffffffffffffffffffffffffff16815260200190815260200160002060000160009054906101000a900473ffffffffffffffffffffffffffffffffffffffff1673ffffffffffffffffffffffffffffffffffffffff16036103ba57600190506103bf565b600090505b919050565b60008060009054906101000a900473ffffffffffffffffffffffffffffffffffffffff1673ffffffffffffffffffffffffffffffffffffffff166318160ddd6040518163ffffffff1660e01b8152600401602060405180830381865afa158015610432573d6000803e3d6000fd5b505050506040513d601f19601f820116820180604052508101906104569190611630565b905090565b610463610fce565b61046b610ff1565b600080600260008673ffffffffffffffffffffffffffffffffffffffff1673ffffffffffffffffffffffffffffffffffffffff16815260200190815260200160002090506104b7610fce565b6104bf610ff1565b600080600090505b600a8110156105de57846006016000828152602001908152602001600020600201548482600a81106104fc576104fb61165d565b5b60200201818152505061050d6103c4565b91508460060160008281526020019081526020016000206001018054610532906116bb565b80601f016020809104026020016040519081016040528092919081815260200182805461055e906116bb565b80156105ab5780601f10610580576101008083540402835291602001916105ab565b820191906000526020600020905b81548152906001019060200180831161058e57829003601f168201915b50505050508382600a81106105c3576105c261165d565b5b602002018190525080806105d69061171b565b9150506104c7565b50828282965096509650505050509193909250565b80341480156106025750600081115b61060b57600080fd5b6000600360003373ffffffffffffffffffffffffffffffffffffffff1673ffffffffffffffffffffffffffffffffffffffff16815260200190815260200160002090506000600260008573ffffffffffffffffffffffffffffffffffffffff1673ffffffffffffffffffffffffffffffffffffffff1681526020019081526020016000209050828160030160008282546106a59190611763565b92505081905550600015158260010160008673ffffffffffffffffffffffffffffffffffffffff1673ffffffffffffffffffffffffffffffffffffffff16815260200190815260200160002060009054906101000a900460ff1615150361077d5760018260010160008673ffffffffffffffffffffffffffffffffffffffff1673ffffffffffffffffffffffffffffffffffffffff16815260200190815260200160002060006101000a81548160ff02191690831515021790555060018160050160008282546107759190611763565b925050819055505b61079a33670de0b6b3a76400008561079591906117c6565b610def565b50505050565b6000600260008473ffffffffffffffffffffffffffffffffffffffff1673ffffffffffffffffffffffffffffffffffffffff168152602001908152602001600020905060011515600360003373ffffffffffffffffffffffffffffffffffffffff1673ffffffffffffffffffffffffffffffffffffffff16815260200190815260200160002060010160008573ffffffffffffffffffffffffffffffffffffffff1673ffffffffffffffffffffffffffffffffffffffff16815260200190815260200160002060009054906101000a900460ff1615151461088057600080fd5b600061088b33610f2a565b9050600183036108c9578082600601600087815260200190815260200160002060020160008282546108bd9190611763565b925050819055506108f9565b8082600601600087815260200190815260200160002060030160008282546108f19190611763565b925050819055505b6064604b6109056103c4565b61090f91906117f7565b61091991906117c6565b82600601600087815260200190815260200160002060030154836006016000888152602001908152602001600020600201546109559190611763565b106109eb576001826006016000878152602001908152602001600020600401819055508373ffffffffffffffffffffffffffffffffffffffff166108fc670de0b6b3a7640000846006016000898152602001908152602001600020600501546109be91906117f7565b9081150290604051600060405180830381858888f193505050501580156109e9573d6000803e3d6000fd5b505b5050505050565b6000600260003373ffffffffffffffffffffffffffffffffffffffff1673ffffffffffffffffffffffffffffffffffffffff1681526020019081526020016000209050338160000160006101000a81548173ffffffffffffffffffffffffffffffffffffffff021916908373ffffffffffffffffffffffffffffffffffffffff1602179055508484826001019182610a8b929190611a15565b508282826002019182610a9f929190611a15565b506000816003018190555060008160050181905550600081600401819055505050505050565b600080600260008473ffffffffffffffffffffffffffffffffffffffff1673ffffffffffffffffffffffffffffffffffffffff16815260200190815260200160002090508060040154915050919050565b6000600360003373ffffffffffffffffffffffffffffffffffffffff1673ffffffffffffffffffffffffffffffffffffffff1681526020019081526020016000209050338160000160006101000a81548173ffffffffffffffffffffffffffffffffffffffff021916908373ffffffffffffffffffffffffffffffffffffffff16021790555050565b60008054906101000a900473ffffffffffffffffffffffffffffffffffffffff1681565b338480600260008473ffffffffffffffffffffffffffffffffffffffff1673ffffffffffffffffffffffffffffffffffffffff1681526020019081526020016000206003015411610c49576040517f08c379a0000000000000000000000000000000000000000000000000000000008152600401610c4090611b42565b60405180910390fd5b60008503610cb0573373ffffffffffffffffffffffffffffffffffffffff166108fc670de0b6b3a764000088610c7f91906117f7565b9081150290604051600060405180830381858888f19350505050158015610caa573d6000803e3d6000fd5b50610de7565b6000600260003373ffffffffffffffffffffffffffffffffffffffff1673ffffffffffffffffffffffffffffffffffffffff1681526020019081526020016000209050806004015481600601600083600401548152602001908152602001600020600001819055508484826006016000846004015481526020019081526020016000206001019182610d43929190611a15565b50600081600601600083600401548152602001908152602001600020600201819055506000816006016000836004015481526020019081526020016000206003018190555060008160060160008360040154815260200190815260200160002060040181905550868160060160008360040154815260200190815260200160002060050181905550806004016000815480929190610de09061171b565b9190505550505b505050505050565b60008054906101000a900473ffffffffffffffffffffffffffffffffffffffff1673ffffffffffffffffffffffffffffffffffffffff166340c10f1983836040518363ffffffff1660e01b8152600401610e4a929190611b71565b600060405180830381600087803b158015610e6457600080fd5b505af1158015610e78573d6000803e3d6000fd5b505050505050565b60008173ffffffffffffffffffffffffffffffffffffffff16600260008473ffffffffffffffffffffffffffffffffffffffff1673ffffffffffffffffffffffffffffffffffffffff16815260200190815260200160002060000160009054906101000a900473ffffffffffffffffffffffffffffffffffffffff1673ffffffffffffffffffffffffffffffffffffffff1603610f205760019050610f25565b600090505b919050565b60008060009054906101000a900473ffffffffffffffffffffffffffffffffffffffff1673ffffffffffffffffffffffffffffffffffffffff166370a08231836040518263ffffffff1660e01b8152600401610f869190611b9a565b602060405180830381865afa158015610fa3573d6000803e3d6000fd5b505050506040513d601f19601f82011682018060405250810190610fc79190611630565b9050919050565b604051806101400160405280600a90602082028036833780820191505090505090565b604051806101400160405280600a905b60608152602001906001900390816110015790505090565b600080fd5b600080fd5b600073ffffffffffffffffffffffffffffffffffffffff82169050919050565b600061104e82611023565b9050919050565b61105e81611043565b811461106957600080fd5b50565b60008135905061107b81611055565b92915050565b60006020828403121561109757611096611019565b5b60006110a58482850161106c565b91505092915050565b60008115159050919050565b6110c3816110ae565b82525050565b60006020820190506110de60008301846110ba565b92915050565b6000819050919050565b6110f7816110e4565b82525050565b600060208201905061111260008301846110ee565b92915050565b6000600a9050919050565b600081905092915050565b6000819050919050565b611141816110e4565b82525050565b60006111538383611138565b60208301905092915050565b6000602082019050919050565b61117581611118565b61117f8184611123565b925061118a8261112e565b8060005b838110156111bb5781516111a28782611147565b96506111ad8361115f565b92505060018101905061118e565b505050505050565b6000600a9050919050565b600081905092915050565b6000819050919050565b600081519050919050565b600082825260208201905092915050565b60005b8381101561121d578082015181840152602081019050611202565b60008484015250505050565b6000601f19601f8301169050919050565b6000611245826111e3565b61124f81856111ee565b935061125f8185602086016111ff565b61126881611229565b840191505092915050565b600061127f838361123a565b905092915050565b6000602082019050919050565b600061129f826111c3565b6112a981856111ce565b9350836020820285016112bb856111d9565b8060005b858110156112f757848403895281516112d88582611273565b94506112e383611287565b925060208a019950506001810190506112bf565b50829750879550505050505092915050565b60006101808201905061131f600083018661116c565b8181036101408301526113328185611294565b90506113426101608301846110ee565b949350505050565b611353816110e4565b811461135e57600080fd5b50565b6000813590506113708161134a565b92915050565b6000806040838503121561138d5761138c611019565b5b600061139b8582860161106c565b92505060206113ac85828601611361565b9150509250929050565b60006113c182611023565b9050919050565b6113d1816113b6565b81146113dc57600080fd5b50565b6000813590506113ee816113c8565b92915050565b60008060006060848603121561140d5761140c611019565b5b600061141b86828701611361565b935050602061142c868287016113df565b925050604061143d86828701611361565b9150509250925092565b600080fd5b600080fd5b600080fd5b60008083601f84011261146c5761146b611447565b5b8235905067ffffffffffffffff8111156114895761148861144c565b5b6020830191508360018202830111156114a5576114a4611451565b5b9250929050565b600080600080604085870312156114c6576114c5611019565b5b600085013567ffffffffffffffff8111156114e4576114e361101e565b5b6114f087828801611456565b9450945050602085013567ffffffffffffffff8111156115135761151261101e565b5b61151f87828801611456565b925092505092959194509250565b6000819050919050565b600061155261154d61154884611023565b61152d565b611023565b9050919050565b600061156482611537565b9050919050565b600061157682611559565b9050919050565b6115868161156b565b82525050565b60006020820190506115a1600083018461157d565b92915050565b600080600080606085870312156115c1576115c0611019565b5b60006115cf87828801611361565b94505060206115e087828801611361565b935050604085013567ffffffffffffffff8111156116015761160061101e565b5b61160d87828801611456565b925092505092959194509250565b60008151905061162a8161134a565b92915050565b60006020828403121561164657611645611019565b5b60006116548482850161161b565b91505092915050565b7f4e487b7100000000000000000000000000000000000000000000000000000000600052603260045260246000fd5b7f4e487b7100000000000000000000000000000000000000000000000000000000600052602260045260246000fd5b600060028204905060018216806116d357607f821691505b6020821081036116e6576116e561168c565b5b50919050565b7f4e487b7100000000000000000000000000000000000000000000000000000000600052601160045260246000fd5b6000611726826110e4565b91507fffffffffffffffffffffffffffffffffffffffffffffffffffffffffffffffff8203611758576117576116ec565b5b600182019050919050565b600061176e826110e4565b9150611779836110e4565b9250828201905080821115611791576117906116ec565b5b92915050565b7f4e487b7100000000000000000000000000000000000000000000000000000000600052601260045260246000fd5b60006117d1826110e4565b91506117dc836110e4565b9250826117ec576117eb611797565b5b828204905092915050565b6000611802826110e4565b915061180d836110e4565b925082820261181b816110e4565b91508282048414831517611832576118316116ec565b5b5092915050565b600082905092915050565b7f4e487b7100000000000000000000000000000000000000000000000000000000600052604160045260246000fd5b60008190508160005260206000209050919050565b60006020601f8301049050919050565b600082821b905092915050565b6000600883026118d57fffffffffffffffffffffffffffffffffffffffffffffffffffffffffffffffff82611898565b6118df8683611898565b95508019841693508086168417925050509392505050565b600061191261190d611908846110e4565b61152d565b6110e4565b9050919050565b6000819050919050565b61192c836118f7565b61194061193882611919565b8484546118a5565b825550505050565b600090565b611955611948565b611960818484611923565b505050565b5b818110156119845761197960008261194d565b600181019050611966565b5050565b601f8211156119c95761199a81611873565b6119a384611888565b810160208510156119b2578190505b6119c66119be85611888565b830182611965565b50505b505050565b600082821c905092915050565b60006119ec600019846008026119ce565b1980831691505092915050565b6000611a0583836119db565b9150826002028217905092915050565b611a1f8383611839565b67ffffffffffffffff811115611a3857611a37611844565b5b611a4282546116bb565b611a4d828285611988565b6000601f831160018114611a7c5760008415611a6a578287013590505b611a7485826119f9565b865550611adc565b601f198416611a8a86611873565b60005b82811015611ab257848901358255600182019150602085019450602081019050611a8d565b86831015611acf5784890135611acb601f8916826119db565b8355505b6001600288020188555050505b50505050505050565b600082825260208201905092915050565b7f4e6f7420656e6f7567682066756e647320696e20746865207075727365000000600082015250565b6000611b2c601d83611ae5565b9150611b3782611af6565b602082019050919050565b60006020820190508181036000830152611b5b81611b1f565b9050919050565b611b6b81611043565b82525050565b6000604082019050611b866000830185611b62565b611b9360208301846110ee565b9392505050565b6000602082019050611baf6000830184611b62565b9291505056fea2646970667358221220c701e52d535a6ec167fd2539a2637e1524dfa7732309a14102c4a03f7016594064736f6c63430008110033",
  "immutableReferences": {},
  "source": "// SPDX-License-Identifier: GPL-3.0\r\npragma solidity >=0.7.0 <0.9.0;\r\n\r\nimport \"@openzeppelin/contracts/token/ERC20/ERC20.sol\";\r\nimport \"@openzeppelin/contracts/access/Ownable.sol\";\r\nimport \"@openzeppelin/contracts/token/ERC20/extensions/draft-ERC20Permit.sol\";\r\nimport \"@openzeppelin/contracts/token/ERC20/extensions/ERC20Votes.sol\";\r\nimport \"./faunacoin.sol\";\r\n\r\ncontract Cryptonate {\r\n    ///////////////////////// ALL STORAGE VARIABLES\r\n    // address fcAddr = 0xd9145CCE52D386f254917e481eB44e9943F39138;\r\n\r\n    Faunacoin public fc_ref;\r\n\r\n    constructor(Faunacoin faunacoinAddress) {\r\n        fc_ref = faunacoinAddress;\r\n    }\r\n\r\n    address payable cryptonateOwner;\r\n\r\n    // Holds details of each poll\r\n    struct Poll {\r\n        uint256 pollId;\r\n        string description;\r\n        uint256 approved;\r\n        uint256 disapproved;\r\n        uint256 state;\r\n        uint256 amount;\r\n    }\r\n\r\n    // Hold details of a single charity\r\n    struct Charity {\r\n        address payable _charity;\r\n        string name;\r\n        string description;\r\n        uint256 funds;\r\n        uint256 numPolls;\r\n        uint256 numDonors;\r\n        mapping(uint256 => Poll) polls;\r\n    }\r\n\r\n    // Hold details of all charities\r\n    mapping(address => Charity) allCharities;\r\n\r\n    // Hold details of a donor\r\n    struct Donor {\r\n        address _donor;\r\n        mapping(address => bool) charities;\r\n    }\r\n\r\n    // Hold all donors\r\n    mapping(address => Donor) allDonors;\r\n\r\n    ///////////////////////// MODIFIERS\r\n\r\n    modifier validateRequest(address sender, uint256 amount) {\r\n        require(\r\n            allCharities[sender].funds > amount,\r\n            \"Not enough funds in the purse\"\r\n        );\r\n        _;\r\n    }\r\n\r\n    ///////////////////////// INIT FUNCTIONS\r\n    function getBalance(address donorAddr) public view returns (uint256) {\r\n        return fc_ref.balanceOf(donorAddr);\r\n    }\r\n\r\n    function mintTokens(address donorAddr, uint256 amount) public {\r\n        fc_ref.mint(donorAddr, amount);\r\n    }\r\n\r\n    function totalSupply() public view returns (uint256) {\r\n        return fc_ref.totalSupply();\r\n    }\r\n\r\n    // Register a charity\r\n    function registerCharity(string calldata name, string calldata description)\r\n        public\r\n    {\r\n        Charity storage c = allCharities[payable(msg.sender)];\r\n        c._charity = payable(msg.sender);\r\n        c.name = name;\r\n        c.description = description;\r\n        c.funds = 0;\r\n        c.numDonors = 0;\r\n        c.numPolls = 0;\r\n    }\r\n\r\n    // Register a donor\r\n    function registerDonor() public {\r\n        Donor storage d = allDonors[msg.sender];\r\n        d._donor = msg.sender;\r\n    }\r\n\r\n    function registerDonation(address charityAddress, uint256 amount)\r\n        public\r\n        payable\r\n    {\r\n        require(msg.value == amount && amount > 0);\r\n\r\n        // Add charity to the donor's list\r\n        Donor storage d = allDonors[msg.sender];\r\n\r\n        // Add amount to charity's purse\r\n        Charity storage c = allCharities[charityAddress];\r\n        c.funds += amount;\r\n\r\n        // This is to check if the donor should be allowed to respond to a poll by this charity\r\n        if (d.charities[charityAddress] == false) {\r\n            d.charities[charityAddress] = true;\r\n            c.numDonors += 1;\r\n        }\r\n\r\n        //TODO: Send tokens to the donor\r\n\r\n        // Give tokens to the donor\r\n        mintTokens(msg.sender, amount / 1000000000000000000);\r\n    }\r\n\r\n    // Create a new poll or transfer funds in case of opex\r\n    function requestFunds(\r\n        uint256 amount,\r\n        uint256 expenseType,\r\n        string calldata description\r\n    ) public payable validateRequest(msg.sender, amount) {\r\n        if (expenseType == 0) {\r\n            // Send funds\r\n            payable(msg.sender).transfer(amount * 1000000000000000000);\r\n        } else {\r\n            Charity storage c = allCharities[msg.sender];\r\n            c.polls[c.numPolls].pollId = c.numPolls;\r\n            c.polls[c.numPolls].description = description;\r\n            c.polls[c.numPolls].approved = 0;\r\n            c.polls[c.numPolls].disapproved = 0;\r\n            c.polls[c.numPolls].state = 0;\r\n            c.polls[c.numPolls].amount = amount;\r\n            c.numPolls++;\r\n        }\r\n    }\r\n\r\n    // Register donor's vote\r\n    function vote(\r\n        uint256 pollId,\r\n        address payable charityAddress,\r\n        uint256 voteType\r\n    ) public {\r\n        // Add user's vote\r\n        Charity storage c = allCharities[charityAddress];\r\n        // Check if this donor has donated to this charity\r\n        require(allDonors[msg.sender].charities[charityAddress] == true);\r\n\r\n        // TODO: Get the donors token balance to decide the weight of their vote.\r\n        // TODO: Change\r\n        uint256 balance = getBalance(msg.sender);\r\n\r\n        if (voteType == 1) {\r\n            c.polls[pollId].approved += balance;\r\n        } else {\r\n            c.polls[pollId].disapproved += balance;\r\n        }\r\n        if (\r\n            c.polls[pollId].approved + c.polls[pollId].disapproved >=\r\n            (totalSupply() * 75) / 100\r\n        ) {\r\n            c.polls[pollId].state = 1;\r\n            payable(charityAddress).transfer(\r\n                c.polls[pollId].amount * 1000000000000000000\r\n            );\r\n        }\r\n    }\r\n\r\n    // User login\r\n    function checkValidDonor(address key) public view returns (bool) {\r\n        if (allDonors[key]._donor == key) {\r\n            return true;\r\n        } else {\r\n            return false;\r\n        }\r\n    }\r\n\r\n    function checkValidCharity(address key) public view returns (bool) {\r\n        if (allCharities[key]._charity == key) {\r\n            return true;\r\n        } else {\r\n            return false;\r\n        }\r\n    }\r\n\r\n    // Get last 10 polls of an organization with description, approved and disapproved vote counts\r\n    function getPolls(address charityAddress)\r\n        public\r\n        view\r\n        returns (\r\n            uint256[10] memory,\r\n            // uint256[10] memory,\r\n            string[10] memory,\r\n            uint256\r\n        )\r\n    {\r\n        Charity storage c = allCharities[charityAddress];\r\n        uint256[10] memory approved;\r\n        // uint256[10] memory disapproved;\r\n        string[10] memory descriptions;\r\n        uint256 total;\r\n\r\n        for (uint256 i = 0; i < 10; i++) {\r\n            approved[i] = c.polls[i].approved;\r\n            // disapproved[i] = c.polls[i].disapproved;\r\n            total = totalSupply();\r\n\r\n            descriptions[i] = c.polls[i].description;\r\n        }\r\n        return (approved, descriptions, total);\r\n    }\r\n\r\n    // Get the current number of polls of a given organisation\r\n    function getNumPolls(address charityAddress) public view returns (uint256) {\r\n        Charity storage c = allCharities[charityAddress];\r\n        return c.numPolls;\r\n    }\r\n}\r\n",
  "sourcePath": "C:\\Users\\Manu\\Documents\\blockchain project\\blockchain\\cryptonate-contract\\contracts\\Cryptonate.sol",
  "compiler": {
    "name": "solc",
    "version": "0.8.17+commit.8df45f5f.Emscripten.clang"
  },
  "schemaVersion": "3.4.10",
  "updatedAt": "2022-12-08T00:29:42.374Z",
  "networkType": "ethereum",
  "devdoc": {
    "kind": "dev",
    "methods": {},
    "version": 1
  },
  "userdoc": {
    "kind": "user",
    "methods": {},
    "version": 1
  }
}