{
  "contractName": "Cryptonate",
  "abi": [
    {
      "inputs": [
        {
          "internalType": "address payable",
          "name": "charityAddress",
          "type": "address"
        }
      ],
      "name": "registerCharity",
      "outputs": [],
      "stateMutability": "nonpayable",
      "type": "function"
    },
    {
      "inputs": [
        {
          "internalType": "address",
          "name": "donorAddress",
          "type": "address"
        }
      ],
      "name": "registerDonor",
      "outputs": [],
      "stateMutability": "payable",
      "type": "function",
      "payable": true
    },
    {
      "inputs": [
        {
          "internalType": "address",
          "name": "key",
          "type": "address"
        }
      ],
      "name": "checkValidDonor",
      "outputs": [
        {
          "internalType": "bool",
          "name": "",
          "type": "bool"
        }
      ],
      "stateMutability": "view",
      "type": "function",
      "constant": true
    },
    {
      "inputs": [
        {
          "internalType": "address",
          "name": "key",
          "type": "address"
        }
      ],
      "name": "checkValidCharity",
      "outputs": [
        {
          "internalType": "bool",
          "name": "",
          "type": "bool"
        }
      ],
      "stateMutability": "view",
      "type": "function",
      "constant": true
    },
    {
      "inputs": [
        {
          "internalType": "address",
          "name": "charityAddress",
          "type": "address"
        },
        {
          "internalType": "uint256",
          "name": "amount",
          "type": "uint256"
        }
      ],
      "name": "registerDonation",
      "outputs": [],
      "stateMutability": "payable",
      "type": "function",
      "payable": true
    },
    {
      "inputs": [
        {
          "internalType": "uint256",
          "name": "amount",
          "type": "uint256"
        },
        {
          "internalType": "uint256",
          "name": "expenseType",
          "type": "uint256"
        },
        {
          "internalType": "string",
          "name": "description",
          "type": "string"
        }
      ],
      "name": "requestFunds",
      "outputs": [],
      "stateMutability": "payable",
      "type": "function",
      "payable": true
    },
    {
      "inputs": [
        {
          "internalType": "uint256",
          "name": "pollId",
          "type": "uint256"
        },
        {
          "internalType": "address payable",
          "name": "charity",
          "type": "address"
        },
        {
          "internalType": "int256",
          "name": "voteType",
          "type": "int256"
        }
      ],
      "name": "vote",
      "outputs": [],
      "stateMutability": "nonpayable",
      "type": "function"
    }
  ],
  "bytecode": "0x608060405234801561001057600080fd5b50610f0f806100206000396000f3fe6080604052600436106100705760003560e01c8063b134a4871161004e578063b134a487146100f7578063bc9f30a514610120578063e8a568fa1461013c578063f1be929e1461015857610070565b80630dbf8da114610075578063144599f21461009e5780633c49dde4146100db575b600080fd5b34801561008157600080fd5b5061009c600480360381019061009791906107ad565b610195565b005b3480156100aa57600080fd5b506100c560048036038101906100c09190610818565b610233565b6040516100d29190610860565b60405180910390f35b6100f560048036038101906100f091906108b1565b6102dd565b005b34801561010357600080fd5b5061011e60048036038101906101199190610927565b6103de565b005b61013a60048036038101906101359190610818565b610491565b005b610156600480360381019061015191906109df565b61051b565b005b34801561016457600080fd5b5061017f600480360381019061017a9190610818565b61069b565b60405161018c9190610860565b60405180910390f35b6000600160008373ffffffffffffffffffffffffffffffffffffffff1673ffffffffffffffffffffffffffffffffffffffff1681526020019081526020016000209050818160000160006101000a81548173ffffffffffffffffffffffffffffffffffffffff021916908373ffffffffffffffffffffffffffffffffffffffff16021790555060008160010181905550600081600201819055505050565b60008173ffffffffffffffffffffffffffffffffffffffff16600260008473ffffffffffffffffffffffffffffffffffffffff1673ffffffffffffffffffffffffffffffffffffffff16815260200190815260200160002060000160009054906101000a900473ffffffffffffffffffffffffffffffffffffffff1673ffffffffffffffffffffffffffffffffffffffff16036102d357600190506102d8565b600090505b919050565b6000600260003373ffffffffffffffffffffffffffffffffffffffff1673ffffffffffffffffffffffffffffffffffffffff168152602001908152602001600020905060018160010160008573ffffffffffffffffffffffffffffffffffffffff1673ffffffffffffffffffffffffffffffffffffffff16815260200190815260200160002060006101000a81548160ff0219169083151502179055506000600160008573ffffffffffffffffffffffffffffffffffffffff1673ffffffffffffffffffffffffffffffffffffffff1681526020019081526020016000209050828160010160008282546103d19190610a82565b9250508190555050505050565b6000600160008473ffffffffffffffffffffffffffffffffffffffff1673ffffffffffffffffffffffffffffffffffffffff16815260200190815260200160002090506001820361045c57806003016000858152602001908152602001600020600201600081548092919061045290610ab6565b919050555061048b565b806003016000858152602001908152602001600020600301600081548092919061048590610ab6565b91905055505b50505050565b6000600260008373ffffffffffffffffffffffffffffffffffffffff1673ffffffffffffffffffffffffffffffffffffffff1681526020019081526020016000209050818160000160006101000a81548173ffffffffffffffffffffffffffffffffffffffff021916908373ffffffffffffffffffffffffffffffffffffffff1602179055505050565b338480600160008473ffffffffffffffffffffffffffffffffffffffff1673ffffffffffffffffffffffffffffffffffffffff16815260200190815260200160002060010154116105a1576040517f08c379a000000000000000000000000000000000000000000000000000000000815260040161059890610b5b565b60405180910390fd5b600085036105f5573373ffffffffffffffffffffffffffffffffffffffff166108fc879081150290604051600060405180830381858888f193505050501580156105ef573d6000803e3d6000fd5b50610693565b6000600160003373ffffffffffffffffffffffffffffffffffffffff1673ffffffffffffffffffffffffffffffffffffffff168152602001908152602001600020905080600201600081548092919061064d90610b7b565b9190505550600081600301600083600201548152602001908152602001600020905081600201548160000181905550858582600101918261068f929190610e09565b5050505b505050505050565b60008173ffffffffffffffffffffffffffffffffffffffff16600160008473ffffffffffffffffffffffffffffffffffffffff1673ffffffffffffffffffffffffffffffffffffffff16815260200190815260200160002060000160009054906101000a900473ffffffffffffffffffffffffffffffffffffffff1673ffffffffffffffffffffffffffffffffffffffff160361073b5760019050610740565b600090505b919050565b600080fd5b600080fd5b600073ffffffffffffffffffffffffffffffffffffffff82169050919050565b600061077a8261074f565b9050919050565b61078a8161076f565b811461079557600080fd5b50565b6000813590506107a781610781565b92915050565b6000602082840312156107c3576107c2610745565b5b60006107d184828501610798565b91505092915050565b60006107e58261074f565b9050919050565b6107f5816107da565b811461080057600080fd5b50565b600081359050610812816107ec565b92915050565b60006020828403121561082e5761082d610745565b5b600061083c84828501610803565b91505092915050565b60008115159050919050565b61085a81610845565b82525050565b60006020820190506108756000830184610851565b92915050565b6000819050919050565b61088e8161087b565b811461089957600080fd5b50565b6000813590506108ab81610885565b92915050565b600080604083850312156108c8576108c7610745565b5b60006108d685828601610803565b92505060206108e78582860161089c565b9150509250929050565b6000819050919050565b610904816108f1565b811461090f57600080fd5b50565b600081359050610921816108fb565b92915050565b6000806000606084860312156109405761093f610745565b5b600061094e8682870161089c565b935050602061095f86828701610798565b925050604061097086828701610912565b9150509250925092565b600080fd5b600080fd5b600080fd5b60008083601f84011261099f5761099e61097a565b5b8235905067ffffffffffffffff8111156109bc576109bb61097f565b5b6020830191508360018202830111156109d8576109d7610984565b5b9250929050565b600080600080606085870312156109f9576109f8610745565b5b6000610a078782880161089c565b9450506020610a188782880161089c565b935050604085013567ffffffffffffffff811115610a3957610a3861074a565b5b610a4587828801610989565b925092505092959194509250565b7f4e487b7100000000000000000000000000000000000000000000000000000000600052601160045260246000fd5b6000610a8d8261087b565b9150610a988361087b565b9250828201905080821115610ab057610aaf610a53565b5b92915050565b6000610ac1826108f1565b91507f7fffffffffffffffffffffffffffffffffffffffffffffffffffffffffffffff8203610af357610af2610a53565b5b600182019050919050565b600082825260208201905092915050565b7f4e6f7420656e6f7567682066756e647320696e20746865207075727365000000600082015250565b6000610b45601d83610afe565b9150610b5082610b0f565b602082019050919050565b60006020820190508181036000830152610b7481610b38565b9050919050565b6000610b868261087b565b91507fffffffffffffffffffffffffffffffffffffffffffffffffffffffffffffffff8203610bb857610bb7610a53565b5b600182019050919050565b600082905092915050565b7f4e487b7100000000000000000000000000000000000000000000000000000000600052604160045260246000fd5b7f4e487b7100000000000000000000000000000000000000000000000000000000600052602260045260246000fd5b60006002820490506001821680610c4457607f821691505b602082108103610c5757610c56610bfd565b5b50919050565b60008190508160005260206000209050919050565b60006020601f8301049050919050565b600082821b905092915050565b600060088302610cbf7fffffffffffffffffffffffffffffffffffffffffffffffffffffffffffffffff82610c82565b610cc98683610c82565b95508019841693508086168417925050509392505050565b6000819050919050565b6000610d06610d01610cfc8461087b565b610ce1565b61087b565b9050919050565b6000819050919050565b610d2083610ceb565b610d34610d2c82610d0d565b848454610c8f565b825550505050565b600090565b610d49610d3c565b610d54818484610d17565b505050565b5b81811015610d7857610d6d600082610d41565b600181019050610d5a565b5050565b601f821115610dbd57610d8e81610c5d565b610d9784610c72565b81016020851015610da6578190505b610dba610db285610c72565b830182610d59565b50505b505050565b600082821c905092915050565b6000610de060001984600802610dc2565b1980831691505092915050565b6000610df98383610dcf565b9150826002028217905092915050565b610e138383610bc3565b67ffffffffffffffff811115610e2c57610e2b610bce565b5b610e368254610c2c565b610e41828285610d7c565b6000601f831160018114610e705760008415610e5e578287013590505b610e688582610ded565b865550610ed0565b601f198416610e7e86610c5d565b60005b82811015610ea657848901358255600182019150602085019450602081019050610e81565b86831015610ec35784890135610ebf601f891682610dcf565b8355505b6001600288020188555050505b5050505050505056fea26469706673582212201a5ff414ba0496470bfe590c37f4f73344a35b257cb7f0879cc581a38717969764736f6c63430008110033",
  "immutableReferences": {},
  "source": "// SPDX-License-Identifier: GPL-3.0\npragma solidity >=0.7.0 <0.9.0;\n\ncontract Cryptonate {\n    address payable cryptonateOwner;\n\n    // Holds details of each poll\n    struct Poll {\n        uint256 pollId;\n        string description;\n        int256 approved;\n        int256 disapproved;\n    }\n\n    // Hold details of a single charity\n    struct Charity {\n        address payable _charity;\n        uint256 funds;\n        uint256 numPolls;\n        mapping(uint256 => Poll) polls;\n    }\n\n    // Hold details of all charities\n    mapping(address => Charity) allCharities;\n\n    // Hold details of a donor\n    struct Donor {\n        address _donor;\n        mapping(address => bool) charities;\n    }\n\n    // Hold all donors\n    mapping(address => Donor) allDonors;\n\n    modifier validateRequest(address sender, uint256 amount) {\n        require(\n            allCharities[sender].funds > amount,\n            \"Not enough funds in the purse\"\n        );\n        _;\n    }\n\n    // Register a charity\n    function registerCharity(address payable charityAddress) public {\n        Charity storage c = allCharities[charityAddress];\n        c._charity = charityAddress;\n        c.funds = 0;\n        c.numPolls = 0;\n    }\n\n    // Register a donor\n    function registerDonor(address donorAddress) public payable{\n        Donor storage d = allDonors[donorAddress];\n        d._donor = donorAddress;\n    }\n\n    function checkValidDonor(address key) public view returns (bool) {\n        if(allDonors[key]._donor == key){\n            return true;\n        } \n        else{\n            return false;\n        }\n    }\n\n    function checkValidCharity(address key) public view returns (bool) {\n        if(allCharities[key]._charity == key){\n            return true;\n        } \n        else{\n            return false;\n        }\n    }\n\n    function registerDonation(address charityAddress, uint256 amount) public payable{\n        // require(msg.value == amount && amount > 0);\n\n        // Add charity to the donor's list\n        Donor storage d = allDonors[msg.sender];\n        // This is to check if the donor should be allowed to respond to a poll by this charity\n        d.charities[charityAddress] = true;\n\n        // Add amount to charity's purse\n        Charity storage c = allCharities[charityAddress];\n        c.funds += amount;\n    }\n\n    // Transfer funds both opex and capex\n    function requestFunds(\n        uint256 amount,\n        uint256 expenseType,\n        string calldata description\n    ) public payable validateRequest(msg.sender, amount) {\n        if (expenseType == 0) {\n            // Send funds\n            payable(msg.sender).transfer(amount);\n        } else {\n            Charity storage c = allCharities[msg.sender];\n            c.numPolls++;\n            Poll storage p = c.polls[c.numPolls];\n            p.pollId = c.numPolls;\n            p.description = description;\n        }\n    }\n\n    function vote(\n        uint256 pollId,\n        address payable charity,\n        int256 voteType\n    ) public {\n        // Add user's vote\n        Charity storage c = allCharities[charity];\n        if (voteType == 1) {\n            c.polls[pollId].approved++;\n        } else {\n            c.polls[pollId].disapproved++;\n        }\n    }\n}\n",
  "sourcePath": "/Users/tanvikarennavar/blockchain/cryptonate-contract/contracts/Cryptonate.sol",
  "compiler": {
    "name": "solc",
    "version": "0.8.17+commit.8df45f5f.Emscripten.clang"
  },
  "schemaVersion": "3.4.10",
  "updatedAt": "2022-11-14T06:40:41.005Z",
  "networkType": "ethereum",
  "devdoc": {
    "kind": "dev",
    "methods": {},
    "version": 1
  },
  "userdoc": {
    "kind": "user",
    "methods": {},
    "version": 1
  }
}